{
  "_format": "hh-sol-artifact-1",
  "contractName": "LandRegistry",
  "sourceName": "contracts/Land.sol",
  "abi": [
    {
      "inputs": [],
      "stateMutability": "nonpayable",
      "type": "constructor"
    },
    {
      "inputs": [
        {
          "internalType": "address",
          "name": "sender",
          "type": "address"
        },
        {
          "internalType": "uint256",
          "name": "tokenId",
          "type": "uint256"
        },
        {
          "internalType": "address",
          "name": "owner",
          "type": "address"
        }
      ],
      "name": "ERC721IncorrectOwner",
      "type": "error"
    },
    {
      "inputs": [
        {
          "internalType": "address",
          "name": "operator",
          "type": "address"
        },
        {
          "internalType": "uint256",
          "name": "tokenId",
          "type": "uint256"
        }
      ],
      "name": "ERC721InsufficientApproval",
      "type": "error"
    },
    {
      "inputs": [
        {
          "internalType": "address",
          "name": "approver",
          "type": "address"
        }
      ],
      "name": "ERC721InvalidApprover",
      "type": "error"
    },
    {
      "inputs": [
        {
          "internalType": "address",
          "name": "operator",
          "type": "address"
        }
      ],
      "name": "ERC721InvalidOperator",
      "type": "error"
    },
    {
      "inputs": [
        {
          "internalType": "address",
          "name": "owner",
          "type": "address"
        }
      ],
      "name": "ERC721InvalidOwner",
      "type": "error"
    },
    {
      "inputs": [
        {
          "internalType": "address",
          "name": "receiver",
          "type": "address"
        }
      ],
      "name": "ERC721InvalidReceiver",
      "type": "error"
    },
    {
      "inputs": [
        {
          "internalType": "address",
          "name": "sender",
          "type": "address"
        }
      ],
      "name": "ERC721InvalidSender",
      "type": "error"
    },
    {
      "inputs": [
        {
          "internalType": "uint256",
          "name": "tokenId",
          "type": "uint256"
        }
      ],
      "name": "ERC721NonexistentToken",
      "type": "error"
    },
    {
      "inputs": [],
      "name": "ReentrancyGuardReentrantCall",
      "type": "error"
    },
    {
      "anonymous": false,
      "inputs": [
        {
          "indexed": true,
          "internalType": "address",
          "name": "owner",
          "type": "address"
        },
        {
          "indexed": true,
          "internalType": "address",
          "name": "approved",
          "type": "address"
        },
        {
          "indexed": true,
          "internalType": "uint256",
          "name": "tokenId",
          "type": "uint256"
        }
      ],
      "name": "Approval",
      "type": "event"
    },
    {
      "anonymous": false,
      "inputs": [
        {
          "indexed": true,
          "internalType": "address",
          "name": "owner",
          "type": "address"
        },
        {
          "indexed": true,
          "internalType": "address",
          "name": "operator",
          "type": "address"
        },
        {
          "indexed": false,
          "internalType": "bool",
          "name": "approved",
          "type": "bool"
        }
      ],
      "name": "ApprovalForAll",
      "type": "event"
    },
    {
      "anonymous": false,
      "inputs": [
        {
          "indexed": false,
          "internalType": "uint256",
          "name": "_fromTokenId",
          "type": "uint256"
        },
        {
          "indexed": false,
          "internalType": "uint256",
          "name": "_toTokenId",
          "type": "uint256"
        }
      ],
      "name": "BatchMetadataUpdate",
      "type": "event"
    },
    {
      "anonymous": false,
      "inputs": [
        {
          "indexed": true,
          "internalType": "uint256",
          "name": "landId",
          "type": "uint256"
        },
        {
          "indexed": true,
          "internalType": "address",
          "name": "buyer",
          "type": "address"
        }
      ],
      "name": "BuyRequestMade",
      "type": "event"
    },
    {
      "anonymous": false,
      "inputs": [
        {
          "indexed": true,
          "internalType": "address",
          "name": "govtAuthority",
          "type": "address"
        }
      ],
      "name": "GovtAuthorityRegistered",
      "type": "event"
    },
    {
      "anonymous": false,
      "inputs": [
        {
          "indexed": true,
          "internalType": "uint256",
          "name": "landId",
          "type": "uint256"
        }
      ],
      "name": "LandListedForSale",
      "type": "event"
    },
    {
      "anonymous": false,
      "inputs": [
        {
          "indexed": true,
          "internalType": "uint256",
          "name": "landId",
          "type": "uint256"
        },
        {
          "indexed": true,
          "internalType": "address",
          "name": "owner",
          "type": "address"
        }
      ],
      "name": "LandNFTMinted",
      "type": "event"
    },
    {
      "anonymous": false,
      "inputs": [
        {
          "indexed": true,
          "internalType": "uint256",
          "name": "landId",
          "type": "uint256"
        },
        {
          "indexed": true,
          "internalType": "address",
          "name": "owner",
          "type": "address"
        }
      ],
      "name": "LandRegistered",
      "type": "event"
    },
    {
      "anonymous": false,
      "inputs": [
        {
          "indexed": false,
          "internalType": "uint256",
          "name": "_tokenId",
          "type": "uint256"
        }
      ],
      "name": "MetadataUpdate",
      "type": "event"
    },
    {
      "anonymous": false,
      "inputs": [
        {
          "indexed": true,
          "internalType": "uint256",
          "name": "landId",
          "type": "uint256"
        },
        {
          "indexed": true,
          "internalType": "address",
          "name": "buyer",
          "type": "address"
        }
      ],
      "name": "SaleApprovedByAuthority",
      "type": "event"
    },
    {
      "anonymous": false,
      "inputs": [
        {
          "indexed": true,
          "internalType": "uint256",
          "name": "landId",
          "type": "uint256"
        },
        {
          "indexed": true,
          "internalType": "address",
          "name": "buyer",
          "type": "address"
        },
        {
          "indexed": false,
          "internalType": "string",
          "name": "proofUrl",
          "type": "string"
        }
      ],
      "name": "SaleApprovedByOwner",
      "type": "event"
    },
    {
      "anonymous": false,
      "inputs": [
        {
          "indexed": true,
          "internalType": "address",
          "name": "from",
          "type": "address"
        },
        {
          "indexed": true,
          "internalType": "address",
          "name": "to",
          "type": "address"
        },
        {
          "indexed": true,
          "internalType": "uint256",
          "name": "tokenId",
          "type": "uint256"
        }
      ],
      "name": "Transfer",
      "type": "event"
    },
    {
      "anonymous": false,
      "inputs": [
        {
          "indexed": true,
          "internalType": "address",
          "name": "user",
          "type": "address"
        }
      ],
      "name": "UserRegistered",
      "type": "event"
    },
    {
      "inputs": [
        {
          "internalType": "address",
          "name": "to",
          "type": "address"
        },
        {
          "internalType": "uint256",
          "name": "tokenId",
          "type": "uint256"
        }
      ],
      "name": "approve",
      "outputs": [],
      "stateMutability": "nonpayable",
      "type": "function"
    },
    {
      "inputs": [
        {
          "internalType": "uint256",
          "name": "landId",
          "type": "uint256"
        }
      ],
      "name": "approveSaleByAuthority",
      "outputs": [],
      "stateMutability": "nonpayable",
      "type": "function"
    },
    {
      "inputs": [
        {
          "internalType": "uint256",
          "name": "landId",
          "type": "uint256"
        },
        {
          "internalType": "string",
          "name": "proofUrl",
          "type": "string"
        }
      ],
      "name": "approveSaleByOwner",
      "outputs": [],
      "stateMutability": "nonpayable",
      "type": "function"
    },
    {
      "inputs": [
        {
          "internalType": "address",
          "name": "owner",
          "type": "address"
        }
      ],
      "name": "balanceOf",
      "outputs": [
        {
          "internalType": "uint256",
          "name": "",
          "type": "uint256"
        }
      ],
      "stateMutability": "view",
      "type": "function"
    },
    {
      "inputs": [
        {
          "internalType": "uint256",
          "name": "tokenId",
          "type": "uint256"
        }
      ],
      "name": "getApproved",
      "outputs": [
        {
          "internalType": "address",
          "name": "",
          "type": "address"
        }
      ],
      "stateMutability": "view",
      "type": "function"
    },
    {
      "inputs": [
        {
          "internalType": "address",
          "name": "",
          "type": "address"
        }
      ],
      "name": "govtAuthorities",
      "outputs": [
        {
          "internalType": "address",
          "name": "id",
          "type": "address"
        },
        {
          "internalType": "string",
          "name": "govtId",
          "type": "string"
        },
        {
          "internalType": "string",
          "name": "name",
          "type": "string"
        },
        {
          "internalType": "string",
          "name": "designation",
          "type": "string"
        }
      ],
      "stateMutability": "view",
      "type": "function"
    },
    {
      "inputs": [
        {
          "internalType": "address",
          "name": "owner",
          "type": "address"
        },
        {
          "internalType": "address",
          "name": "operator",
          "type": "address"
        }
      ],
      "name": "isApprovedForAll",
      "outputs": [
        {
          "internalType": "bool",
          "name": "",
          "type": "bool"
        }
      ],
      "stateMutability": "view",
      "type": "function"
    },
    {
      "inputs": [
        {
          "internalType": "uint256",
          "name": "",
          "type": "uint256"
        }
      ],
      "name": "lands",
      "outputs": [
        {
          "internalType": "uint256",
          "name": "id",
          "type": "uint256"
        },
        {
          "internalType": "string",
          "name": "propertyId",
          "type": "string"
        },
        {
          "internalType": "uint256",
          "name": "area",
          "type": "uint256"
        },
        {
          "internalType": "string",
          "name": "landAddress",
          "type": "string"
        },
        {
          "internalType": "uint256",
          "name": "landPrice",
          "type": "uint256"
        },
        {
          "internalType": "bool",
          "name": "isForSale",
          "type": "bool"
        },
        {
          "internalType": "address",
          "name": "ownerAddress",
          "type": "address"
        },
        {
          "internalType": "bool",
          "name": "isLandVerified",
          "type": "bool"
        }
      ],
      "stateMutability": "view",
      "type": "function"
    },
    {
      "inputs": [
        {
          "internalType": "uint256",
          "name": "landId",
          "type": "uint256"
        },
        {
          "internalType": "uint256",
          "name": "price",
          "type": "uint256"
        }
      ],
      "name": "listLandForSale",
      "outputs": [],
      "stateMutability": "nonpayable",
      "type": "function"
    },
    {
      "inputs": [],
      "name": "name",
      "outputs": [
        {
          "internalType": "string",
          "name": "",
          "type": "string"
        }
      ],
      "stateMutability": "view",
      "type": "function"
    },
    {
      "inputs": [
        {
          "internalType": "uint256",
          "name": "tokenId",
          "type": "uint256"
        }
      ],
      "name": "ownerOf",
      "outputs": [
        {
          "internalType": "address",
          "name": "",
          "type": "address"
        }
      ],
      "stateMutability": "view",
      "type": "function"
    },
    {
      "inputs": [
        {
          "internalType": "string",
          "name": "govtId",
          "type": "string"
        },
        {
          "internalType": "string",
          "name": "name",
          "type": "string"
        },
        {
          "internalType": "string",
          "name": "designation",
          "type": "string"
        }
      ],
      "name": "registerGovtAuthority",
      "outputs": [],
      "stateMutability": "nonpayable",
      "type": "function"
    },
    {
      "inputs": [
        {
          "internalType": "string",
          "name": "propertyId",
          "type": "string"
        },
        {
          "internalType": "uint256",
          "name": "area",
          "type": "uint256"
        },
        {
          "internalType": "string",
          "name": "landAddress",
          "type": "string"
        },
        {
          "internalType": "uint256",
          "name": "landPrice",
          "type": "uint256"
        }
      ],
      "name": "registerLand",
      "outputs": [],
      "stateMutability": "nonpayable",
      "type": "function"
    },
    {
      "inputs": [
        {
          "internalType": "string",
          "name": "name",
          "type": "string"
        },
        {
          "internalType": "string",
          "name": "aadharNo",
          "type": "string"
        },
        {
          "internalType": "string",
          "name": "panNo",
          "type": "string"
        },
        {
          "internalType": "string",
          "name": "phoneNumber",
          "type": "string"
        },
        {
          "internalType": "string",
          "name": "email",
          "type": "string"
        }
      ],
      "name": "registerUser",
      "outputs": [],
      "stateMutability": "nonpayable",
      "type": "function"
    },
    {
      "inputs": [
        {
          "internalType": "uint256",
          "name": "landId",
          "type": "uint256"
        }
      ],
      "name": "requestToBuyLand",
      "outputs": [],
      "stateMutability": "nonpayable",
      "type": "function"
    },
    {
      "inputs": [
        {
          "internalType": "address",
          "name": "from",
          "type": "address"
        },
        {
          "internalType": "address",
          "name": "to",
          "type": "address"
        },
        {
          "internalType": "uint256",
          "name": "tokenId",
          "type": "uint256"
        }
      ],
      "name": "safeTransferFrom",
      "outputs": [],
      "stateMutability": "nonpayable",
      "type": "function"
    },
    {
      "inputs": [
        {
          "internalType": "address",
          "name": "from",
          "type": "address"
        },
        {
          "internalType": "address",
          "name": "to",
          "type": "address"
        },
        {
          "internalType": "uint256",
          "name": "tokenId",
          "type": "uint256"
        },
        {
          "internalType": "bytes",
          "name": "data",
          "type": "bytes"
        }
      ],
      "name": "safeTransferFrom",
      "outputs": [],
      "stateMutability": "nonpayable",
      "type": "function"
    },
    {
      "inputs": [
        {
          "internalType": "address",
          "name": "operator",
          "type": "address"
        },
        {
          "internalType": "bool",
          "name": "approved",
          "type": "bool"
        }
      ],
      "name": "setApprovalForAll",
      "outputs": [],
      "stateMutability": "nonpayable",
      "type": "function"
    },
    {
      "inputs": [
        {
          "internalType": "uint256",
          "name": "landId",
          "type": "uint256"
        },
        {
          "internalType": "string",
          "name": "tokenURI",
          "type": "string"
        }
      ],
      "name": "setTokenURI",
      "outputs": [],
      "stateMutability": "nonpayable",
      "type": "function"
    },
    {
      "inputs": [
        {
          "internalType": "bytes4",
          "name": "interfaceId",
          "type": "bytes4"
        }
      ],
      "name": "supportsInterface",
      "outputs": [
        {
          "internalType": "bool",
          "name": "",
          "type": "bool"
        }
      ],
      "stateMutability": "view",
      "type": "function"
    },
    {
      "inputs": [],
      "name": "symbol",
      "outputs": [
        {
          "internalType": "string",
          "name": "",
          "type": "string"
        }
      ],
      "stateMutability": "view",
      "type": "function"
    },
    {
      "inputs": [
        {
          "internalType": "uint256",
          "name": "tokenId",
          "type": "uint256"
        }
      ],
      "name": "tokenURI",
      "outputs": [
        {
          "internalType": "string",
          "name": "",
          "type": "string"
        }
      ],
      "stateMutability": "view",
      "type": "function"
    },
    {
      "inputs": [
        {
          "internalType": "address",
          "name": "from",
          "type": "address"
        },
        {
          "internalType": "address",
          "name": "to",
          "type": "address"
        },
        {
          "internalType": "uint256",
          "name": "tokenId",
          "type": "uint256"
        }
      ],
      "name": "transferFrom",
      "outputs": [],
      "stateMutability": "nonpayable",
      "type": "function"
    },
    {
      "inputs": [
        {
          "internalType": "address",
          "name": "",
          "type": "address"
        }
      ],
      "name": "users",
      "outputs": [
        {
          "internalType": "address",
          "name": "id",
          "type": "address"
        },
        {
          "internalType": "string",
          "name": "name",
          "type": "string"
        },
        {
          "internalType": "string",
          "name": "aadharNo",
          "type": "string"
        },
        {
          "internalType": "string",
          "name": "panNo",
          "type": "string"
        },
        {
          "internalType": "string",
          "name": "phoneNumber",
          "type": "string"
        },
        {
          "internalType": "string",
          "name": "email",
          "type": "string"
        },
        {
          "internalType": "bool",
          "name": "isUserVerified",
          "type": "bool"
        }
      ],
      "stateMutability": "view",
      "type": "function"
    },
    {
      "inputs": [
        {
          "internalType": "uint256",
          "name": "landId",
          "type": "uint256"
        }
      ],
      "name": "verifyLand",
      "outputs": [],
      "stateMutability": "nonpayable",
      "type": "function"
    },
    {
      "inputs": [
        {
          "internalType": "address",
          "name": "userAddress",
          "type": "address"
        }
      ],
      "name": "verifyUser",
      "outputs": [],
      "stateMutability": "nonpayable",
      "type": "function"
    }
  ],
  "bytecode": "0x60806040523480156200001157600080fd5b506040518060400160405280601181526020017f4c616e645265676973747279546f6b656e0000000000000000000000000000008152506040518060400160405280600381526020017f4c5254000000000000000000000000000000000000000000000000000000000081525081600090816200008f91906200032c565b508060019081620000a191906200032c565b505050600160078190555062000413565b600081519050919050565b7f4e487b7100000000000000000000000000000000000000000000000000000000600052604160045260246000fd5b7f4e487b7100000000000000000000000000000000000000000000000000000000600052602260045260246000fd5b600060028204905060018216806200013457607f821691505b6020821081036200014a5762000149620000ec565b5b50919050565b60008190508160005260206000209050919050565b60006020601f8301049050919050565b600082821b905092915050565b600060088302620001b47fffffffffffffffffffffffffffffffffffffffffffffffffffffffffffffffff8262000175565b620001c0868362000175565b95508019841693508086168417925050509392505050565b6000819050919050565b6000819050919050565b60006200020d620002076200020184620001d8565b620001e2565b620001d8565b9050919050565b6000819050919050565b6200022983620001ec565b62000241620002388262000214565b84845462000182565b825550505050565b600090565b6200025862000249565b620002658184846200021e565b505050565b5b818110156200028d57620002816000826200024e565b6001810190506200026b565b5050565b601f821115620002dc57620002a68162000150565b620002b18462000165565b81016020851015620002c1578190505b620002d9620002d08562000165565b8301826200026a565b50505b505050565b600082821c905092915050565b60006200030160001984600802620002e1565b1980831691505092915050565b60006200031c8383620002ee565b9150826002028217905092915050565b6200033782620000b2565b67ffffffffffffffff811115620003535762000352620000bd565b5b6200035f82546200011b565b6200036c82828562000291565b600060209050601f831160018114620003a457600084156200038f578287015190505b6200039b85826200030e565b8655506200040b565b601f198416620003b48662000150565b60005b82811015620003de57848901518255600182019150602085019450602081019050620003b7565b86831015620003fe5784890151620003fa601f891682620002ee565b8355505b6001600288020188555050505b505050505050565b614d3880620004236000396000f3fe608060405234801561001057600080fd5b506004361061018e5760003560e01c80637f83a21d116100de578063b88d4fde11610097578063e261f1e511610071578063e261f1e514610494578063e985e9c5146104cb578063f9c43bdf146104fb578063fd1a8fef146105175761018e565b8063b88d4fde1461042c578063c87b56dd14610448578063d8c93726146104785761018e565b80637f83a21d146103515780637feb48be1461036d57806395d89b41146103a0578063a22cb465146103be578063a87430ba146103da578063ac9f0a40146104105761018e565b80632233f1611161014b5780634d813120116101255780634d813120146102b95780636352211e146102d557806370a082311461030557806378b70e69146103355761018e565b80632233f1611461026557806323b872dd1461028157806342842e0e1461029d5761018e565b806301ffc9a71461019357806306fdde03146101c3578063081812fc146101e1578063095ea7b3146102115780630a8c3da71461022d578063162094c414610249575b600080fd5b6101ad60048036038101906101a8919061370b565b610533565b6040516101ba9190613753565b60405180910390f35b6101cb610594565b6040516101d891906137fe565b60405180910390f35b6101fb60048036038101906101f69190613856565b610626565b60405161020891906138c4565b60405180910390f35b61022b6004803603810190610226919061390b565b610642565b005b61024760048036038101906102429190613856565b610658565b005b610263600480360381019061025e9190613a80565b610846565b005b61027f600480360381019061027a9190613adc565b610955565b005b61029b60048036038101906102969190613b7b565b610b8b565b005b6102b760048036038101906102b29190613b7b565b610c8d565b005b6102d360048036038101906102ce9190613bce565b610cad565b005b6102ef60048036038101906102ea9190613856565b610ddc565b6040516102fc91906138c4565b60405180910390f35b61031f600480360381019061031a9190613bce565b610dee565b60405161032c9190613c0a565b60405180910390f35b61034f600480360381019061034a9190613c25565b610ea8565b005b61036b60048036038101906103669190613a80565b6110c3565b005b61038760048036038101906103829190613bce565b6112b2565b6040516103979493929190613ccc565b60405180910390f35b6103a861149a565b6040516103b591906137fe565b60405180910390f35b6103d860048036038101906103d39190613d52565b61152c565b005b6103f460048036038101906103ef9190613bce565b611542565b6040516104079796959493929190613d92565b60405180910390f35b61042a60048036038101906104259190613e24565b611859565b005b61044660048036038101906104419190613fcc565b611b5f565b005b610462600480360381019061045d9190613856565b611b7c565b60405161046f91906137fe565b60405180910390f35b610492600480360381019061048d9190613856565b611c8f565b005b6104ae60048036038101906104a99190613856565b611f8c565b6040516104c298979695949392919061404f565b60405180910390f35b6104e560048036038101906104e091906140db565b61211e565b6040516104f29190613753565b60405180910390f35b61051560048036038101906105109190613856565b6121b2565b005b610531600480360381019061052c919061411b565b612476565b005b6000634906490660e01b7bffffffffffffffffffffffffffffffffffffffffffffffffffffffff1916827bffffffffffffffffffffffffffffffffffffffffffffffffffffffff1916148061058d575061058c826125fa565b5b9050919050565b6060600080546105a39061418a565b80601f01602080910402602001604051908101604052809291908181526020018280546105cf9061418a565b801561061c5780601f106105f15761010080835404028352916020019161061c565b820191906000526020600020905b8154815290600101906020018083116105ff57829003601f168201915b5050505050905090565b6000610631826126dc565b5061063b82612764565b9050919050565b610654828261064f6127a1565b6127a9565b5050565b600a60003373ffffffffffffffffffffffffffffffffffffffff1673ffffffffffffffffffffffffffffffffffffffff16815260200190815260200160002060060160009054906101000a900460ff166106e7576040517f08c379a00000000000000000000000000000000000000000000000000000000081526004016106de90614207565b60405180910390fd5b6009600082815260200190815260200160002060050160009054906101000a900460ff1661074a576040517f08c379a000000000000000000000000000000000000000000000000000000000815260040161074190614273565b60405180910390fd5b6009600082815260200190815260200160002060050160159054906101000a900460ff166107ad576040517f08c379a00000000000000000000000000000000000000000000000000000000081526004016107a4906142df565b60405180910390fd5b33600c600083815260200190815260200160002060006101000a81548173ffffffffffffffffffffffffffffffffffffffff021916908373ffffffffffffffffffffffffffffffffffffffff1602179055503373ffffffffffffffffffffffffffffffffffffffff16817fd6c0677184cb454588299e30c9cc7fa876f164999561675d51daa158de061ee460405160405180910390a350565b813373ffffffffffffffffffffffffffffffffffffffff166009600083815260200190815260200160002060050160019054906101000a900473ffffffffffffffffffffffffffffffffffffffff1673ffffffffffffffffffffffffffffffffffffffff16146108eb576040517f08c379a00000000000000000000000000000000000000000000000000000000081526004016108e290614371565b60405180910390fd5b600082511161092f576040517f08c379a0000000000000000000000000000000000000000000000000000000008152600401610926906143dd565b60405180910390fd5b81600e6000858152602001908152602001600020908161094f91906145a9565b50505050565b600a60003373ffffffffffffffffffffffffffffffffffffffff1673ffffffffffffffffffffffffffffffffffffffff16815260200190815260200160002060060160009054906101000a900460ff166109e4576040517f08c379a00000000000000000000000000000000000000000000000000000000081526004016109db90614207565b60405180910390fd5b600860008154809291906109f7906146aa565b9190505550600060085490506040518061010001604052808281526020018681526020018581526020018481526020018381526020016000151581526020013373ffffffffffffffffffffffffffffffffffffffff1681526020016000151581525060096000838152602001908152602001600020600082015181600001556020820151816001019081610a8b91906145a9565b50604082015181600201556060820151816003019081610aab91906145a9565b506080820151816004015560a08201518160050160006101000a81548160ff02191690831515021790555060c08201518160050160016101000a81548173ffffffffffffffffffffffffffffffffffffffff021916908373ffffffffffffffffffffffffffffffffffffffff16021790555060e08201518160050160156101000a81548160ff0219169083151502179055509050503373ffffffffffffffffffffffffffffffffffffffff16817fcb4990052f95f6057496d19524f6c3163f50af9f33f2c15b092928e03414323e60405160405180910390a35050505050565b600073ffffffffffffffffffffffffffffffffffffffff168273ffffffffffffffffffffffffffffffffffffffff1603610bfd5760006040517f64a0ae92000000000000000000000000000000000000000000000000000000008152600401610bf491906138c4565b60405180910390fd5b6000610c118383610c0c6127a1565b6127bb565b90508373ffffffffffffffffffffffffffffffffffffffff168173ffffffffffffffffffffffffffffffffffffffff1614610c87578382826040517f64283d7b000000000000000000000000000000000000000000000000000000008152600401610c7e939291906146f2565b60405180910390fd5b50505050565b610ca883838360405180602001604052806000815250611b5f565b505050565b600073ffffffffffffffffffffffffffffffffffffffff16600b60003373ffffffffffffffffffffffffffffffffffffffff1673ffffffffffffffffffffffffffffffffffffffff16815260200190815260200160002060000160009054906101000a900473ffffffffffffffffffffffffffffffffffffffff1673ffffffffffffffffffffffffffffffffffffffff1603610d7e576040517f08c379a0000000000000000000000000000000000000000000000000000000008152600401610d759061479b565b60405180910390fd5b6001600a60008373ffffffffffffffffffffffffffffffffffffffff1673ffffffffffffffffffffffffffffffffffffffff16815260200190815260200160002060060160006101000a81548160ff02191690831515021790555050565b6000610de7826126dc565b9050919050565b60008073ffffffffffffffffffffffffffffffffffffffff168273ffffffffffffffffffffffffffffffffffffffff1603610e615760006040517f89c62b64000000000000000000000000000000000000000000000000000000008152600401610e5891906138c4565b60405180910390fd5b600360008373ffffffffffffffffffffffffffffffffffffffff1673ffffffffffffffffffffffffffffffffffffffff168152602001908152602001600020549050919050565b600073ffffffffffffffffffffffffffffffffffffffff16600b60003373ffffffffffffffffffffffffffffffffffffffff1673ffffffffffffffffffffffffffffffffffffffff16815260200190815260200160002060000160009054906101000a900473ffffffffffffffffffffffffffffffffffffffff1673ffffffffffffffffffffffffffffffffffffffff1614610f79576040517f08c379a0000000000000000000000000000000000000000000000000000000008152600401610f7090614807565b60405180910390fd5b60405180608001604052803373ffffffffffffffffffffffffffffffffffffffff16815260200184815260200183815260200182815250600b60003373ffffffffffffffffffffffffffffffffffffffff1673ffffffffffffffffffffffffffffffffffffffff16815260200190815260200160002060008201518160000160006101000a81548173ffffffffffffffffffffffffffffffffffffffff021916908373ffffffffffffffffffffffffffffffffffffffff160217905550602082015181600101908161104b91906145a9565b50604082015181600201908161106191906145a9565b50606082015181600301908161107791906145a9565b509050503373ffffffffffffffffffffffffffffffffffffffff167f34b37b48f9d8d527f0373464ea94cc41b732f68ec673a274fc8ca62ad57b922a60405160405180910390a2505050565b813373ffffffffffffffffffffffffffffffffffffffff166009600083815260200190815260200160002060050160019054906101000a900473ffffffffffffffffffffffffffffffffffffffff1673ffffffffffffffffffffffffffffffffffffffff1614611168576040517f08c379a000000000000000000000000000000000000000000000000000000000815260040161115f90614371565b60405180910390fd5b600073ffffffffffffffffffffffffffffffffffffffff16600c600085815260200190815260200160002060009054906101000a900473ffffffffffffffffffffffffffffffffffffffff1673ffffffffffffffffffffffffffffffffffffffff160361120a576040517f08c379a000000000000000000000000000000000000000000000000000000000815260040161120190614873565b60405180910390fd5b81600d6000858152602001908152602001600020908161122a91906145a9565b50600c600084815260200190815260200160002060009054906101000a900473ffffffffffffffffffffffffffffffffffffffff1673ffffffffffffffffffffffffffffffffffffffff16837fa5a402d3fabf2e7817800cceeb38760cacef375bfff4e0833a730c34e918b0dc846040516112a591906137fe565b60405180910390a3505050565b600b6020528060005260406000206000915090508060000160009054906101000a900473ffffffffffffffffffffffffffffffffffffffff16908060010180546112fb9061418a565b80601f01602080910402602001604051908101604052809291908181526020018280546113279061418a565b80156113745780601f1061134957610100808354040283529160200191611374565b820191906000526020600020905b81548152906001019060200180831161135757829003601f168201915b5050505050908060020180546113899061418a565b80601f01602080910402602001604051908101604052809291908181526020018280546113b59061418a565b80156114025780601f106113d757610100808354040283529160200191611402565b820191906000526020600020905b8154815290600101906020018083116113e557829003601f168201915b5050505050908060030180546114179061418a565b80601f01602080910402602001604051908101604052809291908181526020018280546114439061418a565b80156114905780601f1061146557610100808354040283529160200191611490565b820191906000526020600020905b81548152906001019060200180831161147357829003601f168201915b5050505050905084565b6060600180546114a99061418a565b80601f01602080910402602001604051908101604052809291908181526020018280546114d59061418a565b80156115225780601f106114f757610100808354040283529160200191611522565b820191906000526020600020905b81548152906001019060200180831161150557829003601f168201915b5050505050905090565b61153e6115376127a1565b83836129d5565b5050565b600a6020528060005260406000206000915090508060000160009054906101000a900473ffffffffffffffffffffffffffffffffffffffff169080600101805461158b9061418a565b80601f01602080910402602001604051908101604052809291908181526020018280546115b79061418a565b80156116045780601f106115d957610100808354040283529160200191611604565b820191906000526020600020905b8154815290600101906020018083116115e757829003601f168201915b5050505050908060020180546116199061418a565b80601f01602080910402602001604051908101604052809291908181526020018280546116459061418a565b80156116925780601f1061166757610100808354040283529160200191611692565b820191906000526020600020905b81548152906001019060200180831161167557829003601f168201915b5050505050908060030180546116a79061418a565b80601f01602080910402602001604051908101604052809291908181526020018280546116d39061418a565b80156117205780601f106116f557610100808354040283529160200191611720565b820191906000526020600020905b81548152906001019060200180831161170357829003601f168201915b5050505050908060040180546117359061418a565b80601f01602080910402602001604051908101604052809291908181526020018280546117619061418a565b80156117ae5780601f10611783576101008083540402835291602001916117ae565b820191906000526020600020905b81548152906001019060200180831161179157829003601f168201915b5050505050908060050180546117c39061418a565b80601f01602080910402602001604051908101604052809291908181526020018280546117ef9061418a565b801561183c5780601f106118115761010080835404028352916020019161183c565b820191906000526020600020905b81548152906001019060200180831161181f57829003601f168201915b5050505050908060060160009054906101000a900460ff16905087565b600073ffffffffffffffffffffffffffffffffffffffff16600a60003373ffffffffffffffffffffffffffffffffffffffff1673ffffffffffffffffffffffffffffffffffffffff16815260200190815260200160002060000160009054906101000a900473ffffffffffffffffffffffffffffffffffffffff1673ffffffffffffffffffffffffffffffffffffffff161461192a576040517f08c379a0000000000000000000000000000000000000000000000000000000008152600401611921906148df565b60405180910390fd5b600a82511461196e576040517f08c379a00000000000000000000000000000000000000000000000000000000081526004016119659061494b565b60405180910390fd5b600c8451146119b2576040517f08c379a00000000000000000000000000000000000000000000000000000000081526004016119a9906149b7565b60405180910390fd5b6040518060e001604052803373ffffffffffffffffffffffffffffffffffffffff16815260200186815260200185815260200184815260200183815260200182815260200160001515815250600a60003373ffffffffffffffffffffffffffffffffffffffff1673ffffffffffffffffffffffffffffffffffffffff16815260200190815260200160002060008201518160000160006101000a81548173ffffffffffffffffffffffffffffffffffffffff021916908373ffffffffffffffffffffffffffffffffffffffff1602179055506020820151816001019081611a9991906145a9565b506040820151816002019081611aaf91906145a9565b506060820151816003019081611ac591906145a9565b506080820151816004019081611adb91906145a9565b5060a0820151816005019081611af191906145a9565b5060c08201518160060160006101000a81548160ff0219169083151502179055509050503373ffffffffffffffffffffffffffffffffffffffff167f54db7a5cb4735e1aac1f53db512d3390390bb6637bd30ad4bf9fc98667d9b9b960405160405180910390a25050505050565b611b6a848484610b8b565b611b7684848484612b44565b50505050565b6060611b87826126dc565b506000600660008481526020019081526020016000208054611ba89061418a565b80601f0160208091040260200160405190810160405280929190818152602001828054611bd49061418a565b8015611c215780601f10611bf657610100808354040283529160200191611c21565b820191906000526020600020905b815481529060010190602001808311611c0457829003601f168201915b505050505090506000611c32612cfb565b90506000815103611c47578192505050611c8a565b600082511115611c7c578082604051602001611c64929190614a13565b60405160208183030381529060405292505050611c8a565b611c8584612d12565b925050505b919050565b600073ffffffffffffffffffffffffffffffffffffffff16600b60003373ffffffffffffffffffffffffffffffffffffffff1673ffffffffffffffffffffffffffffffffffffffff16815260200190815260200160002060000160009054906101000a900473ffffffffffffffffffffffffffffffffffffffff1673ffffffffffffffffffffffffffffffffffffffff1603611d60576040517f08c379a0000000000000000000000000000000000000000000000000000000008152600401611d579061479b565b60405180910390fd5b611d68612d7b565b6000600c600083815260200190815260200160002060009054906101000a900473ffffffffffffffffffffffffffffffffffffffff169050600073ffffffffffffffffffffffffffffffffffffffff168173ffffffffffffffffffffffffffffffffffffffff1603611e0f576040517f08c379a0000000000000000000000000000000000000000000000000000000008152600401611e0690614873565b60405180910390fd5b6000600d60008481526020019081526020016000208054611e2f9061418a565b905011611e71576040517f08c379a0000000000000000000000000000000000000000000000000000000008152600401611e6890614a83565b60405180910390fd5b60006009600084815260200190815260200160002060050160019054906101000a900473ffffffffffffffffffffffffffffffffffffffff169050816009600085815260200190815260200160002060050160016101000a81548173ffffffffffffffffffffffffffffffffffffffff021916908373ffffffffffffffffffffffffffffffffffffffff16021790555060006009600085815260200190815260200160002060050160006101000a81548160ff021916908315150217905550611f3b818385612dc1565b8173ffffffffffffffffffffffffffffffffffffffff16837fbf3bf152fccc4b02a19630a2f2e7b79fc6afdd976ecd54f812df34394ffc063460405160405180910390a35050611f89612f2e565b50565b6009602052806000526040600020600091509050806000015490806001018054611fb59061418a565b80601f0160208091040260200160405190810160405280929190818152602001828054611fe19061418a565b801561202e5780601f106120035761010080835404028352916020019161202e565b820191906000526020600020905b81548152906001019060200180831161201157829003601f168201915b5050505050908060020154908060030180546120499061418a565b80601f01602080910402602001604051908101604052809291908181526020018280546120759061418a565b80156120c25780601f10612097576101008083540402835291602001916120c2565b820191906000526020600020905b8154815290600101906020018083116120a557829003601f168201915b5050505050908060040154908060050160009054906101000a900460ff16908060050160019054906101000a900473ffffffffffffffffffffffffffffffffffffffff16908060050160159054906101000a900460ff16905088565b6000600560008473ffffffffffffffffffffffffffffffffffffffff1673ffffffffffffffffffffffffffffffffffffffff16815260200190815260200160002060008373ffffffffffffffffffffffffffffffffffffffff1673ffffffffffffffffffffffffffffffffffffffff16815260200190815260200160002060009054906101000a900460ff16905092915050565b600073ffffffffffffffffffffffffffffffffffffffff16600b60003373ffffffffffffffffffffffffffffffffffffffff1673ffffffffffffffffffffffffffffffffffffffff16815260200190815260200160002060000160009054906101000a900473ffffffffffffffffffffffffffffffffffffffff1673ffffffffffffffffffffffffffffffffffffffff1603612283576040517f08c379a000000000000000000000000000000000000000000000000000000000815260040161227a9061479b565b60405180910390fd5b6000600e600083815260200190815260200160002080546122a39061418a565b9050116122e5576040517f08c379a00000000000000000000000000000000000000000000000000000000081526004016122dc90614b15565b60405180910390fd5b60016009600083815260200190815260200160002060050160156101000a81548160ff0219169083151502179055506123546009600083815260200190815260200160002060050160019054906101000a900473ffffffffffffffffffffffffffffffffffffffff1682612f38565b6123f981600e600084815260200190815260200160002080546123769061418a565b80601f01602080910402602001604051908101604052809291908181526020018280546123a29061418a565b80156123ef5780601f106123c4576101008083540402835291602001916123ef565b820191906000526020600020905b8154815290600101906020018083116123d257829003601f168201915b5050505050613031565b6009600082815260200190815260200160002060050160019054906101000a900473ffffffffffffffffffffffffffffffffffffffff1673ffffffffffffffffffffffffffffffffffffffff16817f3050fa311a336f82658dd7854b26e82468e16d90b3a06121d8483f3581e925d060405160405180910390a350565b813373ffffffffffffffffffffffffffffffffffffffff166009600083815260200190815260200160002060050160019054906101000a900473ffffffffffffffffffffffffffffffffffffffff1673ffffffffffffffffffffffffffffffffffffffff161461251b576040517f08c379a000000000000000000000000000000000000000000000000000000000815260040161251290614371565b60405180910390fd5b6009600084815260200190815260200160002060050160159054906101000a900460ff1661257e576040517f08c379a000000000000000000000000000000000000000000000000000000000815260040161257590614ba7565b60405180910390fd5b60016009600085815260200190815260200160002060050160006101000a81548160ff021916908315150217905550816009600085815260200190815260200160002060040181905550827fbd627619b9f2a20ce2c4498f2185c68bc4236be92480ede53e43f4da545ea9c560405160405180910390a2505050565b60007f80ac58cd000000000000000000000000000000000000000000000000000000007bffffffffffffffffffffffffffffffffffffffffffffffffffffffff1916827bffffffffffffffffffffffffffffffffffffffffffffffffffffffff191614806126c557507f5b5e139f000000000000000000000000000000000000000000000000000000007bffffffffffffffffffffffffffffffffffffffffffffffffffffffff1916827bffffffffffffffffffffffffffffffffffffffffffffffffffffffff1916145b806126d557506126d48261308d565b5b9050919050565b6000806126e8836130f7565b9050600073ffffffffffffffffffffffffffffffffffffffff168173ffffffffffffffffffffffffffffffffffffffff160361275b57826040517f7e2732890000000000000000000000000000000000000000000000000000000081526004016127529190613c0a565b60405180910390fd5b80915050919050565b60006004600083815260200190815260200160002060009054906101000a900473ffffffffffffffffffffffffffffffffffffffff169050919050565b600033905090565b6127b68383836001613134565b505050565b6000806127c7846130f7565b9050600073ffffffffffffffffffffffffffffffffffffffff168373ffffffffffffffffffffffffffffffffffffffff1614612809576128088184866132f9565b5b600073ffffffffffffffffffffffffffffffffffffffff168173ffffffffffffffffffffffffffffffffffffffff161461289a5761284b600085600080613134565b6001600360008373ffffffffffffffffffffffffffffffffffffffff1673ffffffffffffffffffffffffffffffffffffffff168152602001908152602001600020600082825403925050819055505b600073ffffffffffffffffffffffffffffffffffffffff168573ffffffffffffffffffffffffffffffffffffffff161461291d576001600360008773ffffffffffffffffffffffffffffffffffffffff1673ffffffffffffffffffffffffffffffffffffffff168152602001908152602001600020600082825401925050819055505b846002600086815260200190815260200160002060006101000a81548173ffffffffffffffffffffffffffffffffffffffff021916908373ffffffffffffffffffffffffffffffffffffffff160217905550838573ffffffffffffffffffffffffffffffffffffffff168273ffffffffffffffffffffffffffffffffffffffff167fddf252ad1be2c89b69c2b068fc378daa952ba7f163c4a11628f55a4df523b3ef60405160405180910390a4809150509392505050565b600073ffffffffffffffffffffffffffffffffffffffff168273ffffffffffffffffffffffffffffffffffffffff1603612a4657816040517f5b08ba18000000000000000000000000000000000000000000000000000000008152600401612a3d91906138c4565b60405180910390fd5b80600560008573ffffffffffffffffffffffffffffffffffffffff1673ffffffffffffffffffffffffffffffffffffffff16815260200190815260200160002060008473ffffffffffffffffffffffffffffffffffffffff1673ffffffffffffffffffffffffffffffffffffffff16815260200190815260200160002060006101000a81548160ff0219169083151502179055508173ffffffffffffffffffffffffffffffffffffffff168373ffffffffffffffffffffffffffffffffffffffff167f17307eab39ab6107e8899845ad3d59bd9653f200f220920489ca2b5937696c3183604051612b379190613753565b60405180910390a3505050565b60008373ffffffffffffffffffffffffffffffffffffffff163b1115612cf5578273ffffffffffffffffffffffffffffffffffffffff1663150b7a02612b886127a1565b8685856040518563ffffffff1660e01b8152600401612baa9493929190614c1c565b6020604051808303816000875af1925050508015612be657506040513d601f19601f82011682018060405250810190612be39190614c7d565b60015b612c6a573d8060008114612c16576040519150601f19603f3d011682016040523d82523d6000602084013e612c1b565b606091505b506000815103612c6257836040517f64a0ae92000000000000000000000000000000000000000000000000000000008152600401612c5991906138c4565b60405180910390fd5b805181602001fd5b63150b7a0260e01b7bffffffffffffffffffffffffffffffffffffffffffffffffffffffff1916817bffffffffffffffffffffffffffffffffffffffffffffffffffffffff191614612cf357836040517f64a0ae92000000000000000000000000000000000000000000000000000000008152600401612cea91906138c4565b60405180910390fd5b505b50505050565b606060405180602001604052806000815250905090565b6060612d1d826126dc565b506000612d28612cfb565b90506000815111612d485760405180602001604052806000815250612d73565b80612d52846133bd565b604051602001612d63929190614a13565b6040516020818303038152906040525b915050919050565b600260075403612db7576040517f3ee5aeb500000000000000000000000000000000000000000000000000000000815260040160405180910390fd5b6002600781905550565b600073ffffffffffffffffffffffffffffffffffffffff168273ffffffffffffffffffffffffffffffffffffffff1603612e335760006040517f64a0ae92000000000000000000000000000000000000000000000000000000008152600401612e2a91906138c4565b60405180910390fd5b6000612e41838360006127bb565b9050600073ffffffffffffffffffffffffffffffffffffffff168173ffffffffffffffffffffffffffffffffffffffff1603612eb457816040517f7e273289000000000000000000000000000000000000000000000000000000008152600401612eab9190613c0a565b60405180910390fd5b8373ffffffffffffffffffffffffffffffffffffffff168173ffffffffffffffffffffffffffffffffffffffff1614612f28578382826040517f64283d7b000000000000000000000000000000000000000000000000000000008152600401612f1f939291906146f2565b60405180910390fd5b50505050565b6001600781905550565b600073ffffffffffffffffffffffffffffffffffffffff168273ffffffffffffffffffffffffffffffffffffffff1603612faa5760006040517f64a0ae92000000000000000000000000000000000000000000000000000000008152600401612fa191906138c4565b60405180910390fd5b6000612fb8838360006127bb565b9050600073ffffffffffffffffffffffffffffffffffffffff168173ffffffffffffffffffffffffffffffffffffffff161461302c5760006040517f73c6ac6e00000000000000000000000000000000000000000000000000000000815260040161302391906138c4565b60405180910390fd5b505050565b8060066000848152602001908152602001600020908161305191906145a9565b507ff8e1a15aba9398e019f0b49df1a4fde98ee17ae345cb5f6b5e2c27f5033e8ce7826040516130819190613c0a565b60405180910390a15050565b60007f01ffc9a7000000000000000000000000000000000000000000000000000000007bffffffffffffffffffffffffffffffffffffffffffffffffffffffff1916827bffffffffffffffffffffffffffffffffffffffffffffffffffffffff1916149050919050565b60006002600083815260200190815260200160002060009054906101000a900473ffffffffffffffffffffffffffffffffffffffff169050919050565b808061316d5750600073ffffffffffffffffffffffffffffffffffffffff168273ffffffffffffffffffffffffffffffffffffffff1614155b156132a157600061317d846126dc565b9050600073ffffffffffffffffffffffffffffffffffffffff168373ffffffffffffffffffffffffffffffffffffffff16141580156131e857508273ffffffffffffffffffffffffffffffffffffffff168173ffffffffffffffffffffffffffffffffffffffff1614155b80156131fb57506131f9818461211e565b155b1561323d57826040517fa9fbf51f00000000000000000000000000000000000000000000000000000000815260040161323491906138c4565b60405180910390fd5b811561329f57838573ffffffffffffffffffffffffffffffffffffffff168273ffffffffffffffffffffffffffffffffffffffff167f8c5be1e5ebec7d5bd14f71427d1e84f3dd0314c0f7b2291e5b200ac8c7c3b92560405160405180910390a45b505b836004600085815260200190815260200160002060006101000a81548173ffffffffffffffffffffffffffffffffffffffff021916908373ffffffffffffffffffffffffffffffffffffffff16021790555050505050565b61330483838361348b565b6133b857600073ffffffffffffffffffffffffffffffffffffffff168373ffffffffffffffffffffffffffffffffffffffff160361337957806040517f7e2732890000000000000000000000000000000000000000000000000000000081526004016133709190613c0a565b60405180910390fd5b81816040517f177e802f0000000000000000000000000000000000000000000000000000000081526004016133af929190614caa565b60405180910390fd5b505050565b6060600060016133cc8461354c565b01905060008167ffffffffffffffff8111156133eb576133ea613955565b5b6040519080825280601f01601f19166020018201604052801561341d5781602001600182028036833780820191505090505b509050600082602001820190505b600115613480578080600190039150507f3031323334353637383961626364656600000000000000000000000000000000600a86061a8153600a858161347457613473614cd3565b5b0494506000850361342b575b819350505050919050565b60008073ffffffffffffffffffffffffffffffffffffffff168373ffffffffffffffffffffffffffffffffffffffff161415801561354357508273ffffffffffffffffffffffffffffffffffffffff168473ffffffffffffffffffffffffffffffffffffffff1614806135045750613503848461211e565b5b8061354257508273ffffffffffffffffffffffffffffffffffffffff1661352a83612764565b73ffffffffffffffffffffffffffffffffffffffff16145b5b90509392505050565b600080600090507a184f03e93ff9f4daa797ed6e38ed64bf6a1f01000000000000000083106135aa577a184f03e93ff9f4daa797ed6e38ed64bf6a1f01000000000000000083816135a05761359f614cd3565b5b0492506040810190505b6d04ee2d6d415b85acef810000000083106135e7576d04ee2d6d415b85acef810000000083816135dd576135dc614cd3565b5b0492506020810190505b662386f26fc10000831061361657662386f26fc10000838161360c5761360b614cd3565b5b0492506010810190505b6305f5e100831061363f576305f5e100838161363557613634614cd3565b5b0492506008810190505b612710831061366457612710838161365a57613659614cd3565b5b0492506004810190505b60648310613687576064838161367d5761367c614cd3565b5b0492506002810190505b600a8310613696576001810190505b80915050919050565b6000604051905090565b600080fd5b600080fd5b60007fffffffff0000000000000000000000000000000000000000000000000000000082169050919050565b6136e8816136b3565b81146136f357600080fd5b50565b600081359050613705816136df565b92915050565b600060208284031215613721576137206136a9565b5b600061372f848285016136f6565b91505092915050565b60008115159050919050565b61374d81613738565b82525050565b60006020820190506137686000830184613744565b92915050565b600081519050919050565b600082825260208201905092915050565b60005b838110156137a857808201518184015260208101905061378d565b60008484015250505050565b6000601f19601f8301169050919050565b60006137d08261376e565b6137da8185613779565b93506137ea81856020860161378a565b6137f3816137b4565b840191505092915050565b6000602082019050818103600083015261381881846137c5565b905092915050565b6000819050919050565b61383381613820565b811461383e57600080fd5b50565b6000813590506138508161382a565b92915050565b60006020828403121561386c5761386b6136a9565b5b600061387a84828501613841565b91505092915050565b600073ffffffffffffffffffffffffffffffffffffffff82169050919050565b60006138ae82613883565b9050919050565b6138be816138a3565b82525050565b60006020820190506138d960008301846138b5565b92915050565b6138e8816138a3565b81146138f357600080fd5b50565b600081359050613905816138df565b92915050565b60008060408385031215613922576139216136a9565b5b6000613930858286016138f6565b925050602061394185828601613841565b9150509250929050565b600080fd5b600080fd5b7f4e487b7100000000000000000000000000000000000000000000000000000000600052604160045260246000fd5b61398d826137b4565b810181811067ffffffffffffffff821117156139ac576139ab613955565b5b80604052505050565b60006139bf61369f565b90506139cb8282613984565b919050565b600067ffffffffffffffff8211156139eb576139ea613955565b5b6139f4826137b4565b9050602081019050919050565b82818337600083830152505050565b6000613a23613a1e846139d0565b6139b5565b905082815260208101848484011115613a3f57613a3e613950565b5b613a4a848285613a01565b509392505050565b600082601f830112613a6757613a6661394b565b5b8135613a77848260208601613a10565b91505092915050565b60008060408385031215613a9757613a966136a9565b5b6000613aa585828601613841565b925050602083013567ffffffffffffffff811115613ac657613ac56136ae565b5b613ad285828601613a52565b9150509250929050565b60008060008060808587031215613af657613af56136a9565b5b600085013567ffffffffffffffff811115613b1457613b136136ae565b5b613b2087828801613a52565b9450506020613b3187828801613841565b935050604085013567ffffffffffffffff811115613b5257613b516136ae565b5b613b5e87828801613a52565b9250506060613b6f87828801613841565b91505092959194509250565b600080600060608486031215613b9457613b936136a9565b5b6000613ba2868287016138f6565b9350506020613bb3868287016138f6565b9250506040613bc486828701613841565b9150509250925092565b600060208284031215613be457613be36136a9565b5b6000613bf2848285016138f6565b91505092915050565b613c0481613820565b82525050565b6000602082019050613c1f6000830184613bfb565b92915050565b600080600060608486031215613c3e57613c3d6136a9565b5b600084013567ffffffffffffffff811115613c5c57613c5b6136ae565b5b613c6886828701613a52565b935050602084013567ffffffffffffffff811115613c8957613c886136ae565b5b613c9586828701613a52565b925050604084013567ffffffffffffffff811115613cb657613cb56136ae565b5b613cc286828701613a52565b9150509250925092565b6000608082019050613ce160008301876138b5565b8181036020830152613cf381866137c5565b90508181036040830152613d0781856137c5565b90508181036060830152613d1b81846137c5565b905095945050505050565b613d2f81613738565b8114613d3a57600080fd5b50565b600081359050613d4c81613d26565b92915050565b60008060408385031215613d6957613d686136a9565b5b6000613d77858286016138f6565b9250506020613d8885828601613d3d565b9150509250929050565b600060e082019050613da7600083018a6138b5565b8181036020830152613db981896137c5565b90508181036040830152613dcd81886137c5565b90508181036060830152613de181876137c5565b90508181036080830152613df581866137c5565b905081810360a0830152613e0981856137c5565b9050613e1860c0830184613744565b98975050505050505050565b600080600080600060a08688031215613e4057613e3f6136a9565b5b600086013567ffffffffffffffff811115613e5e57613e5d6136ae565b5b613e6a88828901613a52565b955050602086013567ffffffffffffffff811115613e8b57613e8a6136ae565b5b613e9788828901613a52565b945050604086013567ffffffffffffffff811115613eb857613eb76136ae565b5b613ec488828901613a52565b935050606086013567ffffffffffffffff811115613ee557613ee46136ae565b5b613ef188828901613a52565b925050608086013567ffffffffffffffff811115613f1257613f116136ae565b5b613f1e88828901613a52565b9150509295509295909350565b600067ffffffffffffffff821115613f4657613f45613955565b5b613f4f826137b4565b9050602081019050919050565b6000613f6f613f6a84613f2b565b6139b5565b905082815260208101848484011115613f8b57613f8a613950565b5b613f96848285613a01565b509392505050565b600082601f830112613fb357613fb261394b565b5b8135613fc3848260208601613f5c565b91505092915050565b60008060008060808587031215613fe657613fe56136a9565b5b6000613ff4878288016138f6565b9450506020614005878288016138f6565b935050604061401687828801613841565b925050606085013567ffffffffffffffff811115614037576140366136ae565b5b61404387828801613f9e565b91505092959194509250565b600061010082019050614065600083018b613bfb565b8181036020830152614077818a6137c5565b90506140866040830189613bfb565b818103606083015261409881886137c5565b90506140a76080830187613bfb565b6140b460a0830186613744565b6140c160c08301856138b5565b6140ce60e0830184613744565b9998505050505050505050565b600080604083850312156140f2576140f16136a9565b5b6000614100858286016138f6565b9250506020614111858286016138f6565b9150509250929050565b60008060408385031215614132576141316136a9565b5b600061414085828601613841565b925050602061415185828601613841565b9150509250929050565b7f4e487b7100000000000000000000000000000000000000000000000000000000600052602260045260246000fd5b600060028204905060018216806141a257607f821691505b6020821081036141b5576141b461415b565b5b50919050565b7f55736572206e6f74207665726966696564000000000000000000000000000000600082015250565b60006141f1601183613779565b91506141fc826141bb565b602082019050919050565b60006020820190508181036000830152614220816141e4565b9050919050565b7f4c616e64206e6f7420666f722073616c65000000000000000000000000000000600082015250565b600061425d601183613779565b915061426882614227565b602082019050919050565b6000602082019050818103600083015261428c81614250565b9050919050565b7f4c616e64206e6f74207665726966696564000000000000000000000000000000600082015250565b60006142c9601183613779565b91506142d482614293565b602082019050919050565b600060208201905081810360008301526142f8816142bc565b9050919050565b7f4f6e6c7920746865206c616e64206f776e65722063616e20706572666f726d2060008201527f7468697320616374696f6e000000000000000000000000000000000000000000602082015250565b600061435b602b83613779565b9150614366826142ff565b604082019050919050565b6000602082019050818103600083015261438a8161434e565b9050919050565b7f546f6b656e205552492063616e6e6f7420626520656d70747900000000000000600082015250565b60006143c7601983613779565b91506143d282614391565b602082019050919050565b600060208201905081810360008301526143f6816143ba565b9050919050565b60008190508160005260206000209050919050565b60006020601f8301049050919050565b600082821b905092915050565b60006008830261445f7fffffffffffffffffffffffffffffffffffffffffffffffffffffffffffffffff82614422565b6144698683614422565b95508019841693508086168417925050509392505050565b6000819050919050565b60006144a66144a161449c84613820565b614481565b613820565b9050919050565b6000819050919050565b6144c08361448b565b6144d46144cc826144ad565b84845461442f565b825550505050565b600090565b6144e96144dc565b6144f48184846144b7565b505050565b5b818110156145185761450d6000826144e1565b6001810190506144fa565b5050565b601f82111561455d5761452e816143fd565b61453784614412565b81016020851015614546578190505b61455a61455285614412565b8301826144f9565b50505b505050565b600082821c905092915050565b600061458060001984600802614562565b1980831691505092915050565b6000614599838361456f565b9150826002028217905092915050565b6145b28261376e565b67ffffffffffffffff8111156145cb576145ca613955565b5b6145d5825461418a565b6145e082828561451c565b600060209050601f8311600181146146135760008415614601578287015190505b61460b858261458d565b865550614673565b601f198416614621866143fd565b60005b8281101561464957848901518255600182019150602085019450602081019050614624565b868310156146665784890151614662601f89168261456f565b8355505b6001600288020188555050505b505050505050565b7f4e487b7100000000000000000000000000000000000000000000000000000000600052601160045260246000fd5b60006146b582613820565b91507fffffffffffffffffffffffffffffffffffffffffffffffffffffffffffffffff82036146e7576146e661467b565b5b600182019050919050565b600060608201905061470760008301866138b5565b6147146020830185613bfb565b61472160408301846138b5565b949350505050565b7f4f6e6c7920676f7665726e6d656e7420617574686f726974792063616e20706560008201527f72666f726d207468697320616374696f6e000000000000000000000000000000602082015250565b6000614785603183613779565b915061479082614729565b604082019050919050565b600060208201905081810360008301526147b481614778565b9050919050565b7f417574686f7269747920616c7265616479207265676973746572656400000000600082015250565b60006147f1601c83613779565b91506147fc826147bb565b602082019050919050565b60006020820190508181036000830152614820816147e4565b9050919050565b7f4e6f20627579657220666f722074686973206c616e6400000000000000000000600082015250565b600061485d601683613779565b915061486882614827565b602082019050919050565b6000602082019050818103600083015261488c81614850565b9050919050565b7f5573657220616c72656164792072656769737465726564000000000000000000600082015250565b60006148c9601783613779565b91506148d482614893565b602082019050919050565b600060208201905081810360008301526148f8816148bc565b9050919050565b7f50686f6e65206e756d626572206d757374206265203130206469676974730000600082015250565b6000614935601e83613779565b9150614940826148ff565b602082019050919050565b6000602082019050818103600083015261496481614928565b9050919050565b7f416164686172206e756d626572206d7573742062652031322064696769747300600082015250565b60006149a1601f83613779565b91506149ac8261496b565b602082019050919050565b600060208201905081810360008301526149d081614994565b9050919050565b600081905092915050565b60006149ed8261376e565b6149f781856149d7565b9350614a0781856020860161378a565b80840191505092915050565b6000614a1f82856149e2565b9150614a2b82846149e2565b91508190509392505050565b7f4e6f207472616e73616374696f6e2070726f6f662070726f7669646564000000600082015250565b6000614a6d601d83613779565b9150614a7882614a37565b602082019050919050565b60006020820190508181036000830152614a9c81614a60565b9050919050565b7f546f6b656e20555249206d75737420626520736574206265666f72652076657260008201527f696669636174696f6e0000000000000000000000000000000000000000000000602082015250565b6000614aff602983613779565b9150614b0a82614aa3565b604082019050919050565b60006020820190508181036000830152614b2e81614af2565b9050919050565b7f4c616e64206d75737420626520766572696669656420627920676f7665726e6d60008201527f656e740000000000000000000000000000000000000000000000000000000000602082015250565b6000614b91602383613779565b9150614b9c82614b35565b604082019050919050565b60006020820190508181036000830152614bc081614b84565b9050919050565b600081519050919050565b600082825260208201905092915050565b6000614bee82614bc7565b614bf88185614bd2565b9350614c0881856020860161378a565b614c11816137b4565b840191505092915050565b6000608082019050614c3160008301876138b5565b614c3e60208301866138b5565b614c4b6040830185613bfb565b8181036060830152614c5d8184614be3565b905095945050505050565b600081519050614c77816136df565b92915050565b600060208284031215614c9357614c926136a9565b5b6000614ca184828501614c68565b91505092915050565b6000604082019050614cbf60008301856138b5565b614ccc6020830184613bfb565b9392505050565b7f4e487b7100000000000000000000000000000000000000000000000000000000600052601260045260246000fdfea264697066735822122057b4ba3e8188ff5444f1c720bb5b0161c8baa96a7ea01092b45cf80012a4a0a664736f6c63430008140033",
  "linkReferences": {},
  "deployedLinkReferences": {}
}