{
  "_format": "hh-sol-artifact-1",
  "contractName": "LandNFT",
  "sourceName": "contracts/LandNFT.sol",
  "abi": [
    {
      "inputs": [],
      "stateMutability": "nonpayable",
      "type": "constructor"
    },
    {
      "inputs": [
        {
          "internalType": "address",
          "name": "sender",
          "type": "address"
        },
        {
          "internalType": "uint256",
          "name": "tokenId",
          "type": "uint256"
        },
        {
          "internalType": "address",
          "name": "owner",
          "type": "address"
        }
      ],
      "name": "ERC721IncorrectOwner",
      "type": "error"
    },
    {
      "inputs": [
        {
          "internalType": "address",
          "name": "operator",
          "type": "address"
        },
        {
          "internalType": "uint256",
          "name": "tokenId",
          "type": "uint256"
        }
      ],
      "name": "ERC721InsufficientApproval",
      "type": "error"
    },
    {
      "inputs": [
        {
          "internalType": "address",
          "name": "approver",
          "type": "address"
        }
      ],
      "name": "ERC721InvalidApprover",
      "type": "error"
    },
    {
      "inputs": [
        {
          "internalType": "address",
          "name": "operator",
          "type": "address"
        }
      ],
      "name": "ERC721InvalidOperator",
      "type": "error"
    },
    {
      "inputs": [
        {
          "internalType": "address",
          "name": "owner",
          "type": "address"
        }
      ],
      "name": "ERC721InvalidOwner",
      "type": "error"
    },
    {
      "inputs": [
        {
          "internalType": "address",
          "name": "receiver",
          "type": "address"
        }
      ],
      "name": "ERC721InvalidReceiver",
      "type": "error"
    },
    {
      "inputs": [
        {
          "internalType": "address",
          "name": "sender",
          "type": "address"
        }
      ],
      "name": "ERC721InvalidSender",
      "type": "error"
    },
    {
      "inputs": [
        {
          "internalType": "uint256",
          "name": "tokenId",
          "type": "uint256"
        }
      ],
      "name": "ERC721NonexistentToken",
      "type": "error"
    },
    {
      "inputs": [
        {
          "internalType": "address",
          "name": "owner",
          "type": "address"
        }
      ],
      "name": "OwnableInvalidOwner",
      "type": "error"
    },
    {
      "inputs": [
        {
          "internalType": "address",
          "name": "account",
          "type": "address"
        }
      ],
      "name": "OwnableUnauthorizedAccount",
      "type": "error"
    },
    {
      "anonymous": false,
      "inputs": [
        {
          "indexed": true,
          "internalType": "address",
          "name": "owner",
          "type": "address"
        },
        {
          "indexed": true,
          "internalType": "address",
          "name": "approved",
          "type": "address"
        },
        {
          "indexed": true,
          "internalType": "uint256",
          "name": "tokenId",
          "type": "uint256"
        }
      ],
      "name": "Approval",
      "type": "event"
    },
    {
      "anonymous": false,
      "inputs": [
        {
          "indexed": true,
          "internalType": "address",
          "name": "owner",
          "type": "address"
        },
        {
          "indexed": true,
          "internalType": "address",
          "name": "operator",
          "type": "address"
        },
        {
          "indexed": false,
          "internalType": "bool",
          "name": "approved",
          "type": "bool"
        }
      ],
      "name": "ApprovalForAll",
      "type": "event"
    },
    {
      "anonymous": false,
      "inputs": [
        {
          "indexed": false,
          "internalType": "uint256",
          "name": "_fromTokenId",
          "type": "uint256"
        },
        {
          "indexed": false,
          "internalType": "uint256",
          "name": "_toTokenId",
          "type": "uint256"
        }
      ],
      "name": "BatchMetadataUpdate",
      "type": "event"
    },
    {
      "anonymous": false,
      "inputs": [
        {
          "indexed": true,
          "internalType": "uint256",
          "name": "landId",
          "type": "uint256"
        },
        {
          "indexed": true,
          "internalType": "address",
          "name": "owner",
          "type": "address"
        }
      ],
      "name": "LandNFTMinted",
      "type": "event"
    },
    {
      "anonymous": false,
      "inputs": [
        {
          "indexed": true,
          "internalType": "address",
          "name": "from",
          "type": "address"
        },
        {
          "indexed": true,
          "internalType": "address",
          "name": "to",
          "type": "address"
        },
        {
          "indexed": true,
          "internalType": "uint256",
          "name": "tokenId",
          "type": "uint256"
        }
      ],
      "name": "LandNFTtransferred",
      "type": "event"
    },
    {
      "anonymous": false,
      "inputs": [
        {
          "indexed": false,
          "internalType": "uint256",
          "name": "_tokenId",
          "type": "uint256"
        }
      ],
      "name": "MetadataUpdate",
      "type": "event"
    },
    {
      "anonymous": false,
      "inputs": [
        {
          "indexed": true,
          "internalType": "address",
          "name": "previousOwner",
          "type": "address"
        },
        {
          "indexed": true,
          "internalType": "address",
          "name": "newOwner",
          "type": "address"
        }
      ],
      "name": "OwnershipTransferred",
      "type": "event"
    },
    {
      "anonymous": false,
      "inputs": [
        {
          "indexed": true,
          "internalType": "address",
          "name": "from",
          "type": "address"
        },
        {
          "indexed": true,
          "internalType": "address",
          "name": "to",
          "type": "address"
        },
        {
          "indexed": true,
          "internalType": "uint256",
          "name": "tokenId",
          "type": "uint256"
        }
      ],
      "name": "Transfer",
      "type": "event"
    },
    {
      "inputs": [
        {
          "internalType": "address",
          "name": "to",
          "type": "address"
        },
        {
          "internalType": "uint256",
          "name": "tokenId",
          "type": "uint256"
        }
      ],
      "name": "approve",
      "outputs": [],
      "stateMutability": "nonpayable",
      "type": "function"
    },
    {
      "inputs": [
        {
          "internalType": "address",
          "name": "owner",
          "type": "address"
        }
      ],
      "name": "balanceOf",
      "outputs": [
        {
          "internalType": "uint256",
          "name": "",
          "type": "uint256"
        }
      ],
      "stateMutability": "view",
      "type": "function"
    },
    {
      "inputs": [
        {
          "internalType": "uint256",
          "name": "tokenId",
          "type": "uint256"
        }
      ],
      "name": "getApproved",
      "outputs": [
        {
          "internalType": "address",
          "name": "",
          "type": "address"
        }
      ],
      "stateMutability": "view",
      "type": "function"
    },
    {
      "inputs": [
        {
          "internalType": "address",
          "name": "owner",
          "type": "address"
        },
        {
          "internalType": "address",
          "name": "operator",
          "type": "address"
        }
      ],
      "name": "isApprovedForAll",
      "outputs": [
        {
          "internalType": "bool",
          "name": "",
          "type": "bool"
        }
      ],
      "stateMutability": "view",
      "type": "function"
    },
    {
      "inputs": [
        {
          "internalType": "address",
          "name": "to",
          "type": "address"
        },
        {
          "internalType": "uint256",
          "name": "landId",
          "type": "uint256"
        },
        {
          "internalType": "string",
          "name": "tokenURI",
          "type": "string"
        }
      ],
      "name": "mintNFT",
      "outputs": [],
      "stateMutability": "nonpayable",
      "type": "function"
    },
    {
      "inputs": [],
      "name": "name",
      "outputs": [
        {
          "internalType": "string",
          "name": "",
          "type": "string"
        }
      ],
      "stateMutability": "view",
      "type": "function"
    },
    {
      "inputs": [],
      "name": "owner",
      "outputs": [
        {
          "internalType": "address",
          "name": "",
          "type": "address"
        }
      ],
      "stateMutability": "view",
      "type": "function"
    },
    {
      "inputs": [
        {
          "internalType": "uint256",
          "name": "tokenId",
          "type": "uint256"
        }
      ],
      "name": "ownerOf",
      "outputs": [
        {
          "internalType": "address",
          "name": "",
          "type": "address"
        }
      ],
      "stateMutability": "view",
      "type": "function"
    },
    {
      "inputs": [],
      "name": "renounceOwnership",
      "outputs": [],
      "stateMutability": "nonpayable",
      "type": "function"
    },
    {
      "inputs": [
        {
          "internalType": "address",
          "name": "from",
          "type": "address"
        },
        {
          "internalType": "address",
          "name": "to",
          "type": "address"
        },
        {
          "internalType": "uint256",
          "name": "tokenId",
          "type": "uint256"
        }
      ],
      "name": "safeTransferFrom",
      "outputs": [],
      "stateMutability": "nonpayable",
      "type": "function"
    },
    {
      "inputs": [
        {
          "internalType": "address",
          "name": "from",
          "type": "address"
        },
        {
          "internalType": "address",
          "name": "to",
          "type": "address"
        },
        {
          "internalType": "uint256",
          "name": "tokenId",
          "type": "uint256"
        },
        {
          "internalType": "bytes",
          "name": "data",
          "type": "bytes"
        }
      ],
      "name": "safeTransferFrom",
      "outputs": [],
      "stateMutability": "nonpayable",
      "type": "function"
    },
    {
      "inputs": [
        {
          "internalType": "address",
          "name": "operator",
          "type": "address"
        },
        {
          "internalType": "bool",
          "name": "approved",
          "type": "bool"
        }
      ],
      "name": "setApprovalForAll",
      "outputs": [],
      "stateMutability": "nonpayable",
      "type": "function"
    },
    {
      "inputs": [
        {
          "internalType": "bytes4",
          "name": "interfaceId",
          "type": "bytes4"
        }
      ],
      "name": "supportsInterface",
      "outputs": [
        {
          "internalType": "bool",
          "name": "",
          "type": "bool"
        }
      ],
      "stateMutability": "view",
      "type": "function"
    },
    {
      "inputs": [],
      "name": "symbol",
      "outputs": [
        {
          "internalType": "string",
          "name": "",
          "type": "string"
        }
      ],
      "stateMutability": "view",
      "type": "function"
    },
    {
      "inputs": [
        {
          "internalType": "uint256",
          "name": "tokenId",
          "type": "uint256"
        }
      ],
      "name": "tokenURI",
      "outputs": [
        {
          "internalType": "string",
          "name": "",
          "type": "string"
        }
      ],
      "stateMutability": "view",
      "type": "function"
    },
    {
      "inputs": [
        {
          "internalType": "address",
          "name": "from",
          "type": "address"
        },
        {
          "internalType": "address",
          "name": "to",
          "type": "address"
        },
        {
          "internalType": "uint256",
          "name": "tokenId",
          "type": "uint256"
        }
      ],
      "name": "transferFrom",
      "outputs": [],
      "stateMutability": "nonpayable",
      "type": "function"
    },
    {
      "inputs": [
        {
          "internalType": "address",
          "name": "from",
          "type": "address"
        },
        {
          "internalType": "address",
          "name": "to",
          "type": "address"
        },
        {
          "internalType": "uint256",
          "name": "tokenId",
          "type": "uint256"
        }
      ],
      "name": "transferNFT",
      "outputs": [],
      "stateMutability": "nonpayable",
      "type": "function"
    },
    {
      "inputs": [
        {
          "internalType": "address",
          "name": "newOwner",
          "type": "address"
        }
      ],
      "name": "transferOwnership",
      "outputs": [],
      "stateMutability": "nonpayable",
      "type": "function"
    }
  ],
  "bytecode": "0x60806040523480156200001157600080fd5b50336040518060400160405280600981526020017f4c616e64546f6b656e00000000000000000000000000000000000000000000008152506040518060400160405280600481526020017f4c544b4e00000000000000000000000000000000000000000000000000000000815250816000908162000090919062000472565b508060019081620000a2919062000472565b505050600073ffffffffffffffffffffffffffffffffffffffff168173ffffffffffffffffffffffffffffffffffffffff16036200011a5760006040517f1e4fbdf70000000000000000000000000000000000000000000000000000000081526004016200011191906200059e565b60405180910390fd5b6200012b816200013260201b60201c565b50620005bb565b6000600760009054906101000a900473ffffffffffffffffffffffffffffffffffffffff16905081600760006101000a81548173ffffffffffffffffffffffffffffffffffffffff021916908373ffffffffffffffffffffffffffffffffffffffff1602179055508173ffffffffffffffffffffffffffffffffffffffff168173ffffffffffffffffffffffffffffffffffffffff167f8be0079c531659141344cd1fd0a4f28419497f9722a3daafe3b4186f6b6457e060405160405180910390a35050565b600081519050919050565b7f4e487b7100000000000000000000000000000000000000000000000000000000600052604160045260246000fd5b7f4e487b7100000000000000000000000000000000000000000000000000000000600052602260045260246000fd5b600060028204905060018216806200027a57607f821691505b60208210810362000290576200028f62000232565b5b50919050565b60008190508160005260206000209050919050565b60006020601f8301049050919050565b600082821b905092915050565b600060088302620002fa7fffffffffffffffffffffffffffffffffffffffffffffffffffffffffffffffff82620002bb565b620003068683620002bb565b95508019841693508086168417925050509392505050565b6000819050919050565b6000819050919050565b6000620003536200034d62000347846200031e565b62000328565b6200031e565b9050919050565b6000819050919050565b6200036f8362000332565b620003876200037e826200035a565b848454620002c8565b825550505050565b600090565b6200039e6200038f565b620003ab81848462000364565b505050565b5b81811015620003d357620003c760008262000394565b600181019050620003b1565b5050565b601f8211156200042257620003ec8162000296565b620003f784620002ab565b8101602085101562000407578190505b6200041f6200041685620002ab565b830182620003b0565b50505b505050565b600082821c905092915050565b6000620004476000198460080262000427565b1980831691505092915050565b600062000462838362000434565b9150826002028217905092915050565b6200047d82620001f8565b67ffffffffffffffff81111562000499576200049862000203565b5b620004a5825462000261565b620004b2828285620003d7565b600060209050601f831160018114620004ea5760008415620004d5578287015190505b620004e1858262000454565b86555062000551565b601f198416620004fa8662000296565b60005b828110156200052457848901518255600182019150602085019450602081019050620004fd565b8683101562000544578489015162000540601f89168262000434565b8355505b6001600288020188555050505b505050505050565b600073ffffffffffffffffffffffffffffffffffffffff82169050919050565b6000620005868262000559565b9050919050565b620005988162000579565b82525050565b6000602082019050620005b560008301846200058d565b92915050565b6128c280620005cb6000396000f3fe608060405234801561001057600080fd5b50600436106101165760003560e01c806370a08231116100a2578063a22cb46511610071578063a22cb465146102cb578063b88d4fde146102e7578063c87b56dd14610303578063e985e9c514610333578063f2fde38b1461036357610116565b806370a0823114610255578063715018a6146102855780638da5cb5b1461028f57806395d89b41146102ad57610116565b80631e576912116100e95780631e576912146101b557806323b872dd146101d157806342842e0e146101ed5780636352211e1461020957806369e9cae11461023957610116565b806301ffc9a71461011b57806306fdde031461014b578063081812fc14610169578063095ea7b314610199575b600080fd5b61013560048036038101906101309190611cec565b61037f565b6040516101429190611d34565b60405180910390f35b6101536103e0565b6040516101609190611ddf565b60405180910390f35b610183600480360381019061017e9190611e37565b610472565b6040516101909190611ea5565b60405180910390f35b6101b360048036038101906101ae9190611eec565b61048e565b005b6101cf60048036038101906101ca9190612061565b6104a4565b005b6101eb60048036038101906101e691906120d0565b61054d565b005b610207600480360381019061020291906120d0565b61064f565b005b610223600480360381019061021e9190611e37565b61066f565b6040516102309190611ea5565b60405180910390f35b610253600480360381019061024e91906120d0565b610681565b005b61026f600480360381019061026a9190612123565b6106f4565b60405161027c919061215f565b60405180910390f35b61028d6107ae565b005b6102976107c2565b6040516102a49190611ea5565b60405180910390f35b6102b56107ec565b6040516102c29190611ddf565b60405180910390f35b6102e560048036038101906102e091906121a6565b61087e565b005b61030160048036038101906102fc9190612287565b610894565b005b61031d60048036038101906103189190611e37565b6108b1565b60405161032a9190611ddf565b60405180910390f35b61034d6004803603810190610348919061230a565b6109c4565b60405161035a9190611d34565b60405180910390f35b61037d60048036038101906103789190612123565b610a58565b005b6000634906490660e01b7bffffffffffffffffffffffffffffffffffffffffffffffffffffffff1916827bffffffffffffffffffffffffffffffffffffffffffffffffffffffff191614806103d957506103d882610ade565b5b9050919050565b6060600080546103ef90612379565b80601f016020809104026020016040519081016040528092919081815260200182805461041b90612379565b80156104685780601f1061043d57610100808354040283529160200191610468565b820191906000526020600020905b81548152906001019060200180831161044b57829003601f168201915b5050505050905090565b600061047d82610bc0565b5061048782610c48565b9050919050565b6104a0828261049b610c85565b610c8d565b5050565b6104ac610c9f565b60008151116104f0576040517f08c379a00000000000000000000000000000000000000000000000000000000081526004016104e79061241c565b60405180910390fd5b6104fa8383610d26565b6105048282610e1f565b8273ffffffffffffffffffffffffffffffffffffffff16827f3050fa311a336f82658dd7854b26e82468e16d90b3a06121d8483f3581e925d060405160405180910390a3505050565b600073ffffffffffffffffffffffffffffffffffffffff168273ffffffffffffffffffffffffffffffffffffffff16036105bf5760006040517f64a0ae920000000000000000000000000000000000000000000000000000000081526004016105b69190611ea5565b60405180910390fd5b60006105d383836105ce610c85565b610e7b565b90508373ffffffffffffffffffffffffffffffffffffffff168173ffffffffffffffffffffffffffffffffffffffff1614610649578382826040517f64283d7b0000000000000000000000000000000000000000000000000000000081526004016106409392919061243c565b60405180910390fd5b50505050565b61066a83838360405180602001604052806000815250610894565b505050565b600061067a82610bc0565b9050919050565b610689610c9f565b610694838383611095565b808273ffffffffffffffffffffffffffffffffffffffff168473ffffffffffffffffffffffffffffffffffffffff167fea23b7b56a1cab053610de0f107ec412dc6b565e44e2119856d8962a20100c5860405160405180910390a4505050565b60008073ffffffffffffffffffffffffffffffffffffffff168273ffffffffffffffffffffffffffffffffffffffff16036107675760006040517f89c62b6400000000000000000000000000000000000000000000000000000000815260040161075e9190611ea5565b60405180910390fd5b600360008373ffffffffffffffffffffffffffffffffffffffff1673ffffffffffffffffffffffffffffffffffffffff168152602001908152602001600020549050919050565b6107b6610c9f565b6107c06000611202565b565b6000600760009054906101000a900473ffffffffffffffffffffffffffffffffffffffff16905090565b6060600180546107fb90612379565b80601f016020809104026020016040519081016040528092919081815260200182805461082790612379565b80156108745780601f1061084957610100808354040283529160200191610874565b820191906000526020600020905b81548152906001019060200180831161085757829003601f168201915b5050505050905090565b610890610889610c85565b83836112c8565b5050565b61089f84848461054d565b6108ab84848484611437565b50505050565b60606108bc82610bc0565b5060006006600084815260200190815260200160002080546108dd90612379565b80601f016020809104026020016040519081016040528092919081815260200182805461090990612379565b80156109565780601f1061092b57610100808354040283529160200191610956565b820191906000526020600020905b81548152906001019060200180831161093957829003601f168201915b5050505050905060006109676115ee565b9050600081510361097c5781925050506109bf565b6000825111156109b15780826040516020016109999291906124af565b604051602081830303815290604052925050506109bf565b6109ba84611605565b925050505b919050565b6000600560008473ffffffffffffffffffffffffffffffffffffffff1673ffffffffffffffffffffffffffffffffffffffff16815260200190815260200160002060008373ffffffffffffffffffffffffffffffffffffffff1673ffffffffffffffffffffffffffffffffffffffff16815260200190815260200160002060009054906101000a900460ff16905092915050565b610a60610c9f565b600073ffffffffffffffffffffffffffffffffffffffff168173ffffffffffffffffffffffffffffffffffffffff1603610ad25760006040517f1e4fbdf7000000000000000000000000000000000000000000000000000000008152600401610ac99190611ea5565b60405180910390fd5b610adb81611202565b50565b60007f80ac58cd000000000000000000000000000000000000000000000000000000007bffffffffffffffffffffffffffffffffffffffffffffffffffffffff1916827bffffffffffffffffffffffffffffffffffffffffffffffffffffffff19161480610ba957507f5b5e139f000000000000000000000000000000000000000000000000000000007bffffffffffffffffffffffffffffffffffffffffffffffffffffffff1916827bffffffffffffffffffffffffffffffffffffffffffffffffffffffff1916145b80610bb95750610bb88261166e565b5b9050919050565b600080610bcc836116d8565b9050600073ffffffffffffffffffffffffffffffffffffffff168173ffffffffffffffffffffffffffffffffffffffff1603610c3f57826040517f7e273289000000000000000000000000000000000000000000000000000000008152600401610c36919061215f565b60405180910390fd5b80915050919050565b60006004600083815260200190815260200160002060009054906101000a900473ffffffffffffffffffffffffffffffffffffffff169050919050565b600033905090565b610c9a8383836001611715565b505050565b610ca7610c85565b73ffffffffffffffffffffffffffffffffffffffff16610cc56107c2565b73ffffffffffffffffffffffffffffffffffffffff1614610d2457610ce8610c85565b6040517f118cdaa7000000000000000000000000000000000000000000000000000000008152600401610d1b9190611ea5565b60405180910390fd5b565b600073ffffffffffffffffffffffffffffffffffffffff168273ffffffffffffffffffffffffffffffffffffffff1603610d985760006040517f64a0ae92000000000000000000000000000000000000000000000000000000008152600401610d8f9190611ea5565b60405180910390fd5b6000610da683836000610e7b565b9050600073ffffffffffffffffffffffffffffffffffffffff168173ffffffffffffffffffffffffffffffffffffffff1614610e1a5760006040517f73c6ac6e000000000000000000000000000000000000000000000000000000008152600401610e119190611ea5565b60405180910390fd5b505050565b80600660008481526020019081526020016000209081610e3f919061267f565b507ff8e1a15aba9398e019f0b49df1a4fde98ee17ae345cb5f6b5e2c27f5033e8ce782604051610e6f919061215f565b60405180910390a15050565b600080610e87846116d8565b9050600073ffffffffffffffffffffffffffffffffffffffff168373ffffffffffffffffffffffffffffffffffffffff1614610ec957610ec88184866118da565b5b600073ffffffffffffffffffffffffffffffffffffffff168173ffffffffffffffffffffffffffffffffffffffff1614610f5a57610f0b600085600080611715565b6001600360008373ffffffffffffffffffffffffffffffffffffffff1673ffffffffffffffffffffffffffffffffffffffff168152602001908152602001600020600082825403925050819055505b600073ffffffffffffffffffffffffffffffffffffffff168573ffffffffffffffffffffffffffffffffffffffff1614610fdd576001600360008773ffffffffffffffffffffffffffffffffffffffff1673ffffffffffffffffffffffffffffffffffffffff168152602001908152602001600020600082825401925050819055505b846002600086815260200190815260200160002060006101000a81548173ffffffffffffffffffffffffffffffffffffffff021916908373ffffffffffffffffffffffffffffffffffffffff160217905550838573ffffffffffffffffffffffffffffffffffffffff168273ffffffffffffffffffffffffffffffffffffffff167fddf252ad1be2c89b69c2b068fc378daa952ba7f163c4a11628f55a4df523b3ef60405160405180910390a4809150509392505050565b600073ffffffffffffffffffffffffffffffffffffffff168273ffffffffffffffffffffffffffffffffffffffff16036111075760006040517f64a0ae920000000000000000000000000000000000000000000000000000000081526004016110fe9190611ea5565b60405180910390fd5b600061111583836000610e7b565b9050600073ffffffffffffffffffffffffffffffffffffffff168173ffffffffffffffffffffffffffffffffffffffff160361118857816040517f7e27328900000000000000000000000000000000000000000000000000000000815260040161117f919061215f565b60405180910390fd5b8373ffffffffffffffffffffffffffffffffffffffff168173ffffffffffffffffffffffffffffffffffffffff16146111fc578382826040517f64283d7b0000000000000000000000000000000000000000000000000000000081526004016111f39392919061243c565b60405180910390fd5b50505050565b6000600760009054906101000a900473ffffffffffffffffffffffffffffffffffffffff16905081600760006101000a81548173ffffffffffffffffffffffffffffffffffffffff021916908373ffffffffffffffffffffffffffffffffffffffff1602179055508173ffffffffffffffffffffffffffffffffffffffff168173ffffffffffffffffffffffffffffffffffffffff167f8be0079c531659141344cd1fd0a4f28419497f9722a3daafe3b4186f6b6457e060405160405180910390a35050565b600073ffffffffffffffffffffffffffffffffffffffff168273ffffffffffffffffffffffffffffffffffffffff160361133957816040517f5b08ba180000000000000000000000000000000000000000000000000000000081526004016113309190611ea5565b60405180910390fd5b80600560008573ffffffffffffffffffffffffffffffffffffffff1673ffffffffffffffffffffffffffffffffffffffff16815260200190815260200160002060008473ffffffffffffffffffffffffffffffffffffffff1673ffffffffffffffffffffffffffffffffffffffff16815260200190815260200160002060006101000a81548160ff0219169083151502179055508173ffffffffffffffffffffffffffffffffffffffff168373ffffffffffffffffffffffffffffffffffffffff167f17307eab39ab6107e8899845ad3d59bd9653f200f220920489ca2b5937696c318360405161142a9190611d34565b60405180910390a3505050565b60008373ffffffffffffffffffffffffffffffffffffffff163b11156115e8578273ffffffffffffffffffffffffffffffffffffffff1663150b7a0261147b610c85565b8685856040518563ffffffff1660e01b815260040161149d94939291906127a6565b6020604051808303816000875af19250505080156114d957506040513d601f19601f820116820180604052508101906114d69190612807565b60015b61155d573d8060008114611509576040519150601f19603f3d011682016040523d82523d6000602084013e61150e565b606091505b50600081510361155557836040517f64a0ae9200000000000000000000000000000000000000000000000000000000815260040161154c9190611ea5565b60405180910390fd5b805181602001fd5b63150b7a0260e01b7bffffffffffffffffffffffffffffffffffffffffffffffffffffffff1916817bffffffffffffffffffffffffffffffffffffffffffffffffffffffff1916146115e657836040517f64a0ae920000000000000000000000000000000000000000000000000000000081526004016115dd9190611ea5565b60405180910390fd5b505b50505050565b606060405180602001604052806000815250905090565b606061161082610bc0565b50600061161b6115ee565b9050600081511161163b5760405180602001604052806000815250611666565b806116458461199e565b6040516020016116569291906124af565b6040516020818303038152906040525b915050919050565b60007f01ffc9a7000000000000000000000000000000000000000000000000000000007bffffffffffffffffffffffffffffffffffffffffffffffffffffffff1916827bffffffffffffffffffffffffffffffffffffffffffffffffffffffff1916149050919050565b60006002600083815260200190815260200160002060009054906101000a900473ffffffffffffffffffffffffffffffffffffffff169050919050565b808061174e5750600073ffffffffffffffffffffffffffffffffffffffff168273ffffffffffffffffffffffffffffffffffffffff1614155b1561188257600061175e84610bc0565b9050600073ffffffffffffffffffffffffffffffffffffffff168373ffffffffffffffffffffffffffffffffffffffff16141580156117c957508273ffffffffffffffffffffffffffffffffffffffff168173ffffffffffffffffffffffffffffffffffffffff1614155b80156117dc57506117da81846109c4565b155b1561181e57826040517fa9fbf51f0000000000000000000000000000000000000000000000000000000081526004016118159190611ea5565b60405180910390fd5b811561188057838573ffffffffffffffffffffffffffffffffffffffff168273ffffffffffffffffffffffffffffffffffffffff167f8c5be1e5ebec7d5bd14f71427d1e84f3dd0314c0f7b2291e5b200ac8c7c3b92560405160405180910390a45b505b836004600085815260200190815260200160002060006101000a81548173ffffffffffffffffffffffffffffffffffffffff021916908373ffffffffffffffffffffffffffffffffffffffff16021790555050505050565b6118e5838383611a6c565b61199957600073ffffffffffffffffffffffffffffffffffffffff168373ffffffffffffffffffffffffffffffffffffffff160361195a57806040517f7e273289000000000000000000000000000000000000000000000000000000008152600401611951919061215f565b60405180910390fd5b81816040517f177e802f000000000000000000000000000000000000000000000000000000008152600401611990929190612834565b60405180910390fd5b505050565b6060600060016119ad84611b2d565b01905060008167ffffffffffffffff8111156119cc576119cb611f36565b5b6040519080825280601f01601f1916602001820160405280156119fe5781602001600182028036833780820191505090505b509050600082602001820190505b600115611a61578080600190039150507f3031323334353637383961626364656600000000000000000000000000000000600a86061a8153600a8581611a5557611a5461285d565b5b04945060008503611a0c575b819350505050919050565b60008073ffffffffffffffffffffffffffffffffffffffff168373ffffffffffffffffffffffffffffffffffffffff1614158015611b2457508273ffffffffffffffffffffffffffffffffffffffff168473ffffffffffffffffffffffffffffffffffffffff161480611ae55750611ae484846109c4565b5b80611b2357508273ffffffffffffffffffffffffffffffffffffffff16611b0b83610c48565b73ffffffffffffffffffffffffffffffffffffffff16145b5b90509392505050565b600080600090507a184f03e93ff9f4daa797ed6e38ed64bf6a1f0100000000000000008310611b8b577a184f03e93ff9f4daa797ed6e38ed64bf6a1f0100000000000000008381611b8157611b8061285d565b5b0492506040810190505b6d04ee2d6d415b85acef81000000008310611bc8576d04ee2d6d415b85acef81000000008381611bbe57611bbd61285d565b5b0492506020810190505b662386f26fc100008310611bf757662386f26fc100008381611bed57611bec61285d565b5b0492506010810190505b6305f5e1008310611c20576305f5e1008381611c1657611c1561285d565b5b0492506008810190505b6127108310611c45576127108381611c3b57611c3a61285d565b5b0492506004810190505b60648310611c685760648381611c5e57611c5d61285d565b5b0492506002810190505b600a8310611c77576001810190505b80915050919050565b6000604051905090565b600080fd5b600080fd5b60007fffffffff0000000000000000000000000000000000000000000000000000000082169050919050565b611cc981611c94565b8114611cd457600080fd5b50565b600081359050611ce681611cc0565b92915050565b600060208284031215611d0257611d01611c8a565b5b6000611d1084828501611cd7565b91505092915050565b60008115159050919050565b611d2e81611d19565b82525050565b6000602082019050611d496000830184611d25565b92915050565b600081519050919050565b600082825260208201905092915050565b60005b83811015611d89578082015181840152602081019050611d6e565b60008484015250505050565b6000601f19601f8301169050919050565b6000611db182611d4f565b611dbb8185611d5a565b9350611dcb818560208601611d6b565b611dd481611d95565b840191505092915050565b60006020820190508181036000830152611df98184611da6565b905092915050565b6000819050919050565b611e1481611e01565b8114611e1f57600080fd5b50565b600081359050611e3181611e0b565b92915050565b600060208284031215611e4d57611e4c611c8a565b5b6000611e5b84828501611e22565b91505092915050565b600073ffffffffffffffffffffffffffffffffffffffff82169050919050565b6000611e8f82611e64565b9050919050565b611e9f81611e84565b82525050565b6000602082019050611eba6000830184611e96565b92915050565b611ec981611e84565b8114611ed457600080fd5b50565b600081359050611ee681611ec0565b92915050565b60008060408385031215611f0357611f02611c8a565b5b6000611f1185828601611ed7565b9250506020611f2285828601611e22565b9150509250929050565b600080fd5b600080fd5b7f4e487b7100000000000000000000000000000000000000000000000000000000600052604160045260246000fd5b611f6e82611d95565b810181811067ffffffffffffffff82111715611f8d57611f8c611f36565b5b80604052505050565b6000611fa0611c80565b9050611fac8282611f65565b919050565b600067ffffffffffffffff821115611fcc57611fcb611f36565b5b611fd582611d95565b9050602081019050919050565b82818337600083830152505050565b6000612004611fff84611fb1565b611f96565b9050828152602081018484840111156120205761201f611f31565b5b61202b848285611fe2565b509392505050565b600082601f83011261204857612047611f2c565b5b8135612058848260208601611ff1565b91505092915050565b60008060006060848603121561207a57612079611c8a565b5b600061208886828701611ed7565b935050602061209986828701611e22565b925050604084013567ffffffffffffffff8111156120ba576120b9611c8f565b5b6120c686828701612033565b9150509250925092565b6000806000606084860312156120e9576120e8611c8a565b5b60006120f786828701611ed7565b935050602061210886828701611ed7565b925050604061211986828701611e22565b9150509250925092565b60006020828403121561213957612138611c8a565b5b600061214784828501611ed7565b91505092915050565b61215981611e01565b82525050565b60006020820190506121746000830184612150565b92915050565b61218381611d19565b811461218e57600080fd5b50565b6000813590506121a08161217a565b92915050565b600080604083850312156121bd576121bc611c8a565b5b60006121cb85828601611ed7565b92505060206121dc85828601612191565b9150509250929050565b600067ffffffffffffffff82111561220157612200611f36565b5b61220a82611d95565b9050602081019050919050565b600061222a612225846121e6565b611f96565b90508281526020810184848401111561224657612245611f31565b5b612251848285611fe2565b509392505050565b600082601f83011261226e5761226d611f2c565b5b813561227e848260208601612217565b91505092915050565b600080600080608085870312156122a1576122a0611c8a565b5b60006122af87828801611ed7565b94505060206122c087828801611ed7565b93505060406122d187828801611e22565b925050606085013567ffffffffffffffff8111156122f2576122f1611c8f565b5b6122fe87828801612259565b91505092959194509250565b6000806040838503121561232157612320611c8a565b5b600061232f85828601611ed7565b925050602061234085828601611ed7565b9150509250929050565b7f4e487b7100000000000000000000000000000000000000000000000000000000600052602260045260246000fd5b6000600282049050600182168061239157607f821691505b6020821081036123a4576123a361234a565b5b50919050565b7f546f6b656e20555249206d75737420626520736574206265666f7265206d696e60008201527f74696e6700000000000000000000000000000000000000000000000000000000602082015250565b6000612406602483611d5a565b9150612411826123aa565b604082019050919050565b60006020820190508181036000830152612435816123f9565b9050919050565b60006060820190506124516000830186611e96565b61245e6020830185612150565b61246b6040830184611e96565b949350505050565b600081905092915050565b600061248982611d4f565b6124938185612473565b93506124a3818560208601611d6b565b80840191505092915050565b60006124bb828561247e565b91506124c7828461247e565b91508190509392505050565b60008190508160005260206000209050919050565b60006020601f8301049050919050565b600082821b905092915050565b6000600883026125357fffffffffffffffffffffffffffffffffffffffffffffffffffffffffffffffff826124f8565b61253f86836124f8565b95508019841693508086168417925050509392505050565b6000819050919050565b600061257c61257761257284611e01565b612557565b611e01565b9050919050565b6000819050919050565b61259683612561565b6125aa6125a282612583565b848454612505565b825550505050565b600090565b6125bf6125b2565b6125ca81848461258d565b505050565b5b818110156125ee576125e36000826125b7565b6001810190506125d0565b5050565b601f82111561263357612604816124d3565b61260d846124e8565b8101602085101561261c578190505b612630612628856124e8565b8301826125cf565b50505b505050565b600082821c905092915050565b600061265660001984600802612638565b1980831691505092915050565b600061266f8383612645565b9150826002028217905092915050565b61268882611d4f565b67ffffffffffffffff8111156126a1576126a0611f36565b5b6126ab8254612379565b6126b68282856125f2565b600060209050601f8311600181146126e957600084156126d7578287015190505b6126e18582612663565b865550612749565b601f1984166126f7866124d3565b60005b8281101561271f578489015182556001820191506020850194506020810190506126fa565b8683101561273c5784890151612738601f891682612645565b8355505b6001600288020188555050505b505050505050565b600081519050919050565b600082825260208201905092915050565b600061277882612751565b612782818561275c565b9350612792818560208601611d6b565b61279b81611d95565b840191505092915050565b60006080820190506127bb6000830187611e96565b6127c86020830186611e96565b6127d56040830185612150565b81810360608301526127e7818461276d565b905095945050505050565b60008151905061280181611cc0565b92915050565b60006020828403121561281d5761281c611c8a565b5b600061282b848285016127f2565b91505092915050565b60006040820190506128496000830185611e96565b6128566020830184612150565b9392505050565b7f4e487b7100000000000000000000000000000000000000000000000000000000600052601260045260246000fdfea264697066735822122024f169ae0a5faaf6b30d08d32c8bbb982121785e0693279af0b2e9e50319ab4264736f6c63430008140033",
  "linkReferences": {},
  "deployedLinkReferences": {}
}