{
  "_format": "hh-sol-artifact-1",
  "contractName": "Land",
  "sourceName": "contracts/Land.sol",
  "abi": [
    {
      "inputs": [],
      "stateMutability": "nonpayable",
      "type": "constructor"
    },
    {
      "inputs": [
        {
          "internalType": "address",
          "name": "sender",
          "type": "address"
        },
        {
          "internalType": "uint256",
          "name": "tokenId",
          "type": "uint256"
        },
        {
          "internalType": "address",
          "name": "owner",
          "type": "address"
        }
      ],
      "name": "ERC721IncorrectOwner",
      "type": "error"
    },
    {
      "inputs": [
        {
          "internalType": "address",
          "name": "operator",
          "type": "address"
        },
        {
          "internalType": "uint256",
          "name": "tokenId",
          "type": "uint256"
        }
      ],
      "name": "ERC721InsufficientApproval",
      "type": "error"
    },
    {
      "inputs": [
        {
          "internalType": "address",
          "name": "approver",
          "type": "address"
        }
      ],
      "name": "ERC721InvalidApprover",
      "type": "error"
    },
    {
      "inputs": [
        {
          "internalType": "address",
          "name": "operator",
          "type": "address"
        }
      ],
      "name": "ERC721InvalidOperator",
      "type": "error"
    },
    {
      "inputs": [
        {
          "internalType": "address",
          "name": "owner",
          "type": "address"
        }
      ],
      "name": "ERC721InvalidOwner",
      "type": "error"
    },
    {
      "inputs": [
        {
          "internalType": "address",
          "name": "receiver",
          "type": "address"
        }
      ],
      "name": "ERC721InvalidReceiver",
      "type": "error"
    },
    {
      "inputs": [
        {
          "internalType": "address",
          "name": "sender",
          "type": "address"
        }
      ],
      "name": "ERC721InvalidSender",
      "type": "error"
    },
    {
      "inputs": [
        {
          "internalType": "uint256",
          "name": "tokenId",
          "type": "uint256"
        }
      ],
      "name": "ERC721NonexistentToken",
      "type": "error"
    },
    {
      "inputs": [
        {
          "internalType": "address",
          "name": "owner",
          "type": "address"
        }
      ],
      "name": "OwnableInvalidOwner",
      "type": "error"
    },
    {
      "inputs": [
        {
          "internalType": "address",
          "name": "account",
          "type": "address"
        }
      ],
      "name": "OwnableUnauthorizedAccount",
      "type": "error"
    },
    {
      "anonymous": false,
      "inputs": [
        {
          "indexed": true,
          "internalType": "address",
          "name": "owner",
          "type": "address"
        },
        {
          "indexed": true,
          "internalType": "address",
          "name": "approved",
          "type": "address"
        },
        {
          "indexed": true,
          "internalType": "uint256",
          "name": "tokenId",
          "type": "uint256"
        }
      ],
      "name": "Approval",
      "type": "event"
    },
    {
      "anonymous": false,
      "inputs": [
        {
          "indexed": true,
          "internalType": "address",
          "name": "owner",
          "type": "address"
        },
        {
          "indexed": true,
          "internalType": "address",
          "name": "operator",
          "type": "address"
        },
        {
          "indexed": false,
          "internalType": "bool",
          "name": "approved",
          "type": "bool"
        }
      ],
      "name": "ApprovalForAll",
      "type": "event"
    },
    {
      "anonymous": false,
      "inputs": [
        {
          "indexed": false,
          "internalType": "uint256",
          "name": "_fromTokenId",
          "type": "uint256"
        },
        {
          "indexed": false,
          "internalType": "uint256",
          "name": "_toTokenId",
          "type": "uint256"
        }
      ],
      "name": "BatchMetadataUpdate",
      "type": "event"
    },
    {
      "anonymous": false,
      "inputs": [
        {
          "indexed": false,
          "internalType": "uint256",
          "name": "_tokenId",
          "type": "uint256"
        }
      ],
      "name": "MetadataUpdate",
      "type": "event"
    },
    {
      "anonymous": false,
      "inputs": [
        {
          "indexed": true,
          "internalType": "address",
          "name": "previousOwner",
          "type": "address"
        },
        {
          "indexed": true,
          "internalType": "address",
          "name": "newOwner",
          "type": "address"
        }
      ],
      "name": "OwnershipTransferred",
      "type": "event"
    },
    {
      "anonymous": false,
      "inputs": [
        {
          "indexed": true,
          "internalType": "address",
          "name": "from",
          "type": "address"
        },
        {
          "indexed": true,
          "internalType": "address",
          "name": "to",
          "type": "address"
        },
        {
          "indexed": true,
          "internalType": "uint256",
          "name": "tokenId",
          "type": "uint256"
        }
      ],
      "name": "Transfer",
      "type": "event"
    },
    {
      "inputs": [
        {
          "internalType": "address",
          "name": "",
          "type": "address"
        }
      ],
      "name": "GovtAuthorityMapping",
      "outputs": [
        {
          "internalType": "uint256",
          "name": "id",
          "type": "uint256"
        },
        {
          "internalType": "address",
          "name": "_addr",
          "type": "address"
        },
        {
          "internalType": "string",
          "name": "name",
          "type": "string"
        },
        {
          "internalType": "uint256",
          "name": "age",
          "type": "uint256"
        },
        {
          "internalType": "string",
          "name": "designation",
          "type": "string"
        },
        {
          "internalType": "string",
          "name": "city",
          "type": "string"
        }
      ],
      "stateMutability": "view",
      "type": "function"
    },
    {
      "inputs": [
        {
          "internalType": "uint256",
          "name": "",
          "type": "uint256"
        }
      ],
      "name": "LandRequestMapping",
      "outputs": [
        {
          "internalType": "uint256",
          "name": "reqId",
          "type": "uint256"
        },
        {
          "internalType": "address payable",
          "name": "sellerId",
          "type": "address"
        },
        {
          "internalType": "address payable",
          "name": "buyerId",
          "type": "address"
        },
        {
          "internalType": "uint256",
          "name": "landId",
          "type": "uint256"
        },
        {
          "internalType": "enum Land.reqStatus",
          "name": "requestStatus",
          "type": "uint8"
        },
        {
          "internalType": "bool",
          "name": "isPaymentDone",
          "type": "bool"
        }
      ],
      "stateMutability": "view",
      "type": "function"
    },
    {
      "inputs": [],
      "name": "ReturnAllGovtAuthorityList",
      "outputs": [
        {
          "internalType": "address[]",
          "name": "",
          "type": "address[]"
        }
      ],
      "stateMutability": "view",
      "type": "function"
    },
    {
      "inputs": [],
      "name": "ReturnAllLandList",
      "outputs": [
        {
          "internalType": "uint256[]",
          "name": "",
          "type": "uint256[]"
        }
      ],
      "stateMutability": "view",
      "type": "function"
    },
    {
      "inputs": [],
      "name": "ReturnAllUserList",
      "outputs": [
        {
          "internalType": "address[]",
          "name": "",
          "type": "address[]"
        }
      ],
      "stateMutability": "view",
      "type": "function"
    },
    {
      "inputs": [
        {
          "internalType": "address",
          "name": "",
          "type": "address"
        }
      ],
      "name": "UserMapping",
      "outputs": [
        {
          "internalType": "address",
          "name": "id",
          "type": "address"
        },
        {
          "internalType": "string",
          "name": "name",
          "type": "string"
        },
        {
          "internalType": "uint256",
          "name": "age",
          "type": "uint256"
        },
        {
          "internalType": "string",
          "name": "city",
          "type": "string"
        },
        {
          "internalType": "string",
          "name": "aadharNumber",
          "type": "string"
        },
        {
          "internalType": "string",
          "name": "panNumber",
          "type": "string"
        },
        {
          "internalType": "string",
          "name": "email",
          "type": "string"
        },
        {
          "internalType": "bool",
          "name": "isUserVerified",
          "type": "bool"
        }
      ],
      "stateMutability": "view",
      "type": "function"
    },
    {
      "inputs": [
        {
          "internalType": "uint256",
          "name": "_requestId",
          "type": "uint256"
        }
      ],
      "name": "acceptRequest",
      "outputs": [],
      "stateMutability": "nonpayable",
      "type": "function"
    },
    {
      "inputs": [
        {
          "internalType": "address",
          "name": "_addr",
          "type": "address"
        },
        {
          "internalType": "string",
          "name": "_name",
          "type": "string"
        },
        {
          "internalType": "uint256",
          "name": "_age",
          "type": "uint256"
        },
        {
          "internalType": "string",
          "name": "_designation",
          "type": "string"
        },
        {
          "internalType": "string",
          "name": "_city",
          "type": "string"
        }
      ],
      "name": "addGovtAuthority",
      "outputs": [
        {
          "internalType": "bool",
          "name": "",
          "type": "bool"
        }
      ],
      "stateMutability": "nonpayable",
      "type": "function"
    },
    {
      "inputs": [
        {
          "internalType": "uint256",
          "name": "_area",
          "type": "uint256"
        },
        {
          "internalType": "string",
          "name": "_address",
          "type": "string"
        },
        {
          "internalType": "uint256",
          "name": "_landPrice",
          "type": "uint256"
        },
        {
          "internalType": "uint256",
          "name": "_propertyPID",
          "type": "uint256"
        },
        {
          "internalType": "string",
          "name": "_document",
          "type": "string"
        }
      ],
      "name": "addLand",
      "outputs": [],
      "stateMutability": "nonpayable",
      "type": "function"
    },
    {
      "inputs": [
        {
          "internalType": "address",
          "name": "to",
          "type": "address"
        },
        {
          "internalType": "uint256",
          "name": "tokenId",
          "type": "uint256"
        }
      ],
      "name": "approve",
      "outputs": [],
      "stateMutability": "nonpayable",
      "type": "function"
    },
    {
      "inputs": [
        {
          "internalType": "address",
          "name": "owner",
          "type": "address"
        }
      ],
      "name": "balanceOf",
      "outputs": [
        {
          "internalType": "uint256",
          "name": "",
          "type": "uint256"
        }
      ],
      "stateMutability": "view",
      "type": "function"
    },
    {
      "inputs": [
        {
          "internalType": "address",
          "name": "_addr",
          "type": "address"
        }
      ],
      "name": "changeContractOwner",
      "outputs": [],
      "stateMutability": "nonpayable",
      "type": "function"
    },
    {
      "inputs": [],
      "name": "contractOwner",
      "outputs": [
        {
          "internalType": "address",
          "name": "",
          "type": "address"
        }
      ],
      "stateMutability": "view",
      "type": "function"
    },
    {
      "inputs": [],
      "name": "documentId",
      "outputs": [
        {
          "internalType": "uint256",
          "name": "",
          "type": "uint256"
        }
      ],
      "stateMutability": "view",
      "type": "function"
    },
    {
      "inputs": [
        {
          "internalType": "uint256",
          "name": "tokenId",
          "type": "uint256"
        }
      ],
      "name": "getApproved",
      "outputs": [
        {
          "internalType": "address",
          "name": "",
          "type": "address"
        }
      ],
      "stateMutability": "view",
      "type": "function"
    },
    {
      "inputs": [
        {
          "internalType": "address",
          "name": "owner",
          "type": "address"
        },
        {
          "internalType": "address",
          "name": "operator",
          "type": "address"
        }
      ],
      "name": "isApprovedForAll",
      "outputs": [
        {
          "internalType": "bool",
          "name": "",
          "type": "bool"
        }
      ],
      "stateMutability": "view",
      "type": "function"
    },
    {
      "inputs": [
        {
          "internalType": "address",
          "name": "_addr",
          "type": "address"
        }
      ],
      "name": "isContractOwner",
      "outputs": [
        {
          "internalType": "bool",
          "name": "",
          "type": "bool"
        }
      ],
      "stateMutability": "view",
      "type": "function"
    },
    {
      "inputs": [
        {
          "internalType": "address",
          "name": "_id",
          "type": "address"
        }
      ],
      "name": "isGovtAuthority",
      "outputs": [
        {
          "internalType": "bool",
          "name": "",
          "type": "bool"
        }
      ],
      "stateMutability": "view",
      "type": "function"
    },
    {
      "inputs": [
        {
          "internalType": "uint256",
          "name": "id",
          "type": "uint256"
        }
      ],
      "name": "isLandVerified",
      "outputs": [
        {
          "internalType": "bool",
          "name": "",
          "type": "bool"
        }
      ],
      "stateMutability": "view",
      "type": "function"
    },
    {
      "inputs": [
        {
          "internalType": "address",
          "name": "_addr",
          "type": "address"
        }
      ],
      "name": "isUserRegistered",
      "outputs": [
        {
          "internalType": "bool",
          "name": "",
          "type": "bool"
        }
      ],
      "stateMutability": "view",
      "type": "function"
    },
    {
      "inputs": [
        {
          "internalType": "address",
          "name": "id",
          "type": "address"
        }
      ],
      "name": "isUserVerified",
      "outputs": [
        {
          "internalType": "bool",
          "name": "",
          "type": "bool"
        }
      ],
      "stateMutability": "view",
      "type": "function"
    },
    {
      "inputs": [
        {
          "internalType": "uint256",
          "name": "id",
          "type": "uint256"
        }
      ],
      "name": "landPrice",
      "outputs": [
        {
          "internalType": "uint256",
          "name": "",
          "type": "uint256"
        }
      ],
      "stateMutability": "view",
      "type": "function"
    },
    {
      "inputs": [
        {
          "internalType": "uint256",
          "name": "",
          "type": "uint256"
        }
      ],
      "name": "lands",
      "outputs": [
        {
          "internalType": "uint256",
          "name": "id",
          "type": "uint256"
        },
        {
          "internalType": "uint256",
          "name": "area",
          "type": "uint256"
        },
        {
          "internalType": "string",
          "name": "landAddress",
          "type": "string"
        },
        {
          "internalType": "uint256",
          "name": "landPrice",
          "type": "uint256"
        },
        {
          "internalType": "uint256",
          "name": "propertyPID",
          "type": "uint256"
        },
        {
          "internalType": "string",
          "name": "document",
          "type": "string"
        },
        {
          "internalType": "bool",
          "name": "isforSell",
          "type": "bool"
        },
        {
          "internalType": "address payable",
          "name": "ownerAddress",
          "type": "address"
        },
        {
          "internalType": "bool",
          "name": "isLandVerified",
          "type": "bool"
        }
      ],
      "stateMutability": "view",
      "type": "function"
    },
    {
      "inputs": [],
      "name": "landsCount",
      "outputs": [
        {
          "internalType": "uint256",
          "name": "",
          "type": "uint256"
        }
      ],
      "stateMutability": "view",
      "type": "function"
    },
    {
      "inputs": [
        {
          "internalType": "uint256",
          "name": "id",
          "type": "uint256"
        }
      ],
      "name": "makeItforSell",
      "outputs": [],
      "stateMutability": "nonpayable",
      "type": "function"
    },
    {
      "inputs": [
        {
          "internalType": "uint256",
          "name": "_requestId",
          "type": "uint256"
        }
      ],
      "name": "makePayment",
      "outputs": [],
      "stateMutability": "payable",
      "type": "function"
    },
    {
      "inputs": [
        {
          "internalType": "address payable",
          "name": "_reveiver",
          "type": "address"
        }
      ],
      "name": "makePaymentTestFun",
      "outputs": [],
      "stateMutability": "payable",
      "type": "function"
    },
    {
      "inputs": [
        {
          "internalType": "address",
          "name": "id",
          "type": "address"
        }
      ],
      "name": "myAllLands",
      "outputs": [
        {
          "internalType": "uint256[]",
          "name": "",
          "type": "uint256[]"
        }
      ],
      "stateMutability": "view",
      "type": "function"
    },
    {
      "inputs": [],
      "name": "myReceivedLandRequests",
      "outputs": [
        {
          "internalType": "uint256[]",
          "name": "",
          "type": "uint256[]"
        }
      ],
      "stateMutability": "view",
      "type": "function"
    },
    {
      "inputs": [],
      "name": "mySentLandRequests",
      "outputs": [
        {
          "internalType": "uint256[]",
          "name": "",
          "type": "uint256[]"
        }
      ],
      "stateMutability": "view",
      "type": "function"
    },
    {
      "inputs": [],
      "name": "name",
      "outputs": [
        {
          "internalType": "string",
          "name": "",
          "type": "string"
        }
      ],
      "stateMutability": "view",
      "type": "function"
    },
    {
      "inputs": [],
      "name": "owner",
      "outputs": [
        {
          "internalType": "address",
          "name": "",
          "type": "address"
        }
      ],
      "stateMutability": "view",
      "type": "function"
    },
    {
      "inputs": [
        {
          "internalType": "uint256",
          "name": "tokenId",
          "type": "uint256"
        }
      ],
      "name": "ownerOf",
      "outputs": [
        {
          "internalType": "address",
          "name": "",
          "type": "address"
        }
      ],
      "stateMutability": "view",
      "type": "function"
    },
    {
      "inputs": [
        {
          "internalType": "string",
          "name": "_name",
          "type": "string"
        },
        {
          "internalType": "uint256",
          "name": "_age",
          "type": "uint256"
        },
        {
          "internalType": "string",
          "name": "_city",
          "type": "string"
        },
        {
          "internalType": "string",
          "name": "_aadharNumber",
          "type": "string"
        },
        {
          "internalType": "string",
          "name": "_panNumber",
          "type": "string"
        },
        {
          "internalType": "string",
          "name": "_email",
          "type": "string"
        }
      ],
      "name": "registerUser",
      "outputs": [],
      "stateMutability": "nonpayable",
      "type": "function"
    },
    {
      "inputs": [
        {
          "internalType": "uint256",
          "name": "_requestId",
          "type": "uint256"
        }
      ],
      "name": "rejectRequest",
      "outputs": [],
      "stateMutability": "nonpayable",
      "type": "function"
    },
    {
      "inputs": [
        {
          "internalType": "address",
          "name": "_addr",
          "type": "address"
        }
      ],
      "name": "removeGovtAuthority",
      "outputs": [],
      "stateMutability": "nonpayable",
      "type": "function"
    },
    {
      "inputs": [],
      "name": "renounceOwnership",
      "outputs": [],
      "stateMutability": "nonpayable",
      "type": "function"
    },
    {
      "inputs": [
        {
          "internalType": "uint256",
          "name": "id",
          "type": "uint256"
        }
      ],
      "name": "requesteStatus",
      "outputs": [
        {
          "internalType": "bool",
          "name": "",
          "type": "bool"
        }
      ],
      "stateMutability": "view",
      "type": "function"
    },
    {
      "inputs": [
        {
          "internalType": "uint256",
          "name": "_landId",
          "type": "uint256"
        }
      ],
      "name": "requestforBuy",
      "outputs": [],
      "stateMutability": "nonpayable",
      "type": "function"
    },
    {
      "inputs": [],
      "name": "returnPaymentDoneList",
      "outputs": [
        {
          "internalType": "uint256[]",
          "name": "",
          "type": "uint256[]"
        }
      ],
      "stateMutability": "view",
      "type": "function"
    },
    {
      "inputs": [
        {
          "internalType": "address",
          "name": "from",
          "type": "address"
        },
        {
          "internalType": "address",
          "name": "to",
          "type": "address"
        },
        {
          "internalType": "uint256",
          "name": "tokenId",
          "type": "uint256"
        }
      ],
      "name": "safeTransferFrom",
      "outputs": [],
      "stateMutability": "nonpayable",
      "type": "function"
    },
    {
      "inputs": [
        {
          "internalType": "address",
          "name": "from",
          "type": "address"
        },
        {
          "internalType": "address",
          "name": "to",
          "type": "address"
        },
        {
          "internalType": "uint256",
          "name": "tokenId",
          "type": "uint256"
        },
        {
          "internalType": "bytes",
          "name": "data",
          "type": "bytes"
        }
      ],
      "name": "safeTransferFrom",
      "outputs": [],
      "stateMutability": "nonpayable",
      "type": "function"
    },
    {
      "inputs": [
        {
          "internalType": "address",
          "name": "operator",
          "type": "address"
        },
        {
          "internalType": "bool",
          "name": "approved",
          "type": "bool"
        }
      ],
      "name": "setApprovalForAll",
      "outputs": [],
      "stateMutability": "nonpayable",
      "type": "function"
    },
    {
      "inputs": [
        {
          "internalType": "bytes4",
          "name": "interfaceId",
          "type": "bytes4"
        }
      ],
      "name": "supportsInterface",
      "outputs": [
        {
          "internalType": "bool",
          "name": "",
          "type": "bool"
        }
      ],
      "stateMutability": "view",
      "type": "function"
    },
    {
      "inputs": [],
      "name": "symbol",
      "outputs": [
        {
          "internalType": "string",
          "name": "",
          "type": "string"
        }
      ],
      "stateMutability": "view",
      "type": "function"
    },
    {
      "inputs": [
        {
          "internalType": "uint256",
          "name": "tokenId",
          "type": "uint256"
        }
      ],
      "name": "tokenURI",
      "outputs": [
        {
          "internalType": "string",
          "name": "",
          "type": "string"
        }
      ],
      "stateMutability": "view",
      "type": "function"
    },
    {
      "inputs": [
        {
          "internalType": "address",
          "name": "from",
          "type": "address"
        },
        {
          "internalType": "address",
          "name": "to",
          "type": "address"
        },
        {
          "internalType": "uint256",
          "name": "tokenId",
          "type": "uint256"
        }
      ],
      "name": "transferFrom",
      "outputs": [],
      "stateMutability": "nonpayable",
      "type": "function"
    },
    {
      "inputs": [
        {
          "internalType": "uint256",
          "name": "_requestId",
          "type": "uint256"
        }
      ],
      "name": "transferOwnership",
      "outputs": [
        {
          "internalType": "bool",
          "name": "",
          "type": "bool"
        }
      ],
      "stateMutability": "nonpayable",
      "type": "function"
    },
    {
      "inputs": [
        {
          "internalType": "address",
          "name": "newOwner",
          "type": "address"
        }
      ],
      "name": "transferOwnership",
      "outputs": [],
      "stateMutability": "nonpayable",
      "type": "function"
    },
    {
      "inputs": [],
      "name": "userCount",
      "outputs": [
        {
          "internalType": "uint256",
          "name": "",
          "type": "uint256"
        }
      ],
      "stateMutability": "view",
      "type": "function"
    },
    {
      "inputs": [
        {
          "internalType": "uint256",
          "name": "_id",
          "type": "uint256"
        }
      ],
      "name": "verifyLand",
      "outputs": [],
      "stateMutability": "nonpayable",
      "type": "function"
    },
    {
      "inputs": [
        {
          "internalType": "address",
          "name": "_userId",
          "type": "address"
        }
      ],
      "name": "verifyUser",
      "outputs": [],
      "stateMutability": "nonpayable",
      "type": "function"
    }
  ],
  "bytecode": "0x60806040523480156200001157600080fd5b50336040518060400160405280600781526020017f4c616e644e4654000000000000000000000000000000000000000000000000008152506040518060400160405280600381526020017f4c4e4400000000000000000000000000000000000000000000000000000000008152508160009081620000909190620004b3565b508060019081620000a29190620004b3565b505050600073ffffffffffffffffffffffffffffffffffffffff168173ffffffffffffffffffffffffffffffffffffffff16036200011a5760006040517f1e4fbdf7000000000000000000000000000000000000000000000000000000008152600401620001119190620005df565b60405180910390fd5b6200012b816200017360201b60201c565b5033600860006101000a81548173ffffffffffffffffffffffffffffffffffffffff021916908373ffffffffffffffffffffffffffffffffffffffff160217905550620005fc565b6000600760009054906101000a900473ffffffffffffffffffffffffffffffffffffffff16905081600760006101000a81548173ffffffffffffffffffffffffffffffffffffffff021916908373ffffffffffffffffffffffffffffffffffffffff1602179055508173ffffffffffffffffffffffffffffffffffffffff168173ffffffffffffffffffffffffffffffffffffffff167f8be0079c531659141344cd1fd0a4f28419497f9722a3daafe3b4186f6b6457e060405160405180910390a35050565b600081519050919050565b7f4e487b7100000000000000000000000000000000000000000000000000000000600052604160045260246000fd5b7f4e487b7100000000000000000000000000000000000000000000000000000000600052602260045260246000fd5b60006002820490506001821680620002bb57607f821691505b602082108103620002d157620002d062000273565b5b50919050565b60008190508160005260206000209050919050565b60006020601f8301049050919050565b600082821b905092915050565b6000600883026200033b7fffffffffffffffffffffffffffffffffffffffffffffffffffffffffffffffff82620002fc565b620003478683620002fc565b95508019841693508086168417925050509392505050565b6000819050919050565b6000819050919050565b6000620003946200038e62000388846200035f565b62000369565b6200035f565b9050919050565b6000819050919050565b620003b08362000373565b620003c8620003bf826200039b565b84845462000309565b825550505050565b600090565b620003df620003d0565b620003ec818484620003a5565b505050565b5b81811015620004145762000408600082620003d5565b600181019050620003f2565b5050565b601f82111562000463576200042d81620002d7565b6200043884620002ec565b8101602085101562000448578190505b620004606200045785620002ec565b830182620003f1565b50505b505050565b600082821c905092915050565b6000620004886000198460080262000468565b1980831691505092915050565b6000620004a3838362000475565b9150826002028217905092915050565b620004be8262000239565b67ffffffffffffffff811115620004da57620004d962000244565b5b620004e68254620002a2565b620004f382828562000418565b600060209050601f8311600181146200052b576000841562000516578287015190505b62000522858262000495565b86555062000592565b601f1984166200053b86620002d7565b60005b8281101562000565578489015182556001820191506020850194506020810190506200053e565b8683101562000585578489015162000581601f89168262000475565b8355505b6001600288020188555050505b505050505050565b600073ffffffffffffffffffffffffffffffffffffffff82169050919050565b6000620005c7826200059a565b9050919050565b620005d981620005ba565b82525050565b6000602082019050620005f66000830184620005ce565b92915050565b615e98806200060c6000396000f3fe6080604052600436106102ff5760003560e01c80639c32e3b411610190578063d196ebf2116100dc578063de11768811610095578063e9858b4d1161006f578063e9858b4d14610c37578063e985e9c514610c60578063f2fde38b14610c9d578063f9c43bdf14610cc6576102ff565b8063de11768814610b73578063e261f1e514610bb0578063e56e1abe14610bf5576102ff565b8063d196ebf214610a12578063d23e848914610a4f578063d3b368c014610a8c578063d61ff68c14610ab5578063d72ca9ec14610af9578063d8513de414610b36576102ff565b8063ace417e011610149578063b88d4fde11610123578063b88d4fde14610958578063c26e11eb14610981578063c87b56dd146109aa578063ce606ee0146109e7576102ff565b8063ace417e01461089c578063aeb6e1aa146108d9578063b10a30ed14610916576102ff565b80639c32e3b4146107a0578063a13d648f146107cb578063a22cb465146107f4578063a29c148d1461081d578063a38a229f14610848578063a846fc8f14610871576102ff565b8063499701b21161024f5780636cbf6cf81161020857806378f7c83f116101e257806378f7c83f146107035780638da5cb5b1461072e57806395d89b4114610759578063995a8d9614610784576102ff565b80636cbf6cf81461067257806370a08231146106af578063715018a6146106ec576102ff565b8063499701b2146105715780634ba1f0981461059c5780634d813120146105c55780635114cb52146105ee578063553a998d1461060a5780636352211e14610635576102ff565b80631c9afd0f116102bc57806323b872dd1161029657806323b872dd146104cd5780632d7788db146104f65780633ead67b51461051f57806342842e0e14610548576102ff565b80631c9afd0f1461043a57806322c8a2fc1461046557806323393d77146104a2576102ff565b806301ffc9a71461030457806306fdde031461034157806307973ccf1461036c578063081812fc14610397578063095ea7b3146103d4578063163f7522146103fd575b600080fd5b34801561031057600080fd5b5061032b60048036038101906103269190614a17565b610cef565b6040516103389190614a5f565b60405180910390f35b34801561034d57600080fd5b50610356610d50565b6040516103639190614b0a565b60405180910390f35b34801561037857600080fd5b50610381610de2565b60405161038e9190614b45565b60405180910390f35b3480156103a357600080fd5b506103be60048036038101906103b99190614b8c565b610de8565b6040516103cb9190614bfa565b60405180910390f35b3480156103e057600080fd5b506103fb60048036038101906103f69190614c41565b610e04565b005b34801561040957600080fd5b50610424600480360381019061041f9190614c81565b610e1a565b6040516104319190614a5f565b60405180910390f35b34801561044657600080fd5b5061044f610e70565b60405161045c9190614b45565b60405180910390f35b34801561047157600080fd5b5061048c60048036038101906104879190614c81565b610e76565b6040516104999190614a5f565b60405180910390f35b3480156104ae57600080fd5b506104b7610ecc565b6040516104c49190614d6c565b60405180910390f35b3480156104d957600080fd5b506104f460048036038101906104ef9190614d8e565b610f36565b005b34801561050257600080fd5b5061051d60048036038101906105189190614b8c565b611038565b005b34801561052b57600080fd5b5061054660048036038101906105419190614c81565b6110e8565b005b34801561055457600080fd5b5061056f600480360381019061056a9190614d8e565b6111bc565b005b34801561057d57600080fd5b506105866111dc565b6040516105939190614d6c565b60405180910390f35b3480156105a857600080fd5b506105c360048036038101906105be9190614b8c565b611271565b005b3480156105d157600080fd5b506105ec60048036038101906105e79190614c81565b611321565b005b61060860048036038101906106039190614b8c565b611391565b005b34801561061657600080fd5b5061061f611591565b60405161062c9190614e9f565b60405180910390f35b34801561064157600080fd5b5061065c60048036038101906106579190614b8c565b611631565b6040516106699190614bfa565b60405180910390f35b34801561067e57600080fd5b5061069960048036038101906106949190614b8c565b611643565b6040516106a69190614a5f565b60405180910390f35b3480156106bb57600080fd5b506106d660048036038101906106d19190614c81565b611670565b6040516106e39190614b45565b60405180910390f35b3480156106f857600080fd5b5061070161172a565b005b34801561070f57600080fd5b5061071861173e565b6040516107259190614b45565b60405180910390f35b34801561073a57600080fd5b50610743611744565b6040516107509190614bfa565b60405180910390f35b34801561076557600080fd5b5061076e61176e565b60405161077b9190614b0a565b60405180910390f35b61079e60048036038101906107999190614eff565b611800565b005b3480156107ac57600080fd5b506107b561184a565b6040516107c29190614d6c565b60405180910390f35b3480156107d757600080fd5b506107f260048036038101906107ed9190614c81565b6118df565b005b34801561080057600080fd5b5061081b60048036038101906108169190614f58565b611c38565b005b34801561082957600080fd5b50610832611c4e565b60405161083f9190614e9f565b60405180910390f35b34801561085457600080fd5b5061086f600480360381019061086a91906150cd565b611cee565b005b34801561087d57600080fd5b50610886611ffa565b6040516108939190614d6c565b60405180910390f35b3480156108a857600080fd5b506108c360048036038101906108be9190614c81565b612064565b6040516108d09190614a5f565b60405180910390f35b3480156108e557600080fd5b5061090060048036038101906108fb91906151e6565b6120bd565b60405161090d9190614a5f565b60405180910390f35b34801561092257600080fd5b5061093d60048036038101906109389190614b8c565b612376565b60405161094f9695949392919061533b565b60405180910390f35b34801561096457600080fd5b5061097f600480360381019061097a919061543d565b61240c565b005b34801561098d57600080fd5b506109a860048036038101906109a39190614b8c565b612429565b005b3480156109b657600080fd5b506109d160048036038101906109cc9190614b8c565b6124c9565b6040516109de9190614b0a565b60405180910390f35b3480156109f357600080fd5b506109fc6125dc565b604051610a099190614bfa565b60405180910390f35b348015610a1e57600080fd5b50610a396004803603810190610a349190614c81565b612602565b604051610a469190614d6c565b60405180910390f35b348015610a5b57600080fd5b50610a766004803603810190610a719190614b8c565b612699565b604051610a839190614a5f565b60405180910390f35b348015610a9857600080fd5b50610ab36004803603810190610aae9190614b8c565b612ba5565b005b348015610ac157600080fd5b50610adc6004803603810190610ad79190614c81565b612e9a565b604051610af09897969594939291906154c0565b60405180910390f35b348015610b0557600080fd5b50610b206004803603810190610b1b9190614b8c565b6131b7565b604051610b2d9190614b45565b60405180910390f35b348015610b4257600080fd5b50610b5d6004803603810190610b589190614b8c565b6131d7565b604051610b6a9190614a5f565b60405180910390f35b348015610b7f57600080fd5b50610b9a6004803603810190610b959190614c81565b613204565b604051610ba79190614a5f565b60405180910390f35b348015610bbc57600080fd5b50610bd76004803603810190610bd29190614b8c565b61325e565b604051610bec99989796959493929190615561565b60405180910390f35b348015610c0157600080fd5b50610c1c6004803603810190610c179190614c81565b6133f6565b604051610c2e969594939291906155fc565b60405180910390f35b348015610c4357600080fd5b50610c5e6004803603810190610c599190615672565b6135ea565b005b348015610c6c57600080fd5b50610c876004803603810190610c829190615725565b613818565b604051610c949190614a5f565b60405180910390f35b348015610ca957600080fd5b50610cc46004803603810190610cbf9190614c81565b6138ac565b005b348015610cd257600080fd5b50610ced6004803603810190610ce89190614b8c565b613932565b005b6000634906490660e01b7bffffffffffffffffffffffffffffffffffffffffffffffffffffffff1916827bffffffffffffffffffffffffffffffffffffffffffffffffffffffff19161480610d495750610d4882613976565b5b9050919050565b606060008054610d5f90615794565b80601f0160208091040260200160405190810160405280929190818152602001828054610d8b90615794565b8015610dd85780601f10610dad57610100808354040283529160200191610dd8565b820191906000526020600020905b815481529060010190602001808311610dbb57829003601f168201915b5050505050905090565b600a5481565b6000610df382613a58565b50610dfd82613ae0565b9050919050565b610e168282610e11613b1d565b613b25565b5050565b6000601460008373ffffffffffffffffffffffffffffffffffffffff1673ffffffffffffffffffffffffffffffffffffffff16815260200190815260200160002060009054906101000a900460ff169050919050565b600b5481565b6000601060008373ffffffffffffffffffffffffffffffffffffffff1673ffffffffffffffffffffffffffffffffffffffff16815260200190815260200160002060009054906101000a900460ff169050919050565b6060601a600060018152602001908152602001600020805480602002602001604051908101604052809291908181526020018280548015610f2c57602002820191906000526020600020905b815481526020019060010190808311610f18575b5050505050905090565b600073ffffffffffffffffffffffffffffffffffffffff168273ffffffffffffffffffffffffffffffffffffffff1603610fa85760006040517f64a0ae92000000000000000000000000000000000000000000000000000000008152600401610f9f9190614bfa565b60405180910390fd5b6000610fbc8383610fb7613b1d565b613b37565b90508373ffffffffffffffffffffffffffffffffffffffff168173ffffffffffffffffffffffffffffffffffffffff1614611032578382826040517f64283d7b000000000000000000000000000000000000000000000000000000008152600401611029939291906157c5565b60405180910390fd5b50505050565b3373ffffffffffffffffffffffffffffffffffffffff166017600083815260200190815260200160002060010160009054906101000a900473ffffffffffffffffffffffffffffffffffffffff1673ffffffffffffffffffffffffffffffffffffffff16146110a657600080fd5b60026017600083815260200190815260200160002060040160006101000a81548160ff021916908360048111156110e0576110df6152c4565b5b021790555050565b600860009054906101000a900473ffffffffffffffffffffffffffffffffffffffff1673ffffffffffffffffffffffffffffffffffffffff163373ffffffffffffffffffffffffffffffffffffffff1614611178576040517f08c379a000000000000000000000000000000000000000000000000000000000815260040161116f90615848565b60405180910390fd5b80600860006101000a81548173ffffffffffffffffffffffffffffffffffffffff021916908373ffffffffffffffffffffffffffffffffffffffff16021790555050565b6111d78383836040518060200160405280600081525061240c565b505050565b6060601860003373ffffffffffffffffffffffffffffffffffffffff1673ffffffffffffffffffffffffffffffffffffffff16815260200190815260200160002080548060200260200160405190810160405280929190818152602001828054801561126757602002820191906000526020600020905b815481526020019060010190808311611253575b5050505050905090565b3373ffffffffffffffffffffffffffffffffffffffff166017600083815260200190815260200160002060010160009054906101000a900473ffffffffffffffffffffffffffffffffffffffff1673ffffffffffffffffffffffffffffffffffffffff16146112df57600080fd5b60016017600083815260200190815260200160002060040160006101000a81548160ff02191690836004811115611319576113186152c4565b5b021790555050565b61132a33610e76565b61133357600080fd5b6001601160008373ffffffffffffffffffffffffffffffffffffffff1673ffffffffffffffffffffffffffffffffffffffff16815260200190815260200160002060070160006101000a81548160ff02191690831515021790555050565b3373ffffffffffffffffffffffffffffffffffffffff166017600083815260200190815260200160002060020160009054906101000a900473ffffffffffffffffffffffffffffffffffffffff1673ffffffffffffffffffffffffffffffffffffffff16148015611449575060016004811115611411576114106152c4565b5b6017600083815260200190815260200160002060040160009054906101000a900460ff166004811115611447576114466152c4565b5b145b61145257600080fd5b60036017600083815260200190815260200160002060040160006101000a81548160ff0219169083600481111561148c5761148b6152c4565b5b0217905550601660006017600084815260200190815260200160002060030154815260200190815260200160002060060160019054906101000a900473ffffffffffffffffffffffffffffffffffffffff1673ffffffffffffffffffffffffffffffffffffffff166108fc349081150290604051600060405180830381858888f19350505050158015611523573d6000803e3d6000fd5b5060016017600083815260200190815260200160002060040160016101000a81548160ff021916908315150217905550601b60006001815260200190815260200160002081908060018154018082558091505060019003906000526020600020016000909190919091505550565b6060601360006001815260200190815260200160002080548060200260200160405190810160405280929190818152602001828054801561162757602002820191906000526020600020905b8160009054906101000a900473ffffffffffffffffffffffffffffffffffffffff1673ffffffffffffffffffffffffffffffffffffffff16815260200190600101908083116115dd575b5050505050905090565b600061163c82613a58565b9050919050565b60006016600083815260200190815260200160002060060160159054906101000a900460ff169050919050565b60008073ffffffffffffffffffffffffffffffffffffffff168273ffffffffffffffffffffffffffffffffffffffff16036116e35760006040517f89c62b640000000000000000000000000000000000000000000000000000000081526004016116da9190614bfa565b60405180910390fd5b600360008373ffffffffffffffffffffffffffffffffffffffff1673ffffffffffffffffffffffffffffffffffffffff168152602001908152602001600020549050919050565b611732613d51565b61173c6000613dd8565b565b600c5481565b6000600760009054906101000a900473ffffffffffffffffffffffffffffffffffffffff16905090565b60606001805461177d90615794565b80601f01602080910402602001604051908101604052809291908181526020018280546117a990615794565b80156117f65780601f106117cb576101008083540402835291602001916117f6565b820191906000526020600020905b8154815290600101906020018083116117d957829003601f168201915b5050505050905090565b8073ffffffffffffffffffffffffffffffffffffffff166108fc349081150290604051600060405180830381858888f19350505050158015611846573d6000803e3d6000fd5b5050565b6060601960003373ffffffffffffffffffffffffffffffffffffffff1673ffffffffffffffffffffffffffffffffffffffff1681526020019081526020016000208054806020026020016040519081016040528092919081815260200182805480156118d557602002820191906000526020600020905b8154815260200190600101908083116118c1575b5050505050905090565b600860009054906101000a900473ffffffffffffffffffffffffffffffffffffffff1673ffffffffffffffffffffffffffffffffffffffff163373ffffffffffffffffffffffffffffffffffffffff161461196f576040517f08c379a0000000000000000000000000000000000000000000000000000000008152600401611966906158b4565b60405180910390fd5b601060008273ffffffffffffffffffffffffffffffffffffffff1673ffffffffffffffffffffffffffffffffffffffff16815260200190815260200160002060009054906101000a900460ff166119fb576040517f08c379a00000000000000000000000000000000000000000000000000000000081526004016119f290615920565b60405180910390fd5b6000601060008373ffffffffffffffffffffffffffffffffffffffff1673ffffffffffffffffffffffffffffffffffffffff16815260200190815260200160002060006101000a81548160ff0219169083151502179055506000600f60006001815260200190815260200160002080549050905060005b81811015611c33578273ffffffffffffffffffffffffffffffffffffffff16600f6000600181526020019081526020016000208281548110611ab757611ab6615940565b5b9060005260206000200160009054906101000a900473ffffffffffffffffffffffffffffffffffffffff1673ffffffffffffffffffffffffffffffffffffffff1603611c2657600f600060018152602001908152602001600020600183611b1e919061599e565b81548110611b2f57611b2e615940565b5b9060005260206000200160009054906101000a900473ffffffffffffffffffffffffffffffffffffffff16600f6000600181526020019081526020016000208281548110611b8057611b7f615940565b5b9060005260206000200160006101000a81548173ffffffffffffffffffffffffffffffffffffffff021916908373ffffffffffffffffffffffffffffffffffffffff160217905550600f600060018152602001908152602001600020805480611bec57611beb6159d2565b5b6001900381819060005260206000200160006101000a81549073ffffffffffffffffffffffffffffffffffffffff02191690559055611c33565b8080600101915050611a72565b505050565b611c4a611c43613b1d565b8383613e9e565b5050565b6060600f600060018152602001908152602001600020805480602002602001604051908101604052809291908181526020018280548015611ce457602002820191906000526020600020905b8160009054906101000a900473ffffffffffffffffffffffffffffffffffffffff1673ffffffffffffffffffffffffffffffffffffffff1681526020019060010190808311611c9a575b5050505050905090565b601460003373ffffffffffffffffffffffffffffffffffffffff1673ffffffffffffffffffffffffffffffffffffffff16815260200190815260200160002060009054906101000a900460ff1615611d4557600080fd5b6001601460003373ffffffffffffffffffffffffffffffffffffffff1673ffffffffffffffffffffffffffffffffffffffff16815260200190815260200160002060006101000a81548160ff021916908315150217905550600a6000815480929190611db090615a01565b91905055506013600060018152602001908152602001600020339080600181540180825580915050600190039060005260206000200160009091909190916101000a81548173ffffffffffffffffffffffffffffffffffffffff021916908373ffffffffffffffffffffffffffffffffffffffff1602179055503360126000600a54815260200190815260200160002060006101000a81548173ffffffffffffffffffffffffffffffffffffffff021916908373ffffffffffffffffffffffffffffffffffffffff1602179055506040518061010001604052803373ffffffffffffffffffffffffffffffffffffffff16815260200187815260200186815260200185815260200184815260200183815260200182815260200160001515815250601160003373ffffffffffffffffffffffffffffffffffffffff1673ffffffffffffffffffffffffffffffffffffffff16815260200190815260200160002060008201518160000160006101000a81548173ffffffffffffffffffffffffffffffffffffffff021916908373ffffffffffffffffffffffffffffffffffffffff1602179055506020820151816001019081611f6c9190615bf5565b50604082015181600201556060820151816003019081611f8c9190615bf5565b506080820151816004019081611fa29190615bf5565b5060a0820151816005019081611fb89190615bf5565b5060c0820151816006019081611fce9190615bf5565b5060e08201518160070160006101000a81548160ff021916908315150217905550905050505050505050565b6060601b60006001815260200190815260200160002080548060200260200160405190810160405280929190818152602001828054801561205a57602002820191906000526020600020905b815481526020019060010190808311612046575b5050505050905090565b6000601160008373ffffffffffffffffffffffffffffffffffffffff1673ffffffffffffffffffffffffffffffffffffffff16815260200190815260200160002060070160009054906101000a900460ff169050919050565b60003373ffffffffffffffffffffffffffffffffffffffff16600860009054906101000a900473ffffffffffffffffffffffffffffffffffffffff1673ffffffffffffffffffffffffffffffffffffffff161461211d576000905061236d565b3373ffffffffffffffffffffffffffffffffffffffff16600860009054906101000a900473ffffffffffffffffffffffffffffffffffffffff1673ffffffffffffffffffffffffffffffffffffffff161461217757600080fd5b6001601060008873ffffffffffffffffffffffffffffffffffffffff1673ffffffffffffffffffffffffffffffffffffffff16815260200190815260200160002060006101000a81548160ff021916908315150217905550600f600060018152602001908152602001600020869080600181540180825580915050600190039060005260206000200160009091909190916101000a81548173ffffffffffffffffffffffffffffffffffffffff021916908373ffffffffffffffffffffffffffffffffffffffff1602179055506040518060c0016040528060095481526020018773ffffffffffffffffffffffffffffffffffffffff16815260200186815260200185815260200184815260200183815250600e60008873ffffffffffffffffffffffffffffffffffffffff1673ffffffffffffffffffffffffffffffffffffffff1681526020019081526020016000206000820151816000015560208201518160010160006101000a81548173ffffffffffffffffffffffffffffffffffffffff021916908373ffffffffffffffffffffffffffffffffffffffff160217905550604082015181600201908161232e9190615bf5565b5060608201518160030155608082015181600401908161234e9190615bf5565b5060a08201518160050190816123649190615bf5565b50905050600190505b95945050505050565b60176020528060005260406000206000915090508060000154908060010160009054906101000a900473ffffffffffffffffffffffffffffffffffffffff16908060020160009054906101000a900473ffffffffffffffffffffffffffffffffffffffff16908060030154908060040160009054906101000a900460ff16908060040160019054906101000a900460ff16905086565b612417848484610f36565b6124238484848461400d565b50505050565b3373ffffffffffffffffffffffffffffffffffffffff166016600083815260200190815260200160002060060160019054906101000a900473ffffffffffffffffffffffffffffffffffffffff1673ffffffffffffffffffffffffffffffffffffffff161461249757600080fd5b60016016600083815260200190815260200160002060060160006101000a81548160ff02191690831515021790555050565b60606124d482613a58565b5060006006600084815260200190815260200160002080546124f590615794565b80601f016020809104026020016040519081016040528092919081815260200182805461252190615794565b801561256e5780601f106125435761010080835404028352916020019161256e565b820191906000526020600020905b81548152906001019060200180831161255157829003601f168201915b50505050509050600061257f6141c4565b905060008151036125945781925050506125d7565b6000825111156125c95780826040516020016125b1929190615d03565b604051602081830303815290604052925050506125d7565b6125d2846141db565b925050505b919050565b600860009054906101000a900473ffffffffffffffffffffffffffffffffffffffff1681565b6060601560008373ffffffffffffffffffffffffffffffffffffffff1673ffffffffffffffffffffffffffffffffffffffff16815260200190815260200160002080548060200260200160405190810160405280929190818152602001828054801561268d57602002820191906000526020600020905b815481526020019060010190808311612679575b50505050509050919050565b60006126a433610e76565b6126ad57600080fd5b60046017600084815260200190815260200160002060040160006101000a81548160ff021916908360048111156126e7576126e66152c4565b5b0217905550601560006017600085815260200190815260200160002060020160009054906101000a900473ffffffffffffffffffffffffffffffffffffffff1673ffffffffffffffffffffffffffffffffffffffff1673ffffffffffffffffffffffffffffffffffffffff168152602001908152602001600020601760008481526020019081526020016000206003015490806001815401808255809150506001900390600052602060002001600090919091909150556000601560006017600086815260200190815260200160002060010160009054906101000a900473ffffffffffffffffffffffffffffffffffffffff1673ffffffffffffffffffffffffffffffffffffffff1673ffffffffffffffffffffffffffffffffffffffff16815260200190815260200160002080549050905060005b81811015612ab4576017600085815260200190815260200160002060030154601560006017600088815260200190815260200160002060010160009054906101000a900473ffffffffffffffffffffffffffffffffffffffff1673ffffffffffffffffffffffffffffffffffffffff1673ffffffffffffffffffffffffffffffffffffffff16815260200190815260200160002082815481106128c4576128c3615940565b5b906000526020600020015403612aa757601560006017600087815260200190815260200160002060010160009054906101000a900473ffffffffffffffffffffffffffffffffffffffff1673ffffffffffffffffffffffffffffffffffffffff1673ffffffffffffffffffffffffffffffffffffffff168152602001908152602001600020600183612956919061599e565b8154811061296757612966615940565b5b9060005260206000200154601560006017600088815260200190815260200160002060010160009054906101000a900473ffffffffffffffffffffffffffffffffffffffff1673ffffffffffffffffffffffffffffffffffffffff1673ffffffffffffffffffffffffffffffffffffffff16815260200190815260200160002082815481106129f9576129f8615940565b5b9060005260206000200181905550601560006017600087815260200190815260200160002060010160009054906101000a900473ffffffffffffffffffffffffffffffffffffffff1673ffffffffffffffffffffffffffffffffffffffff1673ffffffffffffffffffffffffffffffffffffffff168152602001908152602001600020805480612a8c57612a8b6159d2565b5b60019003818190600052602060002001600090559055612ab4565b808060010191505061281e565b506000601660006017600087815260200190815260200160002060030154815260200190815260200160002060060160006101000a81548160ff0219169083151502179055506017600084815260200190815260200160002060020160009054906101000a900473ffffffffffffffffffffffffffffffffffffffff16601660006017600087815260200190815260200160002060030154815260200190815260200160002060060160016101000a81548173ffffffffffffffffffffffffffffffffffffffff021916908373ffffffffffffffffffffffffffffffffffffffff1602179055506001915050919050565b612bae33612064565b8015612bbf5750612bbe81611643565b5b612bc857600080fd5b600d6000815480929190612bdb90615a01565b91905055506040518060c00160405280600d5481526020016016600084815260200190815260200160002060060160019054906101000a900473ffffffffffffffffffffffffffffffffffffffff1673ffffffffffffffffffffffffffffffffffffffff1681526020013373ffffffffffffffffffffffffffffffffffffffff16815260200182815260200160006004811115612c7b57612c7a6152c4565b5b81526020016000151581525060176000600d5481526020019081526020016000206000820151816000015560208201518160010160006101000a81548173ffffffffffffffffffffffffffffffffffffffff021916908373ffffffffffffffffffffffffffffffffffffffff16021790555060408201518160020160006101000a81548173ffffffffffffffffffffffffffffffffffffffff021916908373ffffffffffffffffffffffffffffffffffffffff1602179055506060820151816003015560808201518160040160006101000a81548160ff02191690836004811115612d6957612d686152c4565b5b021790555060a08201518160040160016101000a81548160ff021916908315150217905550905050601860006016600084815260200190815260200160002060060160019054906101000a900473ffffffffffffffffffffffffffffffffffffffff1673ffffffffffffffffffffffffffffffffffffffff1673ffffffffffffffffffffffffffffffffffffffff168152602001908152602001600020600d549080600181540180825580915050600190039060005260206000200160009091909190915055601960003373ffffffffffffffffffffffffffffffffffffffff1673ffffffffffffffffffffffffffffffffffffffff168152602001908152602001600020600d54908060018154018082558091505060019003906000526020600020016000909190919091505550565b60116020528060005260406000206000915090508060000160009054906101000a900473ffffffffffffffffffffffffffffffffffffffff1690806001018054612ee390615794565b80601f0160208091040260200160405190810160405280929190818152602001828054612f0f90615794565b8015612f5c5780601f10612f3157610100808354040283529160200191612f5c565b820191906000526020600020905b815481529060010190602001808311612f3f57829003601f168201915b505050505090806002015490806003018054612f7790615794565b80601f0160208091040260200160405190810160405280929190818152602001828054612fa390615794565b8015612ff05780601f10612fc557610100808354040283529160200191612ff0565b820191906000526020600020905b815481529060010190602001808311612fd357829003601f168201915b50505050509080600401805461300590615794565b80601f016020809104026020016040519081016040528092919081815260200182805461303190615794565b801561307e5780601f106130535761010080835404028352916020019161307e565b820191906000526020600020905b81548152906001019060200180831161306157829003601f168201915b50505050509080600501805461309390615794565b80601f01602080910402602001604051908101604052809291908181526020018280546130bf90615794565b801561310c5780601f106130e15761010080835404028352916020019161310c565b820191906000526020600020905b8154815290600101906020018083116130ef57829003601f168201915b50505050509080600601805461312190615794565b80601f016020809104026020016040519081016040528092919081815260200182805461314d90615794565b801561319a5780601f1061316f5761010080835404028352916020019161319a565b820191906000526020600020905b81548152906001019060200180831161317d57829003601f168201915b5050505050908060070160009054906101000a900460ff16905088565b600060166000838152602001908152602001600020600301549050919050565b60006017600083815260200190815260200160002060040160019054906101000a900460ff169050919050565b6000600860009054906101000a900473ffffffffffffffffffffffffffffffffffffffff1673ffffffffffffffffffffffffffffffffffffffff168273ffffffffffffffffffffffffffffffffffffffff16149050919050565b601660205280600052604060002060009150905080600001549080600101549080600201805461328d90615794565b80601f01602080910402602001604051908101604052809291908181526020018280546132b990615794565b80156133065780601f106132db57610100808354040283529160200191613306565b820191906000526020600020905b8154815290600101906020018083116132e957829003601f168201915b50505050509080600301549080600401549080600501805461332790615794565b80601f016020809104026020016040519081016040528092919081815260200182805461335390615794565b80156133a05780601f10613375576101008083540402835291602001916133a0565b820191906000526020600020905b81548152906001019060200180831161338357829003601f168201915b5050505050908060060160009054906101000a900460ff16908060060160019054906101000a900473ffffffffffffffffffffffffffffffffffffffff16908060060160159054906101000a900460ff16905089565b600e6020528060005260406000206000915090508060000154908060010160009054906101000a900473ffffffffffffffffffffffffffffffffffffffff169080600201805461344590615794565b80601f016020809104026020016040519081016040528092919081815260200182805461347190615794565b80156134be5780601f10613493576101008083540402835291602001916134be565b820191906000526020600020905b8154815290600101906020018083116134a157829003601f168201915b5050505050908060030154908060040180546134d990615794565b80601f016020809104026020016040519081016040528092919081815260200182805461350590615794565b80156135525780601f1061352757610100808354040283529160200191613552565b820191906000526020600020905b81548152906001019060200180831161353557829003601f168201915b50505050509080600501805461356790615794565b80601f016020809104026020016040519081016040528092919081815260200182805461359390615794565b80156135e05780601f106135b5576101008083540402835291602001916135e0565b820191906000526020600020905b8154815290600101906020018083116135c357829003601f168201915b5050505050905086565b600b60008154809291906135fd90615a01565b9190505550604051806101200160405280600b5481526020018681526020018581526020018481526020018381526020018281526020016000151581526020013373ffffffffffffffffffffffffffffffffffffffff1681526020016000151581525060166000600b5481526020019081526020016000206000820151816000015560208201518160010155604082015181600201908161369e9190615bf5565b50606082015181600301556080820151816004015560a08201518160050190816136c89190615bf5565b5060c08201518160060160006101000a81548160ff02191690831515021790555060e08201518160060160016101000a81548173ffffffffffffffffffffffffffffffffffffffff021916908373ffffffffffffffffffffffffffffffffffffffff1602179055506101008201518160060160156101000a81548160ff021916908315150217905550905050601560003373ffffffffffffffffffffffffffffffffffffffff1673ffffffffffffffffffffffffffffffffffffffff168152602001908152602001600020600b549080600181540180825580915050600190039060005260206000200160009091909190915055601a600060018152602001908152602001600020600b54908060018154018082558091505060019003906000526020600020016000909190919091505561380533600b54614244565b613811600b548261433d565b5050505050565b6000600560008473ffffffffffffffffffffffffffffffffffffffff1673ffffffffffffffffffffffffffffffffffffffff16815260200190815260200160002060008373ffffffffffffffffffffffffffffffffffffffff1673ffffffffffffffffffffffffffffffffffffffff16815260200190815260200160002060009054906101000a900460ff16905092915050565b6138b4613d51565b600073ffffffffffffffffffffffffffffffffffffffff168173ffffffffffffffffffffffffffffffffffffffff16036139265760006040517f1e4fbdf700000000000000000000000000000000000000000000000000000000815260040161391d9190614bfa565b60405180910390fd5b61392f81613dd8565b50565b61393b33610e76565b61394457600080fd5b60016016600083815260200190815260200160002060060160156101000a81548160ff02191690831515021790555050565b60007f80ac58cd000000000000000000000000000000000000000000000000000000007bffffffffffffffffffffffffffffffffffffffffffffffffffffffff1916827bffffffffffffffffffffffffffffffffffffffffffffffffffffffff19161480613a4157507f5b5e139f000000000000000000000000000000000000000000000000000000007bffffffffffffffffffffffffffffffffffffffffffffffffffffffff1916827bffffffffffffffffffffffffffffffffffffffffffffffffffffffff1916145b80613a515750613a5082614399565b5b9050919050565b600080613a6483614403565b9050600073ffffffffffffffffffffffffffffffffffffffff168173ffffffffffffffffffffffffffffffffffffffff1603613ad757826040517f7e273289000000000000000000000000000000000000000000000000000000008152600401613ace9190614b45565b60405180910390fd5b80915050919050565b60006004600083815260200190815260200160002060009054906101000a900473ffffffffffffffffffffffffffffffffffffffff169050919050565b600033905090565b613b328383836001614440565b505050565b600080613b4384614403565b9050600073ffffffffffffffffffffffffffffffffffffffff168373ffffffffffffffffffffffffffffffffffffffff1614613b8557613b84818486614605565b5b600073ffffffffffffffffffffffffffffffffffffffff168173ffffffffffffffffffffffffffffffffffffffff1614613c1657613bc7600085600080614440565b6001600360008373ffffffffffffffffffffffffffffffffffffffff1673ffffffffffffffffffffffffffffffffffffffff168152602001908152602001600020600082825403925050819055505b600073ffffffffffffffffffffffffffffffffffffffff168573ffffffffffffffffffffffffffffffffffffffff1614613c99576001600360008773ffffffffffffffffffffffffffffffffffffffff1673ffffffffffffffffffffffffffffffffffffffff168152602001908152602001600020600082825401925050819055505b846002600086815260200190815260200160002060006101000a81548173ffffffffffffffffffffffffffffffffffffffff021916908373ffffffffffffffffffffffffffffffffffffffff160217905550838573ffffffffffffffffffffffffffffffffffffffff168273ffffffffffffffffffffffffffffffffffffffff167fddf252ad1be2c89b69c2b068fc378daa952ba7f163c4a11628f55a4df523b3ef60405160405180910390a4809150509392505050565b613d59613b1d565b73ffffffffffffffffffffffffffffffffffffffff16613d77611744565b73ffffffffffffffffffffffffffffffffffffffff1614613dd657613d9a613b1d565b6040517f118cdaa7000000000000000000000000000000000000000000000000000000008152600401613dcd9190614bfa565b60405180910390fd5b565b6000600760009054906101000a900473ffffffffffffffffffffffffffffffffffffffff16905081600760006101000a81548173ffffffffffffffffffffffffffffffffffffffff021916908373ffffffffffffffffffffffffffffffffffffffff1602179055508173ffffffffffffffffffffffffffffffffffffffff168173ffffffffffffffffffffffffffffffffffffffff167f8be0079c531659141344cd1fd0a4f28419497f9722a3daafe3b4186f6b6457e060405160405180910390a35050565b600073ffffffffffffffffffffffffffffffffffffffff168273ffffffffffffffffffffffffffffffffffffffff1603613f0f57816040517f5b08ba18000000000000000000000000000000000000000000000000000000008152600401613f069190614bfa565b60405180910390fd5b80600560008573ffffffffffffffffffffffffffffffffffffffff1673ffffffffffffffffffffffffffffffffffffffff16815260200190815260200160002060008473ffffffffffffffffffffffffffffffffffffffff1673ffffffffffffffffffffffffffffffffffffffff16815260200190815260200160002060006101000a81548160ff0219169083151502179055508173ffffffffffffffffffffffffffffffffffffffff168373ffffffffffffffffffffffffffffffffffffffff167f17307eab39ab6107e8899845ad3d59bd9653f200f220920489ca2b5937696c31836040516140009190614a5f565b60405180910390a3505050565b60008373ffffffffffffffffffffffffffffffffffffffff163b11156141be578273ffffffffffffffffffffffffffffffffffffffff1663150b7a02614051613b1d565b8685856040518563ffffffff1660e01b81526004016140739493929190615d7c565b6020604051808303816000875af19250505080156140af57506040513d601f19601f820116820180604052508101906140ac9190615ddd565b60015b614133573d80600081146140df576040519150601f19603f3d011682016040523d82523d6000602084013e6140e4565b606091505b50600081510361412b57836040517f64a0ae920000000000000000000000000000000000000000000000000000000081526004016141229190614bfa565b60405180910390fd5b805181602001fd5b63150b7a0260e01b7bffffffffffffffffffffffffffffffffffffffffffffffffffffffff1916817bffffffffffffffffffffffffffffffffffffffffffffffffffffffff1916146141bc57836040517f64a0ae920000000000000000000000000000000000000000000000000000000081526004016141b39190614bfa565b60405180910390fd5b505b50505050565b606060405180602001604052806000815250905090565b60606141e682613a58565b5060006141f16141c4565b90506000815111614211576040518060200160405280600081525061423c565b8061421b846146c9565b60405160200161422c929190615d03565b6040516020818303038152906040525b915050919050565b600073ffffffffffffffffffffffffffffffffffffffff168273ffffffffffffffffffffffffffffffffffffffff16036142b65760006040517f64a0ae920000000000000000000000000000000000000000000000000000000081526004016142ad9190614bfa565b60405180910390fd5b60006142c483836000613b37565b9050600073ffffffffffffffffffffffffffffffffffffffff168173ffffffffffffffffffffffffffffffffffffffff16146143385760006040517f73c6ac6e00000000000000000000000000000000000000000000000000000000815260040161432f9190614bfa565b60405180910390fd5b505050565b8060066000848152602001908152602001600020908161435d9190615bf5565b507ff8e1a15aba9398e019f0b49df1a4fde98ee17ae345cb5f6b5e2c27f5033e8ce78260405161438d9190614b45565b60405180910390a15050565b60007f01ffc9a7000000000000000000000000000000000000000000000000000000007bffffffffffffffffffffffffffffffffffffffffffffffffffffffff1916827bffffffffffffffffffffffffffffffffffffffffffffffffffffffff1916149050919050565b60006002600083815260200190815260200160002060009054906101000a900473ffffffffffffffffffffffffffffffffffffffff169050919050565b80806144795750600073ffffffffffffffffffffffffffffffffffffffff168273ffffffffffffffffffffffffffffffffffffffff1614155b156145ad57600061448984613a58565b9050600073ffffffffffffffffffffffffffffffffffffffff168373ffffffffffffffffffffffffffffffffffffffff16141580156144f457508273ffffffffffffffffffffffffffffffffffffffff168173ffffffffffffffffffffffffffffffffffffffff1614155b801561450757506145058184613818565b155b1561454957826040517fa9fbf51f0000000000000000000000000000000000000000000000000000000081526004016145409190614bfa565b60405180910390fd5b81156145ab57838573ffffffffffffffffffffffffffffffffffffffff168273ffffffffffffffffffffffffffffffffffffffff167f8c5be1e5ebec7d5bd14f71427d1e84f3dd0314c0f7b2291e5b200ac8c7c3b92560405160405180910390a45b505b836004600085815260200190815260200160002060006101000a81548173ffffffffffffffffffffffffffffffffffffffff021916908373ffffffffffffffffffffffffffffffffffffffff16021790555050505050565b614610838383614797565b6146c457600073ffffffffffffffffffffffffffffffffffffffff168373ffffffffffffffffffffffffffffffffffffffff160361468557806040517f7e27328900000000000000000000000000000000000000000000000000000000815260040161467c9190614b45565b60405180910390fd5b81816040517f177e802f0000000000000000000000000000000000000000000000000000000081526004016146bb929190615e0a565b60405180910390fd5b505050565b6060600060016146d884614858565b01905060008167ffffffffffffffff8111156146f7576146f6614fa2565b5b6040519080825280601f01601f1916602001820160405280156147295781602001600182028036833780820191505090505b509050600082602001820190505b60011561478c578080600190039150507f3031323334353637383961626364656600000000000000000000000000000000600a86061a8153600a85816147805761477f615e33565b5b04945060008503614737575b819350505050919050565b60008073ffffffffffffffffffffffffffffffffffffffff168373ffffffffffffffffffffffffffffffffffffffff161415801561484f57508273ffffffffffffffffffffffffffffffffffffffff168473ffffffffffffffffffffffffffffffffffffffff161480614810575061480f8484613818565b5b8061484e57508273ffffffffffffffffffffffffffffffffffffffff1661483683613ae0565b73ffffffffffffffffffffffffffffffffffffffff16145b5b90509392505050565b600080600090507a184f03e93ff9f4daa797ed6e38ed64bf6a1f01000000000000000083106148b6577a184f03e93ff9f4daa797ed6e38ed64bf6a1f01000000000000000083816148ac576148ab615e33565b5b0492506040810190505b6d04ee2d6d415b85acef810000000083106148f3576d04ee2d6d415b85acef810000000083816148e9576148e8615e33565b5b0492506020810190505b662386f26fc10000831061492257662386f26fc10000838161491857614917615e33565b5b0492506010810190505b6305f5e100831061494b576305f5e100838161494157614940615e33565b5b0492506008810190505b612710831061497057612710838161496657614965615e33565b5b0492506004810190505b60648310614993576064838161498957614988615e33565b5b0492506002810190505b600a83106149a2576001810190505b80915050919050565b6000604051905090565b600080fd5b600080fd5b60007fffffffff0000000000000000000000000000000000000000000000000000000082169050919050565b6149f4816149bf565b81146149ff57600080fd5b50565b600081359050614a11816149eb565b92915050565b600060208284031215614a2d57614a2c6149b5565b5b6000614a3b84828501614a02565b91505092915050565b60008115159050919050565b614a5981614a44565b82525050565b6000602082019050614a746000830184614a50565b92915050565b600081519050919050565b600082825260208201905092915050565b60005b83811015614ab4578082015181840152602081019050614a99565b60008484015250505050565b6000601f19601f8301169050919050565b6000614adc82614a7a565b614ae68185614a85565b9350614af6818560208601614a96565b614aff81614ac0565b840191505092915050565b60006020820190508181036000830152614b248184614ad1565b905092915050565b6000819050919050565b614b3f81614b2c565b82525050565b6000602082019050614b5a6000830184614b36565b92915050565b614b6981614b2c565b8114614b7457600080fd5b50565b600081359050614b8681614b60565b92915050565b600060208284031215614ba257614ba16149b5565b5b6000614bb084828501614b77565b91505092915050565b600073ffffffffffffffffffffffffffffffffffffffff82169050919050565b6000614be482614bb9565b9050919050565b614bf481614bd9565b82525050565b6000602082019050614c0f6000830184614beb565b92915050565b614c1e81614bd9565b8114614c2957600080fd5b50565b600081359050614c3b81614c15565b92915050565b60008060408385031215614c5857614c576149b5565b5b6000614c6685828601614c2c565b9250506020614c7785828601614b77565b9150509250929050565b600060208284031215614c9757614c966149b5565b5b6000614ca584828501614c2c565b91505092915050565b600081519050919050565b600082825260208201905092915050565b6000819050602082019050919050565b614ce381614b2c565b82525050565b6000614cf58383614cda565b60208301905092915050565b6000602082019050919050565b6000614d1982614cae565b614d238185614cb9565b9350614d2e83614cca565b8060005b83811015614d5f578151614d468882614ce9565b9750614d5183614d01565b925050600181019050614d32565b5085935050505092915050565b60006020820190508181036000830152614d868184614d0e565b905092915050565b600080600060608486031215614da757614da66149b5565b5b6000614db586828701614c2c565b9350506020614dc686828701614c2c565b9250506040614dd786828701614b77565b9150509250925092565b600081519050919050565b600082825260208201905092915050565b6000819050602082019050919050565b614e1681614bd9565b82525050565b6000614e288383614e0d565b60208301905092915050565b6000602082019050919050565b6000614e4c82614de1565b614e568185614dec565b9350614e6183614dfd565b8060005b83811015614e92578151614e798882614e1c565b9750614e8483614e34565b925050600181019050614e65565b5085935050505092915050565b60006020820190508181036000830152614eb98184614e41565b905092915050565b6000614ecc82614bb9565b9050919050565b614edc81614ec1565b8114614ee757600080fd5b50565b600081359050614ef981614ed3565b92915050565b600060208284031215614f1557614f146149b5565b5b6000614f2384828501614eea565b91505092915050565b614f3581614a44565b8114614f4057600080fd5b50565b600081359050614f5281614f2c565b92915050565b60008060408385031215614f6f57614f6e6149b5565b5b6000614f7d85828601614c2c565b9250506020614f8e85828601614f43565b9150509250929050565b600080fd5b600080fd5b7f4e487b7100000000000000000000000000000000000000000000000000000000600052604160045260246000fd5b614fda82614ac0565b810181811067ffffffffffffffff82111715614ff957614ff8614fa2565b5b80604052505050565b600061500c6149ab565b90506150188282614fd1565b919050565b600067ffffffffffffffff82111561503857615037614fa2565b5b61504182614ac0565b9050602081019050919050565b82818337600083830152505050565b600061507061506b8461501d565b615002565b90508281526020810184848401111561508c5761508b614f9d565b5b61509784828561504e565b509392505050565b600082601f8301126150b4576150b3614f98565b5b81356150c484826020860161505d565b91505092915050565b60008060008060008060c087890312156150ea576150e96149b5565b5b600087013567ffffffffffffffff811115615108576151076149ba565b5b61511489828a0161509f565b965050602061512589828a01614b77565b955050604087013567ffffffffffffffff811115615146576151456149ba565b5b61515289828a0161509f565b945050606087013567ffffffffffffffff811115615173576151726149ba565b5b61517f89828a0161509f565b935050608087013567ffffffffffffffff8111156151a05761519f6149ba565b5b6151ac89828a0161509f565b92505060a087013567ffffffffffffffff8111156151cd576151cc6149ba565b5b6151d989828a0161509f565b9150509295509295509295565b600080600080600060a08688031215615202576152016149b5565b5b600061521088828901614c2c565b955050602086013567ffffffffffffffff811115615231576152306149ba565b5b61523d8882890161509f565b945050604061524e88828901614b77565b935050606086013567ffffffffffffffff81111561526f5761526e6149ba565b5b61527b8882890161509f565b925050608086013567ffffffffffffffff81111561529c5761529b6149ba565b5b6152a88882890161509f565b9150509295509295909350565b6152be81614ec1565b82525050565b7f4e487b7100000000000000000000000000000000000000000000000000000000600052602160045260246000fd5b60058110615304576153036152c4565b5b50565b6000819050615315826152f3565b919050565b600061532582615307565b9050919050565b6153358161531a565b82525050565b600060c0820190506153506000830189614b36565b61535d60208301886152b5565b61536a60408301876152b5565b6153776060830186614b36565b615384608083018561532c565b61539160a0830184614a50565b979650505050505050565b600067ffffffffffffffff8211156153b7576153b6614fa2565b5b6153c082614ac0565b9050602081019050919050565b60006153e06153db8461539c565b615002565b9050828152602081018484840111156153fc576153fb614f9d565b5b61540784828561504e565b509392505050565b600082601f83011261542457615423614f98565b5b81356154348482602086016153cd565b91505092915050565b60008060008060808587031215615457576154566149b5565b5b600061546587828801614c2c565b945050602061547687828801614c2c565b935050604061548787828801614b77565b925050606085013567ffffffffffffffff8111156154a8576154a76149ba565b5b6154b48782880161540f565b91505092959194509250565b6000610100820190506154d6600083018b614beb565b81810360208301526154e8818a614ad1565b90506154f76040830189614b36565b81810360608301526155098188614ad1565b9050818103608083015261551d8187614ad1565b905081810360a08301526155318186614ad1565b905081810360c08301526155458185614ad1565b905061555460e0830184614a50565b9998505050505050505050565b600061012082019050615577600083018c614b36565b615584602083018b614b36565b8181036040830152615596818a614ad1565b90506155a56060830189614b36565b6155b26080830188614b36565b81810360a08301526155c48187614ad1565b90506155d360c0830186614a50565b6155e060e08301856152b5565b6155ee610100830184614a50565b9a9950505050505050505050565b600060c0820190506156116000830189614b36565b61561e6020830188614beb565b81810360408301526156308187614ad1565b905061563f6060830186614b36565b81810360808301526156518185614ad1565b905081810360a08301526156658184614ad1565b9050979650505050505050565b600080600080600060a0868803121561568e5761568d6149b5565b5b600061569c88828901614b77565b955050602086013567ffffffffffffffff8111156156bd576156bc6149ba565b5b6156c98882890161509f565b94505060406156da88828901614b77565b93505060606156eb88828901614b77565b925050608086013567ffffffffffffffff81111561570c5761570b6149ba565b5b6157188882890161509f565b9150509295509295909350565b6000806040838503121561573c5761573b6149b5565b5b600061574a85828601614c2c565b925050602061575b85828601614c2c565b9150509250929050565b7f4e487b7100000000000000000000000000000000000000000000000000000000600052602260045260246000fd5b600060028204905060018216806157ac57607f821691505b6020821081036157bf576157be615765565b5b50919050565b60006060820190506157da6000830186614beb565b6157e76020830185614b36565b6157f46040830184614beb565b949350505050565b7f796f7520617265206e6f7420636f6e74726163744f776e657200000000000000600082015250565b6000615832601983614a85565b915061583d826157fc565b602082019050919050565b6000602082019050818103600083015261586181615825565b9050919050565b7f596f7520617265206e6f7420636f6e74726163744f776e657200000000000000600082015250565b600061589e601983614a85565b91506158a982615868565b602082019050919050565b600060208201905081810360008301526158cd81615891565b9050919050565b7f476f767420617574686f72697479206e6f7420666f756e640000000000000000600082015250565b600061590a601883614a85565b9150615915826158d4565b602082019050919050565b60006020820190508181036000830152615939816158fd565b9050919050565b7f4e487b7100000000000000000000000000000000000000000000000000000000600052603260045260246000fd5b7f4e487b7100000000000000000000000000000000000000000000000000000000600052601160045260246000fd5b60006159a982614b2c565b91506159b483614b2c565b92508282039050818111156159cc576159cb61596f565b5b92915050565b7f4e487b7100000000000000000000000000000000000000000000000000000000600052603160045260246000fd5b6000615a0c82614b2c565b91507fffffffffffffffffffffffffffffffffffffffffffffffffffffffffffffffff8203615a3e57615a3d61596f565b5b600182019050919050565b60008190508160005260206000209050919050565b60006020601f8301049050919050565b600082821b905092915050565b600060088302615aab7fffffffffffffffffffffffffffffffffffffffffffffffffffffffffffffffff82615a6e565b615ab58683615a6e565b95508019841693508086168417925050509392505050565b6000819050919050565b6000615af2615aed615ae884614b2c565b615acd565b614b2c565b9050919050565b6000819050919050565b615b0c83615ad7565b615b20615b1882615af9565b848454615a7b565b825550505050565b600090565b615b35615b28565b615b40818484615b03565b505050565b5b81811015615b6457615b59600082615b2d565b600181019050615b46565b5050565b601f821115615ba957615b7a81615a49565b615b8384615a5e565b81016020851015615b92578190505b615ba6615b9e85615a5e565b830182615b45565b50505b505050565b600082821c905092915050565b6000615bcc60001984600802615bae565b1980831691505092915050565b6000615be58383615bbb565b9150826002028217905092915050565b615bfe82614a7a565b67ffffffffffffffff811115615c1757615c16614fa2565b5b615c218254615794565b615c2c828285615b68565b600060209050601f831160018114615c5f5760008415615c4d578287015190505b615c578582615bd9565b865550615cbf565b601f198416615c6d86615a49565b60005b82811015615c9557848901518255600182019150602085019450602081019050615c70565b86831015615cb25784890151615cae601f891682615bbb565b8355505b6001600288020188555050505b505050505050565b600081905092915050565b6000615cdd82614a7a565b615ce78185615cc7565b9350615cf7818560208601614a96565b80840191505092915050565b6000615d0f8285615cd2565b9150615d1b8284615cd2565b91508190509392505050565b600081519050919050565b600082825260208201905092915050565b6000615d4e82615d27565b615d588185615d32565b9350615d68818560208601614a96565b615d7181614ac0565b840191505092915050565b6000608082019050615d916000830187614beb565b615d9e6020830186614beb565b615dab6040830185614b36565b8181036060830152615dbd8184615d43565b905095945050505050565b600081519050615dd7816149eb565b92915050565b600060208284031215615df357615df26149b5565b5b6000615e0184828501615dc8565b91505092915050565b6000604082019050615e1f6000830185614beb565b615e2c6020830184614b36565b9392505050565b7f4e487b7100000000000000000000000000000000000000000000000000000000600052601260045260246000fdfea2646970667358221220a28fa37108e73586ae096a17647a63e64b239b490671d66c770ac2fab64bcd3b64736f6c63430008180033",
  "linkReferences": {},
  "deployedLinkReferences": {}
}