{
  "_format": "hh-sol-artifact-1",
  "contractName": "LandRegistry",
  "sourceName": "contracts/Land4.sol",
  "abi": [
    {
      "inputs": [],
      "name": "ReentrancyGuardReentrantCall",
      "type": "error"
    },
    {
      "anonymous": false,
      "inputs": [
        {
          "indexed": true,
          "internalType": "uint256",
          "name": "landId",
          "type": "uint256"
        },
        {
          "indexed": true,
          "internalType": "address",
          "name": "buyer",
          "type": "address"
        }
      ],
      "name": "BuyRequestMade",
      "type": "event"
    },
    {
      "anonymous": false,
      "inputs": [
        {
          "indexed": true,
          "internalType": "address",
          "name": "accountAddress",
          "type": "address"
        }
      ],
      "name": "GovtAuthorityRegistered",
      "type": "event"
    },
    {
      "anonymous": false,
      "inputs": [
        {
          "indexed": true,
          "internalType": "uint256",
          "name": "landId",
          "type": "uint256"
        }
      ],
      "name": "LandListedForSale",
      "type": "event"
    },
    {
      "anonymous": false,
      "inputs": [
        {
          "indexed": true,
          "internalType": "uint256",
          "name": "landId",
          "type": "uint256"
        },
        {
          "indexed": true,
          "internalType": "address",
          "name": "owner",
          "type": "address"
        }
      ],
      "name": "LandRegistered",
      "type": "event"
    },
    {
      "anonymous": false,
      "inputs": [
        {
          "indexed": true,
          "internalType": "uint256",
          "name": "saleTokenId",
          "type": "uint256"
        },
        {
          "indexed": true,
          "internalType": "uint256",
          "name": "landId",
          "type": "uint256"
        },
        {
          "indexed": true,
          "internalType": "address",
          "name": "buyer",
          "type": "address"
        }
      ],
      "name": "SaleApprovedByAuthority",
      "type": "event"
    },
    {
      "anonymous": false,
      "inputs": [
        {
          "indexed": true,
          "internalType": "uint256",
          "name": "saleTokenId",
          "type": "uint256"
        },
        {
          "indexed": true,
          "internalType": "uint256",
          "name": "landId",
          "type": "uint256"
        },
        {
          "indexed": true,
          "internalType": "address",
          "name": "buyer",
          "type": "address"
        },
        {
          "indexed": false,
          "internalType": "string",
          "name": "proofUrl",
          "type": "string"
        }
      ],
      "name": "SaleApprovedByOwner",
      "type": "event"
    },
    {
      "anonymous": false,
      "inputs": [
        {
          "indexed": true,
          "internalType": "uint256",
          "name": "userId",
          "type": "uint256"
        },
        {
          "indexed": true,
          "internalType": "address",
          "name": "accountAddress",
          "type": "address"
        }
      ],
      "name": "UserRegistered",
      "type": "event"
    },
    {
      "inputs": [
        {
          "internalType": "uint256",
          "name": "landId",
          "type": "uint256"
        }
      ],
      "name": "approveSaleByAuthority",
      "outputs": [],
      "stateMutability": "nonpayable",
      "type": "function"
    },
    {
      "inputs": [
        {
          "internalType": "uint256",
          "name": "landId",
          "type": "uint256"
        },
        {
          "internalType": "string",
          "name": "proofUrl",
          "type": "string"
        }
      ],
      "name": "approveSaleByOwner",
      "outputs": [],
      "stateMutability": "nonpayable",
      "type": "function"
    },
    {
      "inputs": [
        {
          "internalType": "uint256",
          "name": "landId",
          "type": "uint256"
        }
      ],
      "name": "getBuyerDetails",
      "outputs": [
        {
          "internalType": "address",
          "name": "accountAddress",
          "type": "address"
        },
        {
          "internalType": "string",
          "name": "name",
          "type": "string"
        },
        {
          "internalType": "string",
          "name": "phoneNumber",
          "type": "string"
        },
        {
          "internalType": "string",
          "name": "email",
          "type": "string"
        }
      ],
      "stateMutability": "view",
      "type": "function"
    },
    {
      "inputs": [
        {
          "internalType": "uint256",
          "name": "landId",
          "type": "uint256"
        }
      ],
      "name": "getLandDetails",
      "outputs": [
        {
          "internalType": "string",
          "name": "landDetails",
          "type": "string"
        },
        {
          "internalType": "uint256",
          "name": "area",
          "type": "uint256"
        },
        {
          "internalType": "string",
          "name": "landAddress",
          "type": "string"
        },
        {
          "internalType": "uint256",
          "name": "landPrice",
          "type": "uint256"
        },
        {
          "internalType": "uint256",
          "name": "ownerId",
          "type": "uint256"
        },
        {
          "internalType": "bool",
          "name": "isLandVerified",
          "type": "bool"
        }
      ],
      "stateMutability": "view",
      "type": "function"
    },
    {
      "inputs": [
        {
          "internalType": "uint256",
          "name": "landId",
          "type": "uint256"
        }
      ],
      "name": "getLandDetailsUser",
      "outputs": [
        {
          "internalType": "uint256",
          "name": "area",
          "type": "uint256"
        },
        {
          "internalType": "string",
          "name": "landAddress",
          "type": "string"
        },
        {
          "internalType": "uint256",
          "name": "landPrice",
          "type": "uint256"
        },
        {
          "internalType": "string",
          "name": "ownerName",
          "type": "string"
        },
        {
          "internalType": "string",
          "name": "ownerPhoneNumber",
          "type": "string"
        },
        {
          "internalType": "string",
          "name": "ownerEmail",
          "type": "string"
        }
      ],
      "stateMutability": "view",
      "type": "function"
    },
    {
      "inputs": [],
      "name": "getLandIds",
      "outputs": [
        {
          "internalType": "uint256[]",
          "name": "",
          "type": "uint256[]"
        }
      ],
      "stateMutability": "view",
      "type": "function"
    },
    {
      "inputs": [],
      "name": "getLatestSaleAndLandId",
      "outputs": [
        {
          "internalType": "uint256",
          "name": "saleTokenId",
          "type": "uint256"
        },
        {
          "internalType": "uint256",
          "name": "landId",
          "type": "uint256"
        }
      ],
      "stateMutability": "view",
      "type": "function"
    },
    {
      "inputs": [],
      "name": "getMyDetails",
      "outputs": [
        {
          "internalType": "uint256",
          "name": "id",
          "type": "uint256"
        },
        {
          "internalType": "string",
          "name": "name",
          "type": "string"
        },
        {
          "internalType": "string",
          "name": "details",
          "type": "string"
        },
        {
          "internalType": "string",
          "name": "phoneNumber",
          "type": "string"
        },
        {
          "internalType": "string",
          "name": "email",
          "type": "string"
        },
        {
          "internalType": "address",
          "name": "accountAddress",
          "type": "address"
        },
        {
          "internalType": "bool",
          "name": "isUserVerified",
          "type": "bool"
        }
      ],
      "stateMutability": "view",
      "type": "function"
    },
    {
      "inputs": [],
      "name": "getRegisteredLandIds",
      "outputs": [
        {
          "internalType": "uint256[]",
          "name": "",
          "type": "uint256[]"
        }
      ],
      "stateMutability": "view",
      "type": "function"
    },
    {
      "inputs": [],
      "name": "getRegisteredUserIds",
      "outputs": [
        {
          "internalType": "uint256[]",
          "name": "",
          "type": "uint256[]"
        }
      ],
      "stateMutability": "view",
      "type": "function"
    },
    {
      "inputs": [
        {
          "internalType": "uint256",
          "name": "landId",
          "type": "uint256"
        }
      ],
      "name": "getSaleDetailsForApproval",
      "outputs": [
        {
          "internalType": "address",
          "name": "ownerAddress",
          "type": "address"
        },
        {
          "internalType": "uint256",
          "name": "ownerId",
          "type": "uint256"
        },
        {
          "internalType": "address",
          "name": "buyer",
          "type": "address"
        },
        {
          "internalType": "uint256",
          "name": "buyerId",
          "type": "uint256"
        },
        {
          "internalType": "string",
          "name": "proofUrl",
          "type": "string"
        }
      ],
      "stateMutability": "view",
      "type": "function"
    },
    {
      "inputs": [
        {
          "internalType": "uint256",
          "name": "userId",
          "type": "uint256"
        }
      ],
      "name": "getUserDetails",
      "outputs": [
        {
          "internalType": "uint256",
          "name": "id",
          "type": "uint256"
        },
        {
          "internalType": "string",
          "name": "name",
          "type": "string"
        },
        {
          "internalType": "string",
          "name": "details",
          "type": "string"
        },
        {
          "internalType": "string",
          "name": "phoneNumber",
          "type": "string"
        },
        {
          "internalType": "string",
          "name": "email",
          "type": "string"
        },
        {
          "internalType": "address",
          "name": "accountAddress",
          "type": "address"
        },
        {
          "internalType": "bool",
          "name": "isUserVerified",
          "type": "bool"
        }
      ],
      "stateMutability": "view",
      "type": "function"
    },
    {
      "inputs": [
        {
          "internalType": "address",
          "name": "",
          "type": "address"
        }
      ],
      "name": "govtAuthorities",
      "outputs": [
        {
          "internalType": "address",
          "name": "accountAddress",
          "type": "address"
        },
        {
          "internalType": "string",
          "name": "govtId",
          "type": "string"
        },
        {
          "internalType": "string",
          "name": "name",
          "type": "string"
        },
        {
          "internalType": "string",
          "name": "email",
          "type": "string"
        }
      ],
      "stateMutability": "view",
      "type": "function"
    },
    {
      "inputs": [
        {
          "internalType": "uint256",
          "name": "",
          "type": "uint256"
        }
      ],
      "name": "lands",
      "outputs": [
        {
          "internalType": "uint256",
          "name": "id",
          "type": "uint256"
        },
        {
          "internalType": "string",
          "name": "landDetails",
          "type": "string"
        },
        {
          "internalType": "uint256",
          "name": "area",
          "type": "uint256"
        },
        {
          "internalType": "string",
          "name": "landAddress",
          "type": "string"
        },
        {
          "internalType": "uint256",
          "name": "landPrice",
          "type": "uint256"
        },
        {
          "internalType": "bool",
          "name": "isForSale",
          "type": "bool"
        },
        {
          "internalType": "address",
          "name": "ownerAddress",
          "type": "address"
        },
        {
          "internalType": "bool",
          "name": "isLandVerified",
          "type": "bool"
        }
      ],
      "stateMutability": "view",
      "type": "function"
    },
    {
      "inputs": [
        {
          "internalType": "uint256",
          "name": "landId",
          "type": "uint256"
        },
        {
          "internalType": "uint256",
          "name": "price",
          "type": "uint256"
        }
      ],
      "name": "listLandForSale",
      "outputs": [],
      "stateMutability": "nonpayable",
      "type": "function"
    },
    {
      "inputs": [
        {
          "internalType": "string",
          "name": "govtId",
          "type": "string"
        },
        {
          "internalType": "string",
          "name": "name",
          "type": "string"
        },
        {
          "internalType": "string",
          "name": "email",
          "type": "string"
        }
      ],
      "name": "registerGovtAuthority",
      "outputs": [],
      "stateMutability": "nonpayable",
      "type": "function"
    },
    {
      "inputs": [
        {
          "internalType": "string",
          "name": "landDetails",
          "type": "string"
        },
        {
          "internalType": "uint256",
          "name": "area",
          "type": "uint256"
        },
        {
          "internalType": "string",
          "name": "landAddress",
          "type": "string"
        },
        {
          "internalType": "uint256",
          "name": "landPrice",
          "type": "uint256"
        }
      ],
      "name": "registerLand",
      "outputs": [],
      "stateMutability": "nonpayable",
      "type": "function"
    },
    {
      "inputs": [
        {
          "internalType": "string",
          "name": "name",
          "type": "string"
        },
        {
          "internalType": "string",
          "name": "details",
          "type": "string"
        },
        {
          "internalType": "string",
          "name": "phoneNumber",
          "type": "string"
        },
        {
          "internalType": "string",
          "name": "email",
          "type": "string"
        }
      ],
      "name": "registerUser",
      "outputs": [],
      "stateMutability": "nonpayable",
      "type": "function"
    },
    {
      "inputs": [
        {
          "internalType": "uint256",
          "name": "landId",
          "type": "uint256"
        }
      ],
      "name": "requestToBuyLand",
      "outputs": [],
      "stateMutability": "nonpayable",
      "type": "function"
    },
    {
      "inputs": [
        {
          "internalType": "uint256",
          "name": "",
          "type": "uint256"
        }
      ],
      "name": "users",
      "outputs": [
        {
          "internalType": "uint256",
          "name": "id",
          "type": "uint256"
        },
        {
          "internalType": "address",
          "name": "accountAddress",
          "type": "address"
        },
        {
          "internalType": "string",
          "name": "name",
          "type": "string"
        },
        {
          "internalType": "string",
          "name": "details",
          "type": "string"
        },
        {
          "internalType": "string",
          "name": "phoneNumber",
          "type": "string"
        },
        {
          "internalType": "string",
          "name": "email",
          "type": "string"
        },
        {
          "internalType": "bool",
          "name": "isUserVerified",
          "type": "bool"
        }
      ],
      "stateMutability": "view",
      "type": "function"
    },
    {
      "inputs": [
        {
          "internalType": "uint256",
          "name": "landId",
          "type": "uint256"
        }
      ],
      "name": "verifyLand",
      "outputs": [],
      "stateMutability": "nonpayable",
      "type": "function"
    },
    {
      "inputs": [
        {
          "internalType": "uint256",
          "name": "userId",
          "type": "uint256"
        }
      ],
      "name": "verifyUser",
      "outputs": [],
      "stateMutability": "nonpayable",
      "type": "function"
    }
  ],
  "bytecode": "0x608060405260006001556000600255600060055534801561001f57600080fd5b506001600081905550614bab806100376000396000f3fe608060405234801561001057600080fd5b50600436106101425760003560e01c8063992245d3116100b8578063e261f1e51161007c578063e261f1e5146103a6578063e27e5b4f146103dd578063f9c43bdf146103fc578063faab0b1314610418578063fd1a8fef14610436578063fe0cb7dc1461045257610142565b8063992245d3146102d05780639985282914610303578063a11b00f314610321578063baa50e0414610356578063d8c937261461038a57610142565b806342365eb81161010a57806342365eb814610209578063431bbb7e1461022557806378b70e69146102495780637f83a21d146102655780637feb48be1461028157806393e54a56146102b457610142565b80630a8c3da7146101475780631a994ed8146101635780631c1a9f7b146101815780632233f161146101b7578063365b98b2146101d3575b600080fd5b610161600480360381019061015c919061379b565b610487565b005b61016b610625565b6040516101789190613886565b60405180910390f35b61019b6004803603810190610196919061379b565b61071f565b6040516101ae97969594939291906139a3565b60405180910390f35b6101d160048036038101906101cc9190613b63565b610b0e565b005b6101ed60048036038101906101e8919061379b565b610d80565b6040516102009796959493929190613c02565b60405180910390f35b610223600480360381019061021e919061379b565b61100f565b005b61022d611112565b60405161024097969594939291906139a3565b60405180910390f35b610263600480360381019061025e9190613c8d565b6114c5565b005b61027f600480360381019061027a9190613d34565b6116e0565b005b61029b60048036038101906102969190613dbc565b611904565b6040516102ab9493929190613de9565b60405180910390f35b6102ce60048036038101906102c99190613e43565b611aec565b005b6102ea60048036038101906102e5919061379b565b611d70565b6040516102fa9493929190613de9565b60405180910390f35b61030b612136565b6040516103189190613886565b60405180910390f35b61033b6004803603810190610336919061379b565b61225f565b60405161034d96959493929190613f1a565b60405180910390f35b610370600480360381019061036b919061379b565b612761565b604051610381959493929190613f97565b60405180910390f35b6103a4600480360381019061039f919061379b565b612a97565b005b6103c060048036038101906103bb919061379b565b612df8565b6040516103d4989796959493929190613ff1565b60405180910390f35b6103e5612f8a565b6040516103f392919061407d565b60405180910390f35b6104166004803603810190610411919061379b565b613033565b005b610420613136565b60405161042d9190613886565b60405180910390f35b610450600480360381019061044b91906140a6565b61325f565b005b61046c6004803603810190610467919061379b565b6133e3565b60405161047e969594939291906140e6565b60405180910390f35b60076000600860003373ffffffffffffffffffffffffffffffffffffffff1673ffffffffffffffffffffffffffffffffffffffff16815260200190815260200160002054815260200190815260200160002060060160009054906101000a900460ff16610529576040517f08c379a0000000000000000000000000000000000000000000000000000000008152600401610520906141a1565b60405180910390fd5b6006600082815260200190815260200160002060050160009054906101000a900460ff1661058c576040517f08c379a00000000000000000000000000000000000000000000000000000000081526004016105839061420d565b60405180910390fd5b33600a600083815260200190815260200160002060006101000a81548173ffffffffffffffffffffffffffffffffffffffff021916908373ffffffffffffffffffffffffffffffffffffffff1602179055503373ffffffffffffffffffffffffffffffffffffffff16817fd6c0677184cb454588299e30c9cc7fa876f164999561675d51daa158de061ee460405160405180910390a350565b606060076000600860003373ffffffffffffffffffffffffffffffffffffffff1673ffffffffffffffffffffffffffffffffffffffff16815260200190815260200160002054815260200190815260200160002060060160009054906101000a900460ff166106c9576040517f08c379a00000000000000000000000000000000000000000000000000000000081526004016106c0906141a1565b60405180910390fd5b600480548060200260200160405190810160405280929190818152602001828054801561071557602002820191906000526020600020905b815481526020019060010190808311610701575b5050505050905090565b6000606080606080600080600073ffffffffffffffffffffffffffffffffffffffff16600960003373ffffffffffffffffffffffffffffffffffffffff1673ffffffffffffffffffffffffffffffffffffffff16815260200190815260200160002060000160009054906101000a900473ffffffffffffffffffffffffffffffffffffffff1673ffffffffffffffffffffffffffffffffffffffff16036107fb576040517f08c379a00000000000000000000000000000000000000000000000000000000081526004016107f29061429f565b60405180910390fd5b6007600089815260200190815260200160002060000154600760008a8152602001908152602001600020600201600760008b8152602001908152602001600020600301600760008c8152602001908152602001600020600401600760008d8152602001908152602001600020600501600760008e815260200190815260200160002060010160009054906101000a900473ffffffffffffffffffffffffffffffffffffffff16600760008f815260200190815260200160002060060160009054906101000a900460ff168580546108d1906142ee565b80601f01602080910402602001604051908101604052809291908181526020018280546108fd906142ee565b801561094a5780601f1061091f5761010080835404028352916020019161094a565b820191906000526020600020905b81548152906001019060200180831161092d57829003601f168201915b5050505050955084805461095d906142ee565b80601f0160208091040260200160405190810160405280929190818152602001828054610989906142ee565b80156109d65780601f106109ab576101008083540402835291602001916109d6565b820191906000526020600020905b8154815290600101906020018083116109b957829003601f168201915b505050505094508380546109e9906142ee565b80601f0160208091040260200160405190810160405280929190818152602001828054610a15906142ee565b8015610a625780601f10610a3757610100808354040283529160200191610a62565b820191906000526020600020905b815481529060010190602001808311610a4557829003601f168201915b50505050509350828054610a75906142ee565b80601f0160208091040260200160405190810160405280929190818152602001828054610aa1906142ee565b8015610aee5780601f10610ac357610100808354040283529160200191610aee565b820191906000526020600020905b815481529060010190602001808311610ad157829003601f168201915b505050505092509650965096509650965096509650919395979092949650565b60076000600860003373ffffffffffffffffffffffffffffffffffffffff1673ffffffffffffffffffffffffffffffffffffffff16815260200190815260200160002054815260200190815260200160002060060160009054906101000a900460ff16610bb0576040517f08c379a0000000000000000000000000000000000000000000000000000000008152600401610ba7906141a1565b60405180910390fd5b60016000815480929190610bc39061434e565b9190505550600060015490506040518061010001604052808281526020018681526020018581526020018481526020018381526020016000151581526020013373ffffffffffffffffffffffffffffffffffffffff1681526020016000151581525060066000838152602001908152602001600020600082015181600001556020820151816001019081610c579190614542565b50604082015181600201556060820151816003019081610c779190614542565b506080820151816004015560a08201518160050160006101000a81548160ff02191690831515021790555060c08201518160050160016101000a81548173ffffffffffffffffffffffffffffffffffffffff021916908373ffffffffffffffffffffffffffffffffffffffff16021790555060e08201518160050160156101000a81548160ff02191690831515021790555090505060048190806001815401808255809150506001900390600052602060002001600090919091909150553373ffffffffffffffffffffffffffffffffffffffff16817fcb4990052f95f6057496d19524f6c3163f50af9f33f2c15b092928e03414323e60405160405180910390a35050505050565b60076020528060005260406000206000915090508060000154908060010160009054906101000a900473ffffffffffffffffffffffffffffffffffffffff1690806002018054610dcf906142ee565b80601f0160208091040260200160405190810160405280929190818152602001828054610dfb906142ee565b8015610e485780601f10610e1d57610100808354040283529160200191610e48565b820191906000526020600020905b815481529060010190602001808311610e2b57829003601f168201915b505050505090806003018054610e5d906142ee565b80601f0160208091040260200160405190810160405280929190818152602001828054610e89906142ee565b8015610ed65780601f10610eab57610100808354040283529160200191610ed6565b820191906000526020600020905b815481529060010190602001808311610eb957829003601f168201915b505050505090806004018054610eeb906142ee565b80601f0160208091040260200160405190810160405280929190818152602001828054610f17906142ee565b8015610f645780601f10610f3957610100808354040283529160200191610f64565b820191906000526020600020905b815481529060010190602001808311610f4757829003601f168201915b505050505090806005018054610f79906142ee565b80601f0160208091040260200160405190810160405280929190818152602001828054610fa5906142ee565b8015610ff25780601f10610fc757610100808354040283529160200191610ff2565b820191906000526020600020905b815481529060010190602001808311610fd557829003601f168201915b5050505050908060060160009054906101000a900460ff16905087565b600073ffffffffffffffffffffffffffffffffffffffff16600960003373ffffffffffffffffffffffffffffffffffffffff1673ffffffffffffffffffffffffffffffffffffffff16815260200190815260200160002060000160009054906101000a900473ffffffffffffffffffffffffffffffffffffffff1673ffffffffffffffffffffffffffffffffffffffff16036110e0576040517f08c379a00000000000000000000000000000000000000000000000000000000081526004016110d79061429f565b60405180910390fd5b60016007600083815260200190815260200160002060060160006101000a81548160ff02191690831515021790555050565b60006060806060806000806000600860003373ffffffffffffffffffffffffffffffffffffffff1673ffffffffffffffffffffffffffffffffffffffff168152602001908152602001600020549050600081036111a4576040517f08c379a000000000000000000000000000000000000000000000000000000000815260040161119b90614660565b60405180910390fd5b6000600760008381526020019081526020016000206040518060e0016040529081600082015481526020016001820160009054906101000a900473ffffffffffffffffffffffffffffffffffffffff1673ffffffffffffffffffffffffffffffffffffffff1673ffffffffffffffffffffffffffffffffffffffff168152602001600282018054611234906142ee565b80601f0160208091040260200160405190810160405280929190818152602001828054611260906142ee565b80156112ad5780601f10611282576101008083540402835291602001916112ad565b820191906000526020600020905b81548152906001019060200180831161129057829003601f168201915b505050505081526020016003820180546112c6906142ee565b80601f01602080910402602001604051908101604052809291908181526020018280546112f2906142ee565b801561133f5780601f106113145761010080835404028352916020019161133f565b820191906000526020600020905b81548152906001019060200180831161132257829003601f168201915b50505050508152602001600482018054611358906142ee565b80601f0160208091040260200160405190810160405280929190818152602001828054611384906142ee565b80156113d15780601f106113a6576101008083540402835291602001916113d1565b820191906000526020600020905b8154815290600101906020018083116113b457829003601f168201915b505050505081526020016005820180546113ea906142ee565b80601f0160208091040260200160405190810160405280929190818152602001828054611416906142ee565b80156114635780601f1061143857610100808354040283529160200191611463565b820191906000526020600020905b81548152906001019060200180831161144657829003601f168201915b505050505081526020016006820160009054906101000a900460ff161515151581525050905080600001518160400151826060015183608001518460a0015185602001518660c001519850985098509850985098509850505090919293949596565b600073ffffffffffffffffffffffffffffffffffffffff16600960003373ffffffffffffffffffffffffffffffffffffffff1673ffffffffffffffffffffffffffffffffffffffff16815260200190815260200160002060000160009054906101000a900473ffffffffffffffffffffffffffffffffffffffff1673ffffffffffffffffffffffffffffffffffffffff1614611596576040517f08c379a000000000000000000000000000000000000000000000000000000000815260040161158d906146cc565b60405180910390fd5b60405180608001604052803373ffffffffffffffffffffffffffffffffffffffff16815260200184815260200183815260200182815250600960003373ffffffffffffffffffffffffffffffffffffffff1673ffffffffffffffffffffffffffffffffffffffff16815260200190815260200160002060008201518160000160006101000a81548173ffffffffffffffffffffffffffffffffffffffff021916908373ffffffffffffffffffffffffffffffffffffffff16021790555060208201518160010190816116689190614542565b50604082015181600201908161167e9190614542565b5060608201518160030190816116949190614542565b509050503373ffffffffffffffffffffffffffffffffffffffff167f34b37b48f9d8d527f0373464ea94cc41b732f68ec673a274fc8ca62ad57b922a60405160405180910390a2505050565b813373ffffffffffffffffffffffffffffffffffffffff166006600083815260200190815260200160002060050160019054906101000a900473ffffffffffffffffffffffffffffffffffffffff1673ffffffffffffffffffffffffffffffffffffffff1614611785576040517f08c379a000000000000000000000000000000000000000000000000000000000815260040161177c9061475e565b60405180910390fd5b600073ffffffffffffffffffffffffffffffffffffffff16600a600085815260200190815260200160002060009054906101000a900473ffffffffffffffffffffffffffffffffffffffff1673ffffffffffffffffffffffffffffffffffffffff1603611827576040517f08c379a000000000000000000000000000000000000000000000000000000000815260040161181e906147ca565b60405180910390fd5b6005600081548092919061183a9061434e565b9190505550600554600c60008581526020019081526020016000208190555081600b600085815260200190815260200160002090816118799190614542565b50600a600084815260200190815260200160002060009054906101000a900473ffffffffffffffffffffffffffffffffffffffff1673ffffffffffffffffffffffffffffffffffffffff16836005547f2bc1224b7e02084483a653615a3ae616a6df1399ca3051e6f8721f7a684a40ce856040516118f791906147ea565b60405180910390a4505050565b60096020528060005260406000206000915090508060000160009054906101000a900473ffffffffffffffffffffffffffffffffffffffff169080600101805461194d906142ee565b80601f0160208091040260200160405190810160405280929190818152602001828054611979906142ee565b80156119c65780601f1061199b576101008083540402835291602001916119c6565b820191906000526020600020905b8154815290600101906020018083116119a957829003601f168201915b5050505050908060020180546119db906142ee565b80601f0160208091040260200160405190810160405280929190818152602001828054611a07906142ee565b8015611a545780601f10611a2957610100808354040283529160200191611a54565b820191906000526020600020905b815481529060010190602001808311611a3757829003601f168201915b505050505090806003018054611a69906142ee565b80601f0160208091040260200160405190810160405280929190818152602001828054611a95906142ee565b8015611ae25780601f10611ab757610100808354040283529160200191611ae2565b820191906000526020600020905b815481529060010190602001808311611ac557829003601f168201915b5050505050905084565b6000600860003373ffffffffffffffffffffffffffffffffffffffff1673ffffffffffffffffffffffffffffffffffffffff1681526020019081526020016000205414611b6e576040517f08c379a0000000000000000000000000000000000000000000000000000000008152600401611b6590614858565b60405180910390fd5b60026000815480929190611b819061434e565b9190505550600060025490506040518060e001604052808281526020013373ffffffffffffffffffffffffffffffffffffffff16815260200186815260200185815260200184815260200183815260200160001515815250600760008381526020019081526020016000206000820151816000015560208201518160010160006101000a81548173ffffffffffffffffffffffffffffffffffffffff021916908373ffffffffffffffffffffffffffffffffffffffff1602179055506040820151816002019081611c529190614542565b506060820151816003019081611c689190614542565b506080820151816004019081611c7e9190614542565b5060a0820151816005019081611c949190614542565b5060c08201518160060160006101000a81548160ff021916908315150217905550905050600381908060018154018082558091505060019003906000526020600020016000909190919091505580600860003373ffffffffffffffffffffffffffffffffffffffff1673ffffffffffffffffffffffffffffffffffffffff168152602001908152602001600020819055503373ffffffffffffffffffffffffffffffffffffffff16817fb442efe467d2ef30e62927a3cae0afcbc799a8a0944d8a143332e4e5e51cee5d60405160405180910390a35050505050565b60006060806060843373ffffffffffffffffffffffffffffffffffffffff166006600083815260200190815260200160002060050160019054906101000a900473ffffffffffffffffffffffffffffffffffffffff1673ffffffffffffffffffffffffffffffffffffffff1614611e1c576040517f08c379a0000000000000000000000000000000000000000000000000000000008152600401611e139061475e565b60405180910390fd5b6000600a600088815260200190815260200160002060009054906101000a900473ffffffffffffffffffffffffffffffffffffffff169050600073ffffffffffffffffffffffffffffffffffffffff168173ffffffffffffffffffffffffffffffffffffffff1603611ec3576040517f08c379a0000000000000000000000000000000000000000000000000000000008152600401611eba906147ca565b60405180910390fd5b6000600860008373ffffffffffffffffffffffffffffffffffffffff1673ffffffffffffffffffffffffffffffffffffffff1681526020019081526020016000205490506007600082815260200190815260200160002060010160009054906101000a900473ffffffffffffffffffffffffffffffffffffffff16600760008381526020019081526020016000206002016007600084815260200190815260200160002060040160076000858152602001908152602001600020600501828054611f8c906142ee565b80601f0160208091040260200160405190810160405280929190818152602001828054611fb8906142ee565b80156120055780601f10611fda57610100808354040283529160200191612005565b820191906000526020600020905b815481529060010190602001808311611fe857829003601f168201915b50505050509250818054612018906142ee565b80601f0160208091040260200160405190810160405280929190818152602001828054612044906142ee565b80156120915780601f1061206657610100808354040283529160200191612091565b820191906000526020600020905b81548152906001019060200180831161207457829003601f168201915b505050505091508080546120a4906142ee565b80601f01602080910402602001604051908101604052809291908181526020018280546120d0906142ee565b801561211d5780601f106120f25761010080835404028352916020019161211d565b820191906000526020600020905b81548152906001019060200180831161210057829003601f168201915b5050505050905096509650965096505050509193509193565b6060600073ffffffffffffffffffffffffffffffffffffffff16600960003373ffffffffffffffffffffffffffffffffffffffff1673ffffffffffffffffffffffffffffffffffffffff16815260200190815260200160002060000160009054906101000a900473ffffffffffffffffffffffffffffffffffffffff1673ffffffffffffffffffffffffffffffffffffffff1603612209576040517f08c379a00000000000000000000000000000000000000000000000000000000081526004016122009061429f565b60405180910390fd5b600380548060200260200160405190810160405280929190818152602001828054801561225557602002820191906000526020600020905b815481526020019060010190808311612241575b5050505050905090565b600060606000606080606060076000600860003373ffffffffffffffffffffffffffffffffffffffff1673ffffffffffffffffffffffffffffffffffffffff16815260200190815260200160002054815260200190815260200160002060060160009054906101000a900460ff1661230c576040517f08c379a0000000000000000000000000000000000000000000000000000000008152600401612303906141a1565b60405180910390fd5b60006006600089815260200190815260200160002060050160019054906101000a900473ffffffffffffffffffffffffffffffffffffffff169050600060076000600860008573ffffffffffffffffffffffffffffffffffffffff1673ffffffffffffffffffffffffffffffffffffffff1681526020019081526020016000205481526020019081526020016000206040518060e0016040529081600082015481526020016001820160009054906101000a900473ffffffffffffffffffffffffffffffffffffffff1673ffffffffffffffffffffffffffffffffffffffff1673ffffffffffffffffffffffffffffffffffffffff168152602001600282018054612416906142ee565b80601f0160208091040260200160405190810160405280929190818152602001828054612442906142ee565b801561248f5780601f106124645761010080835404028352916020019161248f565b820191906000526020600020905b81548152906001019060200180831161247257829003601f168201915b505050505081526020016003820180546124a8906142ee565b80601f01602080910402602001604051908101604052809291908181526020018280546124d4906142ee565b80156125215780601f106124f657610100808354040283529160200191612521565b820191906000526020600020905b81548152906001019060200180831161250457829003601f168201915b5050505050815260200160048201805461253a906142ee565b80601f0160208091040260200160405190810160405280929190818152602001828054612566906142ee565b80156125b35780601f10612588576101008083540402835291602001916125b3565b820191906000526020600020905b81548152906001019060200180831161259657829003601f168201915b505050505081526020016005820180546125cc906142ee565b80601f01602080910402602001604051908101604052809291908181526020018280546125f8906142ee565b80156126455780601f1061261a57610100808354040283529160200191612645565b820191906000526020600020905b81548152906001019060200180831161262857829003601f168201915b505050505081526020016006820160009054906101000a900460ff1615151515815250509050600660008a815260200190815260200160002060020154600660008b8152602001908152602001600020600301600660008c815260200190815260200160002060040154836040015184608001518560a001518480546126ca906142ee565b80601f01602080910402602001604051908101604052809291908181526020018280546126f6906142ee565b80156127435780601f1061271857610100808354040283529160200191612743565b820191906000526020600020905b81548152906001019060200180831161272657829003601f168201915b50505050509450975097509750975097509750505091939550919395565b6000806000806060600073ffffffffffffffffffffffffffffffffffffffff16600960003373ffffffffffffffffffffffffffffffffffffffff1673ffffffffffffffffffffffffffffffffffffffff16815260200190815260200160002060000160009054906101000a900473ffffffffffffffffffffffffffffffffffffffff1673ffffffffffffffffffffffffffffffffffffffff160361283a576040517f08c379a00000000000000000000000000000000000000000000000000000000081526004016128319061429f565b60405180910390fd5b6000600b6000888152602001908152602001600020805461285a906142ee565b90501161289c576040517f08c379a0000000000000000000000000000000000000000000000000000000008152600401612893906148c4565b60405180910390fd5b6006600087815260200190815260200160002060050160019054906101000a900473ffffffffffffffffffffffffffffffffffffffff16945060076000600860008873ffffffffffffffffffffffffffffffffffffffff1673ffffffffffffffffffffffffffffffffffffffff168152602001908152602001600020548152602001908152602001600020600001549350600a600087815260200190815260200160002060009054906101000a900473ffffffffffffffffffffffffffffffffffffffff169250600073ffffffffffffffffffffffffffffffffffffffff168373ffffffffffffffffffffffffffffffffffffffff16146129f05760076000600860008673ffffffffffffffffffffffffffffffffffffffff1673ffffffffffffffffffffffffffffffffffffffff1681526020019081526020016000205481526020019081526020016000206000015491505b600b60008781526020019081526020016000208054612a0e906142ee565b80601f0160208091040260200160405190810160405280929190818152602001828054612a3a906142ee565b8015612a875780601f10612a5c57610100808354040283529160200191612a87565b820191906000526020600020905b815481529060010190602001808311612a6a57829003601f168201915b5050505050905091939590929450565b600073ffffffffffffffffffffffffffffffffffffffff16600960003373ffffffffffffffffffffffffffffffffffffffff1673ffffffffffffffffffffffffffffffffffffffff16815260200190815260200160002060000160009054906101000a900473ffffffffffffffffffffffffffffffffffffffff1673ffffffffffffffffffffffffffffffffffffffff1603612b68576040517f08c379a0000000000000000000000000000000000000000000000000000000008152600401612b5f9061429f565b60405180910390fd5b6000600c60008381526020019081526020016000205403612bbe576040517f08c379a0000000000000000000000000000000000000000000000000000000008152600401612bb590614930565b60405180910390fd5b600d6000600c600084815260200190815260200160002054815260200190815260200160002060009054906101000a900460ff1615612c32576040517f08c379a0000000000000000000000000000000000000000000000000000000008152600401612c299061499c565b60405180910390fd5b6000600c60008381526020019081526020016000205490506000600c6000848152602001908152602001600020819055506001600d600083815260200190815260200160002060006101000a81548160ff021916908315150217905550600a600083815260200190815260200160002060009054906101000a900473ffffffffffffffffffffffffffffffffffffffff166006600084815260200190815260200160002060050160016101000a81548173ffffffffffffffffffffffffffffffffffffffff021916908373ffffffffffffffffffffffffffffffffffffffff16021790555060006006600084815260200190815260200160002060050160006101000a81548160ff021916908315150217905550600a600083815260200190815260200160002060006101000a81549073ffffffffffffffffffffffffffffffffffffffff0219169055600a600083815260200190815260200160002060009054906101000a900473ffffffffffffffffffffffffffffffffffffffff1673ffffffffffffffffffffffffffffffffffffffff1682827fd243a199ee54116cc17dd86b01a087971289f10da1ec2887f37ce8ea7fac262a60405160405180910390a45050565b6006602052806000526040600020600091509050806000015490806001018054612e21906142ee565b80601f0160208091040260200160405190810160405280929190818152602001828054612e4d906142ee565b8015612e9a5780601f10612e6f57610100808354040283529160200191612e9a565b820191906000526020600020905b815481529060010190602001808311612e7d57829003601f168201915b505050505090806002015490806003018054612eb5906142ee565b80601f0160208091040260200160405190810160405280929190818152602001828054612ee1906142ee565b8015612f2e5780601f10612f0357610100808354040283529160200191612f2e565b820191906000526020600020905b815481529060010190602001808311612f1157829003601f168201915b5050505050908060040154908060050160009054906101000a900460ff16908060050160019054906101000a900473ffffffffffffffffffffffffffffffffffffffff16908060050160159054906101000a900460ff16905088565b600080600060055411612fd2576040517f08c379a0000000000000000000000000000000000000000000000000000000008152600401612fc990614a08565b60405180910390fd5b60006005549050600060015490505b60008211801561300f5750600d600083815260200190815260200160002060009054906101000a900460ff16155b1561302757818061301f90614a28565b925050612fe1565b81819350935050509091565b600073ffffffffffffffffffffffffffffffffffffffff16600960003373ffffffffffffffffffffffffffffffffffffffff1673ffffffffffffffffffffffffffffffffffffffff16815260200190815260200160002060000160009054906101000a900473ffffffffffffffffffffffffffffffffffffffff1673ffffffffffffffffffffffffffffffffffffffff1603613104576040517f08c379a00000000000000000000000000000000000000000000000000000000081526004016130fb9061429f565b60405180910390fd5b60016006600083815260200190815260200160002060050160156101000a81548160ff02191690831515021790555050565b6060600073ffffffffffffffffffffffffffffffffffffffff16600960003373ffffffffffffffffffffffffffffffffffffffff1673ffffffffffffffffffffffffffffffffffffffff16815260200190815260200160002060000160009054906101000a900473ffffffffffffffffffffffffffffffffffffffff1673ffffffffffffffffffffffffffffffffffffffff1603613209576040517f08c379a00000000000000000000000000000000000000000000000000000000081526004016132009061429f565b60405180910390fd5b600480548060200260200160405190810160405280929190818152602001828054801561325557602002820191906000526020600020905b815481526020019060010190808311613241575b5050505050905090565b813373ffffffffffffffffffffffffffffffffffffffff166006600083815260200190815260200160002060050160019054906101000a900473ffffffffffffffffffffffffffffffffffffffff1673ffffffffffffffffffffffffffffffffffffffff1614613304576040517f08c379a00000000000000000000000000000000000000000000000000000000081526004016132fb9061475e565b60405180910390fd5b6006600084815260200190815260200160002060050160159054906101000a900460ff16613367576040517f08c379a000000000000000000000000000000000000000000000000000000000815260040161335e90614ac3565b60405180910390fd5b60016006600085815260200190815260200160002060050160006101000a81548160ff021916908315150217905550816006600085815260200190815260200160002060040181905550827fbd627619b9f2a20ce2c4498f2185c68bc4236be92480ede53e43f4da545ea9c560405160405180910390a2505050565b6060600060606000806000600960003373ffffffffffffffffffffffffffffffffffffffff1673ffffffffffffffffffffffffffffffffffffffff16815260200190815260200160002060000160009054906101000a900473ffffffffffffffffffffffffffffffffffffffff1673ffffffffffffffffffffffffffffffffffffffff163373ffffffffffffffffffffffffffffffffffffffff1614806134eb57506006600088815260200190815260200160002060050160019054906101000a900473ffffffffffffffffffffffffffffffffffffffff1673ffffffffffffffffffffffffffffffffffffffff163373ffffffffffffffffffffffffffffffffffffffff16145b61352a576040517f08c379a000000000000000000000000000000000000000000000000000000000815260040161352190614b55565b60405180910390fd5b600060086000600660008b815260200190815260200160002060050160019054906101000a900473ffffffffffffffffffffffffffffffffffffffff1673ffffffffffffffffffffffffffffffffffffffff1673ffffffffffffffffffffffffffffffffffffffff16815260200190815260200160002054905060066000898152602001908152602001600020600101600660008a815260200190815260200160002060020154600660008b8152602001908152602001600020600301600660008c81526020019081526020016000206004015484600660008e815260200190815260200160002060050160159054906101000a900460ff1685805461362f906142ee565b80601f016020809104026020016040519081016040528092919081815260200182805461365b906142ee565b80156136a85780601f1061367d576101008083540402835291602001916136a8565b820191906000526020600020905b81548152906001019060200180831161368b57829003601f168201915b505050505095508380546136bb906142ee565b80601f01602080910402602001604051908101604052809291908181526020018280546136e7906142ee565b80156137345780601f1061370957610100808354040283529160200191613734565b820191906000526020600020905b81548152906001019060200180831161371757829003601f168201915b505050505093509650965096509650965096505091939550919395565b6000604051905090565b600080fd5b600080fd5b6000819050919050565b61377881613765565b811461378357600080fd5b50565b6000813590506137958161376f565b92915050565b6000602082840312156137b1576137b061375b565b5b60006137bf84828501613786565b91505092915050565b600081519050919050565b600082825260208201905092915050565b6000819050602082019050919050565b6137fd81613765565b82525050565b600061380f83836137f4565b60208301905092915050565b6000602082019050919050565b6000613833826137c8565b61383d81856137d3565b9350613848836137e4565b8060005b838110156138795781516138608882613803565b975061386b8361381b565b92505060018101905061384c565b5085935050505092915050565b600060208201905081810360008301526138a08184613828565b905092915050565b6138b181613765565b82525050565b600081519050919050565b600082825260208201905092915050565b60005b838110156138f15780820151818401526020810190506138d6565b60008484015250505050565b6000601f19601f8301169050919050565b6000613919826138b7565b61392381856138c2565b93506139338185602086016138d3565b61393c816138fd565b840191505092915050565b600073ffffffffffffffffffffffffffffffffffffffff82169050919050565b600061397282613947565b9050919050565b61398281613967565b82525050565b60008115159050919050565b61399d81613988565b82525050565b600060e0820190506139b8600083018a6138a8565b81810360208301526139ca818961390e565b905081810360408301526139de818861390e565b905081810360608301526139f2818761390e565b90508181036080830152613a06818661390e565b9050613a1560a0830185613979565b613a2260c0830184613994565b98975050505050505050565b600080fd5b600080fd5b7f4e487b7100000000000000000000000000000000000000000000000000000000600052604160045260246000fd5b613a70826138fd565b810181811067ffffffffffffffff82111715613a8f57613a8e613a38565b5b80604052505050565b6000613aa2613751565b9050613aae8282613a67565b919050565b600067ffffffffffffffff821115613ace57613acd613a38565b5b613ad7826138fd565b9050602081019050919050565b82818337600083830152505050565b6000613b06613b0184613ab3565b613a98565b905082815260208101848484011115613b2257613b21613a33565b5b613b2d848285613ae4565b509392505050565b600082601f830112613b4a57613b49613a2e565b5b8135613b5a848260208601613af3565b91505092915050565b60008060008060808587031215613b7d57613b7c61375b565b5b600085013567ffffffffffffffff811115613b9b57613b9a613760565b5b613ba787828801613b35565b9450506020613bb887828801613786565b935050604085013567ffffffffffffffff811115613bd957613bd8613760565b5b613be587828801613b35565b9250506060613bf687828801613786565b91505092959194509250565b600060e082019050613c17600083018a6138a8565b613c246020830189613979565b8181036040830152613c36818861390e565b90508181036060830152613c4a818761390e565b90508181036080830152613c5e818661390e565b905081810360a0830152613c72818561390e565b9050613c8160c0830184613994565b98975050505050505050565b600080600060608486031215613ca657613ca561375b565b5b600084013567ffffffffffffffff811115613cc457613cc3613760565b5b613cd086828701613b35565b935050602084013567ffffffffffffffff811115613cf157613cf0613760565b5b613cfd86828701613b35565b925050604084013567ffffffffffffffff811115613d1e57613d1d613760565b5b613d2a86828701613b35565b9150509250925092565b60008060408385031215613d4b57613d4a61375b565b5b6000613d5985828601613786565b925050602083013567ffffffffffffffff811115613d7a57613d79613760565b5b613d8685828601613b35565b9150509250929050565b613d9981613967565b8114613da457600080fd5b50565b600081359050613db681613d90565b92915050565b600060208284031215613dd257613dd161375b565b5b6000613de084828501613da7565b91505092915050565b6000608082019050613dfe6000830187613979565b8181036020830152613e10818661390e565b90508181036040830152613e24818561390e565b90508181036060830152613e38818461390e565b905095945050505050565b60008060008060808587031215613e5d57613e5c61375b565b5b600085013567ffffffffffffffff811115613e7b57613e7a613760565b5b613e8787828801613b35565b945050602085013567ffffffffffffffff811115613ea857613ea7613760565b5b613eb487828801613b35565b935050604085013567ffffffffffffffff811115613ed557613ed4613760565b5b613ee187828801613b35565b925050606085013567ffffffffffffffff811115613f0257613f01613760565b5b613f0e87828801613b35565b91505092959194509250565b600060c082019050613f2f60008301896138a8565b8181036020830152613f41818861390e565b9050613f5060408301876138a8565b8181036060830152613f62818661390e565b90508181036080830152613f76818561390e565b905081810360a0830152613f8a818461390e565b9050979650505050505050565b600060a082019050613fac6000830188613979565b613fb960208301876138a8565b613fc66040830186613979565b613fd360608301856138a8565b8181036080830152613fe5818461390e565b90509695505050505050565b600061010082019050614007600083018b6138a8565b8181036020830152614019818a61390e565b905061402860408301896138a8565b818103606083015261403a818861390e565b905061404960808301876138a8565b61405660a0830186613994565b61406360c0830185613979565b61407060e0830184613994565b9998505050505050505050565b600060408201905061409260008301856138a8565b61409f60208301846138a8565b9392505050565b600080604083850312156140bd576140bc61375b565b5b60006140cb85828601613786565b92505060206140dc85828601613786565b9150509250929050565b600060c0820190508181036000830152614100818961390e565b905061410f60208301886138a8565b8181036040830152614121818761390e565b905061413060608301866138a8565b61413d60808301856138a8565b61414a60a0830184613994565b979650505050505050565b7f55736572206e6f74207665726966696564000000000000000000000000000000600082015250565b600061418b6011836138c2565b915061419682614155565b602082019050919050565b600060208201905081810360008301526141ba8161417e565b9050919050565b7f4c616e64206e6f7420666f722073616c65000000000000000000000000000000600082015250565b60006141f76011836138c2565b9150614202826141c1565b602082019050919050565b60006020820190508181036000830152614226816141ea565b9050919050565b7f4f6e6c7920676f7665726e6d656e7420617574686f726974792063616e20706560008201527f72666f726d207468697320616374696f6e000000000000000000000000000000602082015250565b60006142896031836138c2565b91506142948261422d565b604082019050919050565b600060208201905081810360008301526142b88161427c565b9050919050565b7f4e487b7100000000000000000000000000000000000000000000000000000000600052602260045260246000fd5b6000600282049050600182168061430657607f821691505b602082108103614319576143186142bf565b5b50919050565b7f4e487b7100000000000000000000000000000000000000000000000000000000600052601160045260246000fd5b600061435982613765565b91507fffffffffffffffffffffffffffffffffffffffffffffffffffffffffffffffff820361438b5761438a61431f565b5b600182019050919050565b60008190508160005260206000209050919050565b60006020601f8301049050919050565b600082821b905092915050565b6000600883026143f87fffffffffffffffffffffffffffffffffffffffffffffffffffffffffffffffff826143bb565b61440286836143bb565b95508019841693508086168417925050509392505050565b6000819050919050565b600061443f61443a61443584613765565b61441a565b613765565b9050919050565b6000819050919050565b61445983614424565b61446d61446582614446565b8484546143c8565b825550505050565b600090565b614482614475565b61448d818484614450565b505050565b5b818110156144b1576144a660008261447a565b600181019050614493565b5050565b601f8211156144f6576144c781614396565b6144d0846143ab565b810160208510156144df578190505b6144f36144eb856143ab565b830182614492565b50505b505050565b600082821c905092915050565b6000614519600019846008026144fb565b1980831691505092915050565b60006145328383614508565b9150826002028217905092915050565b61454b826138b7565b67ffffffffffffffff81111561456457614563613a38565b5b61456e82546142ee565b6145798282856144b5565b600060209050601f8311600181146145ac576000841561459a578287015190505b6145a48582614526565b86555061460c565b601f1984166145ba86614396565b60005b828110156145e2578489015182556001820191506020850194506020810190506145bd565b868310156145ff57848901516145fb601f891682614508565b8355505b6001600288020188555050505b505050505050565b7f55736572206e6f7420666f756e64000000000000000000000000000000000000600082015250565b600061464a600e836138c2565b915061465582614614565b602082019050919050565b600060208201905081810360008301526146798161463d565b9050919050565b7f417574686f7269747920616c7265616479207265676973746572656400000000600082015250565b60006146b6601c836138c2565b91506146c182614680565b602082019050919050565b600060208201905081810360008301526146e5816146a9565b9050919050565b7f4f6e6c7920746865206c616e64206f776e65722063616e20706572666f726d2060008201527f7468697320616374696f6e000000000000000000000000000000000000000000602082015250565b6000614748602b836138c2565b9150614753826146ec565b604082019050919050565b600060208201905081810360008301526147778161473b565b9050919050565b7f4e6f20627579657220666f722074686973206c616e6400000000000000000000600082015250565b60006147b46016836138c2565b91506147bf8261477e565b602082019050919050565b600060208201905081810360008301526147e3816147a7565b9050919050565b60006020820190508181036000830152614804818461390e565b905092915050565b7f5573657220616c72656164792072656769737465726564000000000000000000600082015250565b60006148426017836138c2565b915061484d8261480c565b602082019050919050565b6000602082019050818103600083015261487181614835565b9050919050565b7f53616c65206e6f7420617070726f766564206279206f776e6572000000000000600082015250565b60006148ae601a836138c2565b91506148b982614878565b602082019050919050565b600060208201905081810360008301526148dd816148a1565b9050919050565b7f4e6f2073616c6520617070726f76656420666f722074686973206c616e640000600082015250565b600061491a601e836138c2565b9150614925826148e4565b602082019050919050565b600060208201905081810360008301526149498161490d565b9050919050565b7f53616c6520616c726561647920617070726f7665640000000000000000000000600082015250565b60006149866015836138c2565b915061499182614950565b602082019050919050565b600060208201905081810360008301526149b581614979565b9050919050565b7f4e6f2073616c657320617070726f766564207965740000000000000000000000600082015250565b60006149f26015836138c2565b91506149fd826149bc565b602082019050919050565b60006020820190508181036000830152614a21816149e5565b9050919050565b6000614a3382613765565b915060008203614a4657614a4561431f565b5b600182039050919050565b7f4c616e64206d75737420626520766572696669656420627920676f7665726e6d60008201527f656e740000000000000000000000000000000000000000000000000000000000602082015250565b6000614aad6023836138c2565b9150614ab882614a51565b604082019050919050565b60006020820190508181036000830152614adc81614aa0565b9050919050565b7f43616c6c6572206973206e6f7420617574686f72697a656420746f207669657760008201527f206c616e642064657461696c7300000000000000000000000000000000000000602082015250565b6000614b3f602d836138c2565b9150614b4a82614ae3565b604082019050919050565b60006020820190508181036000830152614b6e81614b32565b905091905056fea264697066735822122052ba0a2eddd8cce2d8ebf8a588034abce788b704ade03a013f950025c0a01e5464736f6c63430008140033",
  "linkReferences": {},
  "deployedLinkReferences": {}
}